:020000040800F2
:10000000900B0020790200084F200008491D0008CD
:100010004B200008D3040008552900080000000008
:100020000000000000000000000000005320000855
:10003000D7040008000000005120000855200008E7
:10004000930200089302000893020008930200083C
:10005000930200089302000893020008930200082C
:10006000930200089302000893020008930200081C
:10007000930200089302000893020008930200080C
:1000800093020008930200089302000893020008FC
:1000900093020008930200089302000893020008EC
:1000A00093020008930200089302000893020008DC
:1000B00093020008930200089302000893020008CC
:1000C00093020008930200089302000893020008BC
:1000D00093020008930200089302000893020008AC
:1000E000930200089302000893020008930200089C
:1000F000930200089302000893020008930200088C
:10010000930200089302000893020008930200087B
:10011000930200089302000893020008930200086B
:10012000930200089302000893020008930200085B
:10013000930200089302000893020008930200084B
:10014000930200089302000893020008930200083B
:10015000930200089302000893020008930200082B
:10016000930200089302000893020008930200081B
:100170009302000893020008000000000000000045
:1001800093020008930200089302000893020008FB
:100190009302000893020008000000009302000888
:1001A0009302000893020008000000000000000015
:1001B0009302000800000000000000009302000805
:1001C00093020008930200089302000893020008BB
:1001D000930200089302000800F002F800F03CF8D7
:1001E0000AA090E8000C82448344AAF10107DA4592
:1001F00001D100F031F8AFF2090EBAE80F0013F0A8
:10020000010F18BFFB1A43F00103184768340000C0
:1002100088340000103A24BF78C878C1FAD8520751
:1002200024BF30C830C144BF04680C607047000070
:100230000023002400250026103A28BF78C1FBD8EF
:10024000520728BF30C148BF0B6070471FB503F08D
:10025000DEF91FBD10B510BD00F00CF91146FFF717
:10026000F5FF02F091FF00F02AF903B4FFF7F2FF67
:1002700003BC00F0F5F80000094880470948004732
:10028000FEE7FEE7FEE7FEE7FEE7FEE7FEE7FEE746
:10029000FEE7FEE704480549054A064B70470000A3
:1002A0005D200008D901000890050020900B002077
:1002B000900700209007002053EA020C00F06980AC
:1002C0002DE9F04B4FF00006002B1FBFB3FA83F56A
:1002D00003FA05F424FA05F65E4012BF1643B2FA9B
:1002E00082F502FA05F4C5F120051EBF22FA05FCCD
:1002F00044EA0C04203556EA044C4FEA144418BF73
:10030000641C4FF000084FF00009904271EB030CA1
:1003100039D3002919BFB1FA81F701FA07F6B0FA0B
:1003200080F700FA07F6C7F120071EBF20FA07FC86
:1003300046EA0C062037B6FBF4FCA7EB0507103F96
:1003400007F01F0BCBF120060CFA0BFB2CFA06F67C
:1003500044BFB3460026202FA4BF5E464FF0000BDB
:100360005BEA060C08BF4FF0010B19EB0B09ABFB66
:10037000027C48EB0608C01B06FB02CC0BFB03CC3F
:1003800071EB0C01C1E70B46024641464846BDE809
:10039000F08B13B54FF000004FF00001AFF3008079
:1003A000BDE81C40704710B5203AC0F00B80B1E8A2
:1003B0001850203AA0E81850B1E81850A0E818509A
:1003C000BFF4F5AF5FEA027C24BFB1E81850A0E8A3
:1003D000185044BF18C918C0BDE810405FEA827CBD
:1003E00024BF51F8043B40F8043B08BF7047D207D4
:1003F00028BF31F8023B48BF11F8012B28BF20F875
:10040000023B48BF00F8012B70474FF0000200B5D7
:10041000134694469646203922BFA0E80C50A0E827
:100420000C50B1F12001BFF4F7AF090728BFA0E8D5
:100430000C5048BF0CC05DF804EB890028BF40F8A1
:10044000042B08BF704748BF20F8022B11F0804FE3
:1004500018BF00F8012B70477047704770470000C5
:1004600001491820ABBEFEE7260002000048704795
:100470002C0500207546FFF7F9FFAE4605006946DA
:10048000534620F00700854618B020B5FFF702FF5D
:10049000BDE820404FF000064FF000074FF0000885
:1004A0004FF0000B21F00701AC46ACE8C009ACE806
:1004B000C009ACE8C009ACE8C0098D46704710B56A
:1004C0000446AFF300802046BDE81040FFF7CDBEE4
:1004D000704700BFFEE770477047000070B50446E4
:1004E00000F016F906462546681C10B1044800784D
:1004F000054400BF00F00CF9801BA842FAD370BD80
:1005000008000020F8B502460B4600250024002014
:100510000021D7E0012606FA01F51E6806EA050467
:10052000AC4273D15E68012E08D05E68022E05D001
:100530005E68112E02D05E68122E13D190684F00B3
:100540000326BE40B0434F00DE68BE40304390609B
:10055000506801268E40B0431E79C6F300168E40C7
:1005600030435060D0684F000326BE40B0434F0078
:100570009E68BE403043D0605E68022E02D05E6846
:10058000122E13D1CF0802F1200656F827004E078D
:10059000F70E0F26BE40B0434F07FF0E1E69BE4048
:1005A0003043CF0802F1200646F8270010684F00BC
:1005B0000326BE40B0431E7906F003064F00BE403E
:1005C000304310605E6806F08056B6F1805F78D1E7
:1005D00000BF002600963D4E366846F480463B4FED
:1005E0003E603E46366806F48046009600BF00BF77
:1005F000374E8F0856F827008E07370F0F26BE405C
:10060000B043344EB24202D100261FE059E0324ED0
:10061000B24201D1012619E0304EB24201D1022688
:1006200014E02F4EB24201D103260FE02D4EB2420C
:1006300001D104260AE02C4EB24201D1052605E084
:100640002A4EB24201D1062600E007268F073F0F4F
:10065000BE4030431E4E8F0846F82700244E3068B7
:10066000A0435E6806F48036B6F5803F00D1204393
:100670001F4E3060361D3068A0435E6806F40036B9
:10068000B6F5003F00D12043194E361D3060361DAF
:100690003068A0435E6806F48016B6F5801F00D16E
:1006A0002043134E08363060361D3068A0435E6824
:1006B00006F40016B6F5001F00D120430C4E0C3690
:1006C0003060491C1029FFF425AFF8BD44380240C2
:1006D00008380140000002400004024000080240C7
:1006E000000C0240001002400014024000180240BA
:1006F000003C0140024613690B400BB1012000E0B1
:10070000002070470AB1816101E00B0483617047EA
:1007100001480068704700000000002070B50446E2
:100720000CB9012070BD94F83D0028B9002084F870
:100730003C00204600F092F9242084F83D00206817
:10074000006820F00100216808602068006840F41B
:100750000040216808602068006820F4004021689B
:10076000086000F097FE05465C496068884206D83C
:100770005B48854201D2012007E0002005E059488E
:10078000854201D2012000E00020012800D1C9E704
:100790005548B5FBF0F62068406820F03F00304334
:1007A000216848604D496068884201D8701C07E0A4
:1007B0004FF4967070434FF47A71B0FBF1F0401C27
:1007C0002168096A21F03F01084321680862434912
:1007D0006068884214D8681E61684900B0FBF1F077
:1007E000401CC0F30B00042801D204203DE0681E29
:1007F00061684900B0FBF1F0401CC0F30B0034E02D
:10080000A06838B9681E616801EB4101B0FBF1F0E6
:10081000401C0AE0681E616801EBC10202EB011195
:10082000B0FBF1F0401C40F48040C0F30B0008B96D
:1008300001201AE0A06848B9681E616801EB410117
:10084000B0FBF1F0401CC0F30B000CE0681E6168C7
:1008500001EBC10202EB0111B0FBF1F0401CC0F34F
:100860000B0040F4804040F400402168C9694CF618
:10087000FF72914308432168C861D4E90701084326
:100880002168096821F0C001084321680860D4E9A3
:10089000031008432168896848F2FF3291430843F6
:1008A00021688860D4E9050108432168C96821F0FE
:1008B000FF0108432168C8602068006840F001001B
:1008C0002168086000202064202084F83D0000207A
:1008D000206384F83E0000BF24E70000A0860100EA
:1008E00080841E0000093D0040420F002DE9F843BE
:1008F0000446894616461F46DDF82080FFF708FFAC
:10090000054694F83D0020287ED119230122514943
:100910002046009501F0C6FA10B10220BDE8F88328
:1009200000BF94F83C00012801D10220F6E7012025
:1009300084F83C0000BF2068006800F0010028B97E
:100940002068006840F001002168086020680068A5
:1009500020F4006021680860212084F83D00102008
:1009600084F83E000020206466626785608D2085E3
:100970003948E0622B4642464946204601F006FAD5
:1009800008B10120CAE700BF00200090206840693C
:10099000009020688069009000BF00BF44E02A46B4
:1009A0004146204601F023FB50B1206C042805D1BC
:1009B0002068006840F40070216808600120ADE7FD
:1009C000606A007821680861606A401C6062608D1E
:1009D000401E6085208D401E208520684069C0F340
:1009E000800070B1208D60B1606A00782168086174
:1009F000606A401C6062608D401E6085208D401ED4
:100A000020852A46414600E022E0204601F01CFAFB
:100A100050B1206C042805D12068006840F40070B3
:100A200021680860012079E7208D0028B7D120686F
:100A3000006840F4007021680860202084F83D00C0
:100A4000002084F83E0000BF84F83C0000BF65E74A
:100A5000022063E7020010000000FFFF10B586B01F
:100A60000446142101A8FFF7D0FC1B4920688842E6
:100A700030D100BF002000901848006840F002000C
:100A8000164908600846006800F00200009000BFA8
:100A900000BF4FF4107001901220029001200390CB
:100AA000032004900420059001A90D48FFF72AFDBA
:100AB00000BF0020009009481030006840F400108A
:100AC0000649103108600846006800F400100090E4
:100AD00000BF00BF06B010BD0054004030380240D7
:100AE00000040240034800680349097808440149AA
:100AF00008607047000000200800002010B50D4875
:100B0000006840F400700B4908600846006840F433
:100B1000806008600846006840F480700860032028
:100B200000F092F8002000F007F800F02BF8002009
:100B300010BD0000003C024070B504460E4800782D
:100B40004FF47A71B1FBF0F00C490968B1FBF0F594
:100B5000284600F03BFF08B1012070BD102C07D2E1
:100B600000222146501E00F031F80548046001E0E3
:100B70000120F2E70020F0E7080000200C00002030
:100B80000400002008B500BF002000900E48006857
:100B900040F480400C4908600846006800F480403A
:100BA000009000BF00BF00BF00200090081F006839
:100BB00040F08050091F08600846006800F080502F
:100BC000009000BF00BF08BD443802402DE9F05F2F
:100BD00080460D461646002702F0BAFA0746394607
:100BE0002A46334601F00700C0F1070ABAF1040FA4
:100BF00002D94FF0040A01E0C0F1070AD14600F122
:100C0000040ABAF1070F02D24FF0000A01E0A0F186
:100C1000030AD4464FF0010A0AFA09FAAAF1010AB6
:100C20000AEA020A0AFA0CFA4FF0010B0BFA0CFB63
:100C3000ABF1010B0BEA030B4AEA0B0421464046D9
:100C400002F08EFABDE8F09F00BF00F00702064BED
:100C500019684FF6FF031940044B0B4343EA022186
:100C6000014B196000BF70470CED00E00000FA0571
:100C700001460A680120C1F8FC03002081F8F40352
:100C8000906940F000609061506D024B18435065D0
:100C9000002070470300001070B58AB0044614B9F4
:100CA00001200AB070BD266894F8BD0328B9002061
:100CB00084F8BC03204600F0A9F8032084F8BD03A3
:100CC000F06B00F4807008B900212161206801F008
:100CD000E7FD282204F110016846FFF764FB94E861
:100CE0000F0001F079FC20B1022084F8BD0301203F
:100CF000D7E70021206801F009FE002531E001213D
:100D0000C5EBC50204F13C0000EB82004170C5EB6D
:100D1000C50104F13C0000F82150C5EBC50100EB12
:100D20008100C5800021C5EBC50204F13C0000EB49
:100D30008200C170C5EBC50204F13C0000EB8200EB
:100D40008160C5EBC50204F13C0000EB8200C1608C
:100D5000C5EBC50204F13C0000EB82004161681C58
:100D6000C5B26068A842CAD800252AE00021C5EBB8
:100D7000C50204F5FE7000EB82004170C5EBC501B1
:100D800004F5FE7000F821500021C5EBC50200EB10
:100D90008200C170C5EBC50204F5FE7000EB820055
:100DA0008160C5EBC50204F5FE7000EB8200C160F6
:100DB000C5EBC50204F5FE7000EB82004161681CC2
:100DC000C5B26068A842D1D8282204F11001684653
:100DD000FFF7E9FA94E80F0001F076FC20B1022059
:100DE00084F8BD0301205CE7002084F8380001206E
:100DF00084F8BD03606A012802D12046FFF738FF5E
:100E0000206801F051FC00204BE7000010B586B0CF
:100E10000446142101A8FFF7F8FA2068B0F1A04FAA
:100E200044D100BF002000902148006840F001003C
:100E30001F4908600846006800F00100009000BFEC
:100E400000BF4FF4E8500190022002900020039070
:100E5000032004900A20059001A91648FFF752FBD1
:100E60004FF40070019000200290039001A91148F6
:100E7000FFF748FB00BF0E48001D006840F08000EF
:100E80000B49091D086000BF00200090084814307D
:100E9000006840F480400649143108600846006844
:100EA00000F48040009000BF00BF00BF06B010BD3E
:100EB00030380240000002402DE9F8430446002586
:100EC00000260027A846207800F0010058B1FE480F
:100ED000006820F0C060E1690843FB490860E069F0
:100EE00008B94FF00108207800F0020002280BD169
:100EF000F548006820F0C050216A0843F2490860B4
:100F0000206A08B94FF00108208800F40050B0F5BD
:100F1000005F19D1EC48006820F44010A16C084330
:100F2000E9490860A06C08B94FF00108A06CB0F561
:100F3000001F09D1E448006820F4F8516069401EA0
:100F400041EA0020E0490860208800F48040B0F5C4
:100F5000804F19D1DC48006820F44000E16C084360
:100F6000D9490860E06C08B94FF00108E06CB0F5B1
:100F7000000F09D1D448006820F4F8516069401E80
:100F800041EA0020D0490860207800F008000828D5
:100F90007ED100BF00200090CB484C38006840F064
:100FA0008050C9494C3908600846006800F08050FC
:100FB000009000BF00BFC548006840F48070C3497E
:100FC0000860FFF7A5FB054607E0FFF7A1FB401B04
:100FD000022802D90320BDE8F883BC48006800F469
:100FE00080700028F1D0B8481C38006800F44076C2
:100FF0004EB3A08C00F44070B04224D0B2481C38EC
:10100000006820F440760120B149086000200860A3
:10101000AD481C380660006800F0010098B1FFF789
:1010200077FB054608E0FFF773FB401B41F2883170
:10103000884201D90320CEE7A3481C380068C0F3DA
:1010400040000028EFD000BFA08C00F44070B0F545
:10105000407F0CD19C488438006820F4F8109D4AE9
:10106000616A1140084398498439086007E096484E
:101070008438006820F4F810934984390860924855
:101080001C380068A18CC1F30B0108438E4900E0B5
:1010900002E01C39086000BF207800F0040004283A
:1010A00003D194F854008C490860207800F01000B7
:1010B000102809D184480830006820F44000E16A13
:1010C0000843814908310860207800F0200020287A
:1010D0000FD17D480830006820F00060216B084384
:1010E000794908310860206BB0F1006F01D14FF0F1
:1010F0000108207800F04000402809D172480830EB
:10110000006820F08050A16A08436F4908310860E8
:10111000B8F1010F02D0206880287DD100206F49EE
:101120008866FFF7F5FA054606E0FFF7F1FA401B7F
:10113000022801D903204EE763488C380068C0F3C9
:10114000C0600028F1D16649206D0860207800F069
:10115000010008B1E069D0B1207800F00200022857
:1011600001D1206A98B1207800F02000202803D116
:10117000206BB0F1006F0AD0207800F040004028CA
:1011800012D1A06A80B9206BB0F1006F0CD1D4E904
:10119000011041EA8011207B41EA0061207C41EA94
:1011A0000070494908390860208800F40050B0F503
:1011B000005F01D1A06C38B1208800F48040B0F508
:1011C000804F1BD1E06CC8B93F4808380068C0F3B5
:1011D0000367D4E9011041EA801040EA0761207CEE
:1011E00041EA00703849083908603748006820F043
:1011F0001F00A169491E084333490860207800F0A8
:10120000800080280ED1D4E9011041EA8011207BB2
:1012100041EA0061207C00E019E041EA00702A49BF
:101220000839086001202D498866FFF771FA0546E4
:1012300006E0FFF76DFA401B022801D90320CAE639
:1012400021488C380068C0F3C0600028F1D02088A5
:1012500000F48070B0F5807F07D11B48006820F053
:101260000040616B084318490860208800F4007052
:10127000B0F5007F07D11448006820F40040A16B4E
:10128000084311490860208800F48060B0F5806F41
:1012900007D10D48006820F00040E16B08430A497F
:1012A0000860208800F40060B0F5006F07D10648A0
:1012B000006820F48040216C0843034908602088BE
:1012C00000F480500EE000008C38024000700040B6
:1012D000400E4742FFFCFF0FE0114742000047422B
:1012E000D8104742B0F5805F07D10548006820F06C
:1012F0004040616C08430249086000206BE6000032
:101300009438024070B504460D460CB9012070BDFA
:101310005848006800F00F00A84209D255490D70E6
:101320000846006800F00F00A84201D00120EEE757
:10133000207800F0020002281DD1207800F004007F
:10134000042805D14C48006840F4E0504A49086040
:10135000207800F00800082805D14748006840F4CC
:101360006040454908604448006820F0F000A168EA
:10137000084341490860207800F00100A8B3606884
:10138000012807D13C4808380068C0F34040B8B98C
:101390000120BCE76068022802D06068032807D1FA
:1013A000354808380068C0F3406048B90120AEE70E
:1013B000314808380068C0F3400008B90120A6E7AA
:1013C0002D48006820F00300616808432A4908603E
:1013D000FFF79EF9064609E0FFF79AF9801B41F2F4
:1013E0008831884202D9032091E707E0224800684B
:1013F00000F00C006168B0EB810FEDD11D48006872
:1014000000F00F00A84209D91A490D70084600687B
:1014100000F00F00A84201D0012078E7207800F00A
:101420000400042807D11448006820F4E050E16863
:10143000084311490860207800F00800082808D106
:101440000D48006820F46040216940EAC1000A4963
:10145000086000F03FF808490968C1F30311074A22
:10146000515CC8400649086006480068FFF764FB05
:1014700000204CE7003C02400838024022360008B9
:101480000C000020040000200148006870470000A4
:101490000C00002000B5FFF7F7FF04490968C1F30D
:1014A0008221034A515CC84000BD00000838024058
:1014B0003236000800B5FFF7E7FF04490968C1F3B9
:1014C0004231034A515CC84000BD00000838024068
:1014D000323600082DE9F047002400250026A146F9
:1014E0002548006800F00C0020B1042805D0082829
:1014F0003AD105E0DFF8849039E0DFF8849036E0F7
:101500001D48001F006800F03F041B48001F0068D2
:1015100000F4800078B11A481749091F0968C1F31F
:101520008811A0FB01700146224600233846FEF7D1
:10153000C3FE05460EE011480F49091F0968C1F3B3
:101540008811A0FB01700146224600233846FEF7B1
:10155000B3FE05460848001F0068C0F30140401C68
:101560004600B5FBF6F902E0DFF8109000BF00BFBF
:101570004846BDE8F0870000083802400024F40027
:1015800000127A00F8B504460025207800F001002A
:10159000002874D0F748006800F00C0004280DD033
:1015A000F448006800F00C00082813D1F148001F2F
:1015B000006800F48000B0F5800F0BD1ED480838CA
:1015C0000068C0F34040002859D06068002856D118
:1015D0000120F8BD00BF6068B0F5803F08D1E54844
:1015E0000838006840F48030E249083908601EE09D
:1015F0006068B0F5A02F0DD1DE480838006840F4CF
:101600008020DC49083908600846006840F48030D2
:1016100008600CE0D7480838006820F48030D549CD
:10162000083908600846006820F48020086000BF80
:10163000606890B1FFF76CF8054606E0FFF768F8C0
:10164000401B642801D90320C3E7CA480838006852
:10165000C0F340400028F1D011E0FFF759F80546EB
:1016600006E0FFF755F8401B642801D90320B0E7D6
:10167000C04808380068C0F340400028F1D1207805
:1016800000F0020002285FD1BA48006800F00C00A8
:1016900058B1B848006800F00C0008281CD1B548C3
:1016A000001F006800F48000B0B9B2480838006834
:1016B000C0F3400020B1E068012801D0012088E794
:1016C000AC480838006820F0F800216940EAC10001
:1016D000A8490839086037E0E06800B30120A6494E
:1016E0000860FFF715F8054606E0FFF711F8401B04
:1016F000022801D903206CE79E4808380068C0F32F
:1017000040000028F1D09B480838006820F0F8001D
:10171000216940EAC10097490839086014E00020B7
:1017200095490860FEF7F4FF054606E0FEF7F0FF76
:10173000401B022801D903204BE78E480838006877
:10174000C0F340000028F1D1207800F008000828FC
:101750002CD16069A8B1012088490860FEF7D8FF44
:10176000054606E0FEF7D4FF401B022801D90320FE
:101770002FE780486C300068C0F340000028F1D0AB
:1017800014E000207D490860FEF7C2FF054606E030
:10179000FEF7BEFF401B022801D9032019E7754858
:1017A0006C300068C0F340000028F1D1207800F0D0
:1017B0000400042870D100266E483830006800F01C
:1017C000805090B900BF002000906A48383000680F
:1017D00040F080506749383108600846006800F0E2
:1017E0008050009000BF00BF01266548006800F4EB
:1017F0008070B0B96248006840F480706049086049
:10180000FEF786FF054606E0FEF782FF401B022832
:1018100001D90320DDE65A48006800F480700028F2
:10182000F2D000BFA068012808D152486830006893
:1018300040F001004F49683108601DE0A0680528AC
:101840000DD14C486830006840F0040049496831C7
:1018500008600846006840F0010008600CE0454858
:101860006830006820F0010042496831086008468D
:10187000006820F00400086000BFA068A8B1FEF76F
:1018800047FF054609E0FEF743FF401B41F2883160
:10189000884202D903209CE626E03648683000687A
:1018A000C0F340000028EED013E0FEF731FF0546FC
:1018B00008E0FEF72DFF401B41F28831884201D934
:1018C000032086E62B4868300068C0F340000028FB
:1018D000EFD1012E07D127483830006820F0805022
:1018E00024493831086000BFA069D8B32148006896
:1018F00000F00C00082861D0A069022849D100201E
:101900001D490866FEF704FF054606E0FEF700FFE6
:10191000401B022801D903205BE6164808380068FE
:10192000C0F340600028F1D1D4E907010843616A9F
:1019300040EA81110122A06AC2EB500041EA004155
:101940002C20005D41EA00613020005D41EA00701A
:101950000849091F0860012007490866FEF7D8FEFC
:1019600005460FE02CE0FEF7D3FE401B022809D904
:1019700003202EE60838024000004742800E47420E
:10198000007000400F480068C0F340600028EAD0B3
:1019900016E000200C490866FEF7BAFE054606E090
:1019A000FEF7B6FE401B022801D9032011E60548C8
:1019B0000068C0F340600028F2D101E0012008E691
:1019C000002006E6003802400000474270B5044699
:1019D0002546681EB0F1807F01D301200FE0681E0C
:1019E0004FF0E02148610F214FF0FF3001F0B8FBCC
:1019F00000204FF0E021886107200861002070BDC1
:101A000030B502460B4600BF92F83C00012801D1D8
:101A1000022030BD012082F83C0000BF022082F885
:101A20003D00106844681068816824F070041868EC
:101A3000044310684460184D1068A8421BD0106819
:101A4000B0F1804F17D0154D1068A84213D0144D37
:101A50001068A8420FD0134D1068A8420BD0124D49
:101A60001068A84207D0114D1068A84203D0104D4D
:101A70001068A84205D121F0800158680143106820
:101A80008160012082F83D0000BF002082F83C0008
:101A900000BF00BFBDE7000000000140000400409F
:101AA00000080040000C00400004014000400140DC
:101AB0000018004010B504460CB9012010BD94F880
:101AC0003D0028B9002084F83C00204600F00CF8C6
:101AD000022084F83D00211D206800F0CDFA01208D
:101AE00084F83D000020E9E708B50A4A0168914200
:101AF0000FD100BF002100910749096841F00201A0
:101B0000054A11601146096801F00201009100BF09
:101B100000BF08BD000400404038024001460220DA
:101B200081F83D000868806800F00702062A05D0A9
:101B30000868006840F001000B681860012081F817
:101B40003D00002070472DE9F04104460D4600BFDE
:101B500094F83C00012802D10220BDE8F081012068
:101B600084F83C0000BF022084F83D0020688668AD
:101B700026F0770626F47F4620688660286850287D
:101B800033D00CDC202850D004DC00284BD01028A7
:101B900051D149E0302849D040284CD139E0602863
:101BA0002DD0702807D0B0F5805F03D0B0F5005F6E
:101BB00041D10DE040E0D5E902136A68206800F0E9
:101BC000C7FA2068866846F077062068866033E0AA
:101BD000D5E902136A68206800F0BAFA20688068C4
:101BE00040F480402168886026E0EA6869682068DF
:101BF00000F0C2FA5021206800F0B5FA1CE0EA6853
:101C00006968206800F0CBFA6021206800F0ABFA28
:101C100012E0EA686968206800F0AEFA40212068A6
:101C200000F0A1FA08E000BF00BF00BF29682068EB
:101C300000F099FA00E000BF00BF012084F83D00E9
:101C400000BF002084F83C0000BF00BF85E710B54E
:101C500004460CB9012010BDA06900B100E000BF2E
:101C600094F8390028B9002084F83800204600F0A4
:101C700027F8242084F839002068C06820F4005038
:101C80002168C860204600F09FFA2068006920F4AF
:101C90009040216808612068406920F02A0021688E
:101CA00048612068C06840F400502168C860002086
:101CB000E063202084F8390084F83A000020CAE765
:101CC00010B586B00446142101A8FEF79EFB1B49FF
:101CD0002068884230D100BF00200090184800687A
:101CE00040F48020164908600846006800F480200F
:101CF000009000BF00BF00BF0020009010481038C7
:101D0000006840F008000E49103908600846006875
:101D100000F00800009000BF00BF4FF44070019039
:101D200002200290002003900320049007200590D9
:101D300001A90448FEF7E6FB06B010BD00480040CC
:101D400040380240000C024000BFFEE70146086830
:101D50004069C0F38020B0B16FF480600A685061C0
:101D600000200863202081F83D00002081F83E001B
:101D7000086C40F00400086400BF002081F83C00BB
:101D800000BF012070470020FCE700002DE9F84368
:101D900004460D4617469846E66A082E04D0012EE2
:101DA00002D016F5803F06D12068006840F48070AC
:101DB0002168086008E0206B122805D120680068BF
:101DC00040F48070216808603B4600224FF001110A
:101DD0002046CDF8008000F065F850B1206800681A
:101DE00000F4807010B14FF4007020640320BDE84F
:101DF000F8832069B0F5804F04D105F0FE0021681A
:101E0000086112E005F44070F02141EAE010216819
:101E1000086143463A460B49204600F086F808B16F
:101E20000120E4E7E8B22168086143463A460549E3
:101E3000891F204600F079F808B10120D7E700207B
:101E4000D5E700000800010070B504460D461646AF
:101E500020E02046FFF77AFF08B1012070BD681C22
:101E6000C0B1FEF755FC801BA84200D895B90020F0
:101E70002063202084F83D00002084F83E00206C80
:101E800040F02000206400BF002084F83C0000BF28
:101E90000120E3E720684069C0F380000028D8D023
:101EA0000020DBE72DE9F04104460D4617461E46AB
:101EB000DDF818801CE0701CD0B1FEF729FCA0EB07
:101EC0000800B04200D89EB900202063202084F88A
:101ED0003D00002084F83E00206C40F0200020648B
:101EE00000BF002084F83C0000BF0120BDE8F08165
:101EF000C5F3074001280AD120684069A9B208400B
:101F0000A9B2884201D101200BE0002009E020683D
:101F10008069A9B20840A9B2884201D1012000E03D
:101F20000020B842C7D00020E0E72DE9F041044688
:101F30000D4616461F463DE020684069C0F38020EC
:101F4000E8B12068006840F40070216808606FF410
:101F500080602168486100202063202084F83D00D3
:101F6000002084F83E00206C40F00400206400BF94
:101F7000002084F83C0000BF0120BDE8F081701C07
:101F8000C0B1FEF7C5FBC01BB04200D896B9002017
:101F90002063202084F83D00002084F83E00206C5F
:101FA00040F02000206400BF002084F83C0000BF07
:101FB0000120E2E7C5F3074001280AD12068406903
:101FC000A9B20840A9B2884201D101200BE000204B
:101FD00009E020688069A9B20840A9B2884201D10D
:101FE000012000E000200028A6D00020C5E770B541
:101FF00004460D46164620E02046FFF7A7FE08B12E
:10200000012070BD681CC0B1FEF782FB801BA84296
:1020100000D895B900202063202084F83D000020DE
:1020200084F83E00206C40F02000206400BF0020B7
:1020300084F83C0000BF0120E3E720684069C0F35A
:10204000C0100028D8D00020DBE700BFFEE77047B3
:102050007047704710B5FEF745FD10BD0548006894
:1020600040F47000034908604FF000600149803976
:102070000860704788ED00E010B50268294B98426F
:102080000ED0B0F1804F0BD0274B984208D0274B91
:10209000984205D0264B984202D0264B984203D155
:1020A00022F070024B681A431E4B984220D0B0F1C8
:1020B000804F1DD01C4B98421AD01C4B984217D011
:1020C0001B4B984214D01B4B984211D01A4B98428C
:1020D0000ED01A4B98420BD0194B984208D0194B8E
:1020E000984205D0184B984202D0184B984203D121
:1020F00022F44072CB681A4322F080034C6943EA11
:10210000040202608B68C3620B688362054B9842CD
:1021100002D0084B984201D10B690363012343614C
:1021200010BD000000000140000400400008004015
:10213000000C004000040140004001400044014008
:102140000048014000180040001C004000200040F2
:1021500030B50C46816821F47F4142EA03252543CE
:102160002943816030BD0A46816821F0700142F048
:10217000070319438160704730B50B461446026A65
:10218000056A25F001050562816921F0F00141EA47
:10219000041122F00A021A438161026230BD30B597
:1021A0000B461446056A25F0100505628169026A2E
:1021B00021F4704141EA043122F0A00242EA031204
:1021C0008161026230BD00002DE9F84F04462068AD
:1021D000006920F44050E1680843216808612169E2
:1021E000A068084361690843E169084300902068DA
:1021F000C06849F20C618843009908432168C860AF
:102200002068406920F44070A16908432168486152
:10221000E069B0F5004F7DD1EB49206888420BD0D2
:10222000EA492068884207D0E9492068884203D0FB
:10223000E849206888426FD1FFF73CF981460220C7
:102240006168A0FB01510B461920A9FB00712A46C9
:102250003846FEF731F86421B0FBF1F04FEA001A7E
:1022600002206168A0FB01510B461920A9FB0071F7
:102270002A463846FEF720F8074602206168A0FB90
:1022800001510B461920A9FB00B12A465846FEF71A
:1022900013F86421B0FBF1F000EBC00101EB00107A
:1022A000A7EB8000322101EBC0006421B0FBF1F00C
:1022B00000F0F8000AEB400A02206168A0FB01511F
:1022C0000B461920A9FB00712A463846FDF7F4FF9A
:1022D000074602206168A0FB01510B461920A9FBAB
:1022E00000B12A465846FDF7E7FF6421B0FBF1F044
:1022F00000EBC00101EB0010A7EB8000322101EBE5
:10230000C0006421B0FBF1F000F0070050442168E8
:10231000886057E16EE0FFE7FFF7BCF881460220D6
:102320006168A0FB01510B461920A9FB00712A46E8
:102330003846FDF7C1FF6421B0FBF1F04FEA001A07
:1023400002206168A0FB01510B461920A9FB007116
:102350002A463846FDF7B0FF074602206168A0FB19
:1023600001510B461920A9FB00B12A465846FDF73A
:10237000A3FF6421B0FBF1F000EBC00101EB001002
:10238000A7EB8000322101EBC0006421B0FBF1F02B
:1023900000F0F8000AEB400A02206168A0FB01513E
:1023A0000B461920A9FB00712A463846FDF784FF29
:1023B000074602206168A0FB015003461920A9FBD3
:1023C00000B12A465846FDF777FF6421B0FBF1F0D3
:1023D00000EBC00101EB0010A7EB8000322101EB04
:1023E000C0006421B0FBF1F000F007005044216808
:1023F0008860E7E07449206888420BD07349206800
:10240000884207D072492068884203D07149206809
:1024100088426BD1FFF74EF8814604206168A0FB2B
:1024200001510B461920A9FB00712A463846FDF7D9
:1024300043FF824604206168A0FB01500346192037
:10244000A9FB00712A463846FDF736FF6421B0FB30
:10245000F1F000EBC00101EB0010AAEB800032218B
:1024600001EB00106421B0FBF1F000F0F00A042051
:102470006168A0FB015003461920A9FB00712A46A0
:102480003846FDF719FF6421B0FBF1F00AEB001AA2
:1024900004206168A0FB01510B461920A9FB0071C3
:1024A0002A463846FDF708FF074604206168A0FB6E
:1024B000015003461920A9FB00B12A465846FDF7F2
:1024C000FBFE6421B0FBF1F000EBC00101EB00105A
:1024D000A7EB8000322101EB00106421B0FBF1F08A
:1024E00000F00F005044216888606BE0FEF7D2FFD7
:1024F000814604206168A0FB015003461920A9FB16
:1025000000712A463846FDF7D7FE824604206168EE
:10251000A0FB015003461920A9FB00712A4638464A
:10252000FDF7CAFE6421B0FBF1F000EBC00101EB46
:102530000010AAEB8000322101EB00106421B0FBF7
:10254000F1F000F0F00A04206168A0FB015003469E
:102550001920A9FB007001462A463846FDF7ACFE5B
:102560006421B0FBF1F00AEB001A04206168A0FBC3
:10257000017003461920A9FB00513A462846FDF791
:102580009BFE074604206168A0FB0150034619200A
:10259000A9FB00B12A465846FDF78EFE6421B0FB28
:1025A000F1F000EBC00101EB0010A7EB800032213D
:1025B00001EB00106421B0FBF1F000F00F0050447B
:1025C00021688860BDE8F88F0010014000140140C8
:1025D00000180140001C01400FB470B504460A9871
:1025E000012817D1A06B20F48030A063E0681A495D
:1025F0000840E060E06820F44010E0601198012895
:1026000003D1E06840F48010E060204600F026F836
:10261000054612E0E06840F04000E060204600F02F
:102620001DF805460E9820B9A06B40F48030A063D9
:1026300003E0A06B20F48030A0630898012807D144
:10264000A06840F00600A060A06840F02000A060F4
:10265000284670BC5DF814FBBFFFBDFF0146002299
:1026600000BF501C02460F4B984201D9032070470F
:10267000086900F000400028F3D00022086940F00B
:102680000100086100BF501C0246064B984201D968
:102690000320ECE7086900F001000028F3D100BF37
:1026A000E5E70000400D030070B50446254640F6FE
:1026B0000400405940F0020140F60400415103205B
:1026C000FDF70CFF002070BD0FB4F0B506460027E3
:1026D0003546002405E0002106F5827040F82410FC
:1026E000641C0F2CF7D31098A0B940F60400405991
:1026F00040F0020140F604004151B06B20F400109C
:10270000B063306840F040003060306840F08000D6
:10271000306003E0B06B40F40010B0630020C5F8F7
:10272000000ED5F80008C5F800080B9801280BD159
:10273000089820B90021304600F003F908E0012193
:10274000304600F0FEF803E00321304600F0F9F8CF
:102750001021304600F0C2F800B10127304600F0E9
:10276000A7F800B1012700214FF401604151001D7D
:10277000415140F61C00415100242EE005F5106047
:1027800000EB4410006800F00040B0F1004F10D1A1
:102790003CB94FF0006105F5106000EB441001609A
:1027A0000DE04FF0904105F5106000EB4410016022
:1027B00005E0002105F5106000EB441001600021E8
:1027C00005F5106000EB441001614FF67F3105F50F
:1027D000106000EB44108160641C0698A042CDD8C4
:1027E00000242EE005F5306000EB4410006800F096
:1027F0000040B0F1004F10D13CB94FF0006105F539
:10280000306000EB441001600DE04FF0904105F5A1
:10281000306000EB4410016005E0002105F53060F8
:1028200000EB44100160002105F5306000EB44101E
:1028300001614FF67F3105F5306000EB4410816097
:10284000641C0698A042CDD84FF40160405920F492
:1028500080714FF4016041510020B0616FF0804001
:102860007061099818B9B06940F01000B061B069A2
:1028700009490843B0610C9818B1B06940F00800EC
:10288000B0611098012803D1B06904490843B061D0
:102890003846F0BC5DF814FB00383C800400004072
:1028A0000146886820F00100886000207047000021
:1028B000014600221020086100BF501C0246064B52
:1028C000984201D903207047086900F010001028D1
:1028D000F3D00020F7E70000400D030010B50246DA
:1028E0000023202040EA8110106100BF581C0346DD
:1028F000054CA04201D9032010BD106900F0200052
:102900002028F3D00020F7E7400D030070B50446FF
:102910000D46E06820F0C040E060012D04D1E06881
:1029200040F00050E06007E025B9E06840F08040EA
:10293000E06001E0012070BD3220FDF7CFFD0020F6
:10294000F9E702461346D3F800080843C3F8000825
:102950000020704700BFFEE700B587B0142102A831
:10296000FDF753FD00BF002001905D48006840F076
:1029700004005B4908600846006800F0040001900C
:1029800000BF00BF002001900846006840F08000B2
:1029900008600846006800F08000019000BF00BF9A
:1029A000002001900846006840F0010008600846D9
:1029B000006800F00100019000BF00BF00200190FE
:1029C0000846006840F0020008600846006800F011
:1029D0000200019000BF00BF00200190084600687F
:1029E00040F0080008600846006800F00800019008
:1029F00000BF00BF002001900846006840F0400082
:102A000008600846006800F04000019000BF002206
:102A100002213448FDF776FE002244F2810132485B
:102A2000FDF770FE002240213048FDF76BFE4FF4A9
:102A3000005002902E4803900020049002A92D48D7
:102A4000FDF760FD012002900390049000200590A6
:102A500002A92948FDF756FD0220029001200390AB
:102A600000200490059002A91E48FDF74BFD0220AE
:102A700002900120039000200490059002A91948BB
:102A8000FDF740FD082002900120039000200490F3
:102A9000059002A91348FDF735FD44F2810002902C
:102AA0000120039000200490059002A90E48FDF734
:102AB00029FD402002900120039000200490059001
:102AC00002A90A48FDF71EFD802002900020039015
:102AD000049002A90548FDF715FD07B000BD0000F0
:102AE000303802400000024000040240001802405A
:102AF0000000111000080240000C024010B50B4805
:102B00000B4908600B484860002109488160C1609A
:102B10004FF480410161002141618161C161016225
:102B2000FDF7FCFD08B1FDF7D7FC10BD00540040D7
:102B300050000020A086010000B587B0002003905F
:102B40000490059006900190029014481449086082
:102B5000472048600021124881604FF6FE71C16035
:102B6000002101618161FEF7A5FF08B100F03CF88A
:102B70004FF48050039003A90948FEF7E4FF08B121
:102B800000F032F800200190029001A90448FEF7FD
:102B900037FF08B100F028F807B000BD000400407E
:102BA000EC0400207CB5044604F0F005F02000EAB7
:102BB000041645F00C008DF8040045F008008DF86F
:102BC000050046F00C008DF8060046F008008DF870
:102BD00007006420042301AA4E2100900148FDF75C
:102BE00085FE7CBD500000207047FEB50022F2EE4D
:102BF000040A60EE200AFDEEE00A10EE901A59B9C0
:102C0000302500F8015B2C2500F8015B302500F829
:102C1000015B0025057023E0002904DA2D2500F86A
:102C2000015B034649420FE00A2591FBF5F605FBDF
:102C3000161404F13005EFB21546561C32B20DF8E9
:102C400005700A2591FBF5F10029EDD106E0551E2E
:102C50001DF8055000F8015B551E2AB2012AF6DC6A
:102C60002E2500F8015B9DF8005000F8015B00255F
:102C700000F8015BFEBD00007CB5044604F0F005E1
:102C8000F02000EA041645F00D008DF8040045F030
:102C900009008DF8050046F00D008DF8060046F09D
:102CA00009008DF807006420042301AA4E2100903A
:102CB0000148FDF71BFE7CBD5000002010B5044606
:102CC00003E014F8010BFFF7D7FF20780028F8D1B4
:102CD00010BD000000B5A9B034211CA8FDF795FB7C
:102CE000142117A8FDF791FB582101A8FDF78DFBD2
:102CF00000BF002000902948006840F0805027491C
:102D000008600846006800F08050009000BF00BFD7
:102D1000002000902248006840F4404020490860AC
:102D20000846006800F44040009000BF01201C905D
:102D30004FF4A0201D900220229041051CA8C161E3
:102D40000421016248214162022181620321C162A2
:102D500002210163FEF716FC08B1FDF7BDFB0F2051
:102D6000179002201890002019904FF480501A906C
:102D700000201B90022117A8FEF7C4FA08B1FDF746
:102D8000ABFB2020019000200D9001A8FEF794F8E5
:102D900008B1FDF7A1FB29B000BD0000403802409A
:102DA0000070004010B50B480B4908604FF4E1304B
:102DB0004860002108488160C16001610C214161C7
:102DC00000218161C161FEF742FF08B1FDF784FB7C
:102DD00010BD000000480040A400002010B54FF0D6
:102DE000A0400D4908600620486002210A48C160E1
:102DF00000210161022181610121C1610021016283
:102E0000416201218162C16200210163FDF744FF3B
:102E100008B1FDF761FB10BDE40000200021054A68
:102E20001268516200BF03490968496A8142FAD3B6
:102E300070470000EC04002010B53220FDF74EFB77
:102E40003020FFF7AFFE0520FDF748FB3020FFF7ED
:102E5000A9FE0120FDF742FB3020FFF7A3FE0A2068
:102E6000FDF73CFB2020FFF79DFE0A20FDF736FB17
:102E70002820FFF797FE0120FDF730FB0820FFF721
:102E800091FE0120FDF72AFB0120FFF78BFE0120B8
:102E9000FDF724FB0120FDF721FB0620FFF782FE52
:102EA0000120FDF71BFB0C20FFF77CFE10BD00008E
:102EB00010B50248FEF732FE10BD0000EC04002001
:102EC00010B50020FFF76EFE002403E02020FFF77E
:102ED000D3FE641C642CF9DB10BD70B504460D46AE
:102EE000164632462946204600F054F870BD0000D0
:102EF00010B50446034A2021204600F01FF904467D
:102F0000204610BD0000024030B585B005460C4695
:102F100014216846FDF779FA009400200190029090
:102F200069462846FDF7EEFA05B030BD30B585B0EC
:102F300005460C4614216846FDF767FA0094012007
:102F400001900020039069462846FDF7DBFA05B0A2
:102F500030BD70B5044600252820FFF75FFF2189AA
:102F60006068FDF7C7FB58B95020FFF757FF21896C
:102F70006068FDF7BFFB012801D1012500E0FF25B6
:102F800000BF21896068FDF7B5FB0028F9D128460C
:102F900070BD00002DE9FC4704460D4616464FF073
:102FA000FF080020009001908146206801682046BB
:102FB000884720684168204688478046B8F1010F5D
:102FC00002D00020BDE8FC87002707E02068816868
:102FD000204688470DF80700781CC7B2052FF5DB9F
:102FE00033462A466946204600F05AF88146B9F130
:102FF000000F09D19FED050A85ED000A9FED030A38
:1030000086ED000A0020DDE70120DBE70000C8C2F2
:1030100070B50446002523E000BF21896068FDF7F4
:1030200069FB0028F9D02820FFF7F8FE21896068A5
:10303000FDF760FB28B9C5F10701012088408643F0
:1030400005E0C5F10701012088403043C6B200BF4A
:1030500021896068FDF74EFB0028F9D1681CC5B2D4
:10306000082DD9DB304670BD10B504462189606853
:10307000FFF75CFF218900226068FDF743FB4FF4F6
:10308000FA70FFF7CBFE218901226068FDF73AFB59
:103090001E20FFF7C3FE21896068FFF735FF10BDD2
:1030A0002DE9F05F2DED048B83460C4615461E4638
:1030B0004FF00008C246C14600276078217840EAF8
:1030C0000128E078A17840EA012A94F804900020D1
:1030D00004E0215C3944CFB2411CC8B20428F8DBBB
:1030E000B94504D00020BDEC048BBDE8F09F5046EC
:1030F00000F026FA41EC190B9FED0E0B53EC102B50
:1031000000F0C6F841EC180B00F090F8286040463B
:1031100000F016FA41EC190B9FED060B53EC102B47
:1031200000F0B6F841EC180B00F080F83060012098
:10313000D9E700000000000000002440024B034BD0
:103140000360018142607047603600084436000821
:1031500002480068C0F30220704700000CED00E058
:1031600010B5002804DB0A07130E054A135406E0C5
:103170000A07140E034A00F00F031B1FD45410BD9E
:1031800000E400E018ED00E090B0FDF7B7FCFFF7B9
:10319000A1FDFFF7E1FBFFF7B1FCFFF703FEFFF72F
:1031A0001DFEFFF7C9FCFFF783FE54208DF82C00AD
:1031B00045208DF82D004D208DF82E0050208DF8E3
:1031C0002F0052208DF8180048208DF81900FFF7C5
:1031D00033FEFFF775FE8020FFF7E4FC03A8FFF73E
:1031E00087FE21E001AA02A903A8FFF776FE9DED64
:1031F000020A0CA8FFF7F9FC9DED010A0DF11A0077
:10320000FFF7F3FCFFF75CFE8020FFF7CBFC0BA879
:10321000FFF754FDC020FFF7C5FC06A8FFF74EFDE1
:1032200042F21070FDF75AF9DCE7000021F000428D
:10323000A2F16052B2F5801F01F0004328BFD2F125
:103240007F6C0BD95FEA001C43EAC20242EB50706C
:1032500018BF704728BF20F001007047B2F5801FEB
:10326000BCBF184670474FEA410C1CF5001F02D244
:10327000084600F0D1B970B500F075F9000000897A
:10328000FFF7F6BF4FF00040A0F580007047000048
:103290002DE9C04130B4DFF8A0C23CEA111418BFD8
:1032A0003CEA131400F0EC8081EA03051CEA1114D7
:1032B00044EAD57418BF1CEA131500F0C780A4EBCC
:1032C00005044FF0004545EAC12145EAC32341EA20
:1032D000505143EA525304F17F74994204F500348B
:1032E0004FEAC0204FEAC22208BF904200F09C8003
:1032F0004FEA13650FF24016765D4FEA134506FB61
:1033000005F7C7F1807706FB07F74FEAD737A7FB2A
:1033100003687642C8F58038A7FB06CE38BFA8F10F
:10332000010807FB08E64FF0000EA6FB028CE6FB47
:1033300003CEDCF1000CCEF1004E38BFAEF1010E31
:10334000A6FB0C584FF000074FF00005E6FB0E8778
:10335000A1FB08C6A0FB07CE16EB0E0645F1000543
:10336000E1FB076515F1E04E7EBFA4F580345FEA0E
:1033700046066D4116F1800745F100054FEA172713
:103380004FEA066647EA0567A6F1DE46B6F1805FBA
:103390004FEA15251FD9384624F0010C05EBC471FE
:1033A000BCF1FE6F01EB0C1102D8F0BCBDE800814E
:1033B00024425CBF01F5801E9EEAC47F02D4F0BCAB
:1033C000BDE80081244238D4F0BCA1F1C041BDE881
:1033D000004100F016B94FEAD22242EA43524FEAC6
:1033E000D323A7FB02864FEAD02040EA415007FBD7
:1033F00003661EEA0E0F4FEAD12105FB026658BF95
:10340000A6EB0056B6EB00564FEA520E4EEAC37ECC
:1034100018EB0E0E56EB530EBDD518EB02085E41AD
:103420007F1C55F10005B6E74FF480154FF00007FB
:103430004FF000064FF00008ADE7F0BC4FF0000081
:1034400001F1C04101F00041BDE8008111EA0C1F0B
:103450000CEA131500D00CE013EA0C1F00F02580D5
:103460004FF00000F0BC81EA030101F00041BDE82B
:103470000081F0BCBDE8004181EA030100F0C1B861
:10348000F0BCBDE8004170B500F06DF8097EFC3E6F
:1034900000F007B881EA03014FF0000001F000419D
:1034A000704781EA030100F0ACB8F0BCBDE8004110
:1034B0004FF0000021497047FFFDFBF9F7F5F4F2EA
:1034C000F0EEEDEBE9E8E6E4E3E1E0DEDDDBDAD8BF
:1034D000D7D5D4D3D1D0CFCDCCCBCAC8C7C6C5C41D
:1034E000C2C1C0BFBEBDBCBBBAB9B8B7B6B5B4B334
:1034F000B2B1B0AFAEADACABAAA9A8A8A7A6A5A41F
:10350000A3A3A2A1A09F9F9E9D9C9C9B9A999998E2
:103510009797969595949393929191908F8F8E8E85
:103520008D8C8C8B8B8A8989888887878685858412
:1035300084838382828181800000FF070000F87FFE
:10354000B0FA80F310FA03F10AD0C3F11D0303F5BA
:1035500080634FEA41504FEA035202EBD12170479A
:103560004FF0000070470EF1020E2EF0030E5EF8D1
:10357000046B364205D4012A43EB030515F5001F01
:1035800012D8012841EB010C1CF5001F0CD80ED1FC
:103590004FEAD17C15F5001F0CEB4C0C0CF1020C22
:1035A00008BF4CEBD37C04E04FF0080C01E04FEA7D
:1035B000D37C0CEB4C0526FA05F606F00706B6F1AF
:1035C000040C06D20EEB860CBDE870404CF0010CEA
:1035D0006047DFE80CF0090B02024FF000414FF0AA
:1035E0000000A1F5002170BD19461046012851EBDD
:1035F000010418BFD4F5001484BF002001F000417D
:1036000070BD0808A0F500114FEA310170474FF076
:103610004070E1EE100A7047FF2141EAD050C0052A
:1036200070470000000000000000010203040607CC
:10363000080900000000010203040000000000006F
:103640000000000069300008532F00081130000806
:10365000000000000000000000000000000000006A
:10366000000000000000000000000000000000005A
:103670000000000094360008000000201000000048
:1036800014020008A436000810000020800B00007F
:1036900030020008000000001000000001000000DF
:0436A0000024F4000E
:04000005080001D915
:00000001FF
