:020000040800F2
:10000000A04C0020ED010008B72600082D240008B0
:10001000B52600081D030008534B0008000000002F
:10002000000000000000000000000000272700087A
:100030007103000800000000C526000829270008F9
:10004000070200080702000807020008070200086C
:10005000070200080702000807020008070200085C
:10006000070200080702000807020008070200084C
:10007000070200080702000807020008070200083C
:10008000070200080702000807020008070200082C
:10009000070200080702000807020008070200081C
:1000A000070200080702000807020008070200080C
:1000B00007020008070200080702000807020008FC
:1000C00007020008070200080702000807020008EC
:1000D000070200080702000807020008E92B0008D1
:1000E00007020008C92600080702000807020008E6
:1000F00007020008070200080702000807020008BC
:1001000007020008070200080702000807020008AB
:10011000070200080702000807020008070200089B
:10012000070200080702000807020008070200088B
:10013000070200080702000807020008070200087B
:10014000070200080702000807020008B926000895
:10015000070200080702000807020008070200085B
:10016000070200080702000807020008070200084B
:10017000070200080702000800000000000000005D
:10018000070200080702000807020008070200082B
:10019000070200080702000800000000070200082C
:1001A000070200080702000800000000000000002D
:1001B000070200080000000000000000070200081D
:1001C00007020008070200080702000807020008EB
:1001D0000702000807020008DFF80CD000F08CF8D6
:1001E00000480047715B0008A04C0020064880478B
:1001F00006480047FEE7FEE7FEE7FEE7FEE7FEE70C
:10020000FEE7FEE7FEE7FEE7CD270008D90100087C
:100210002DE9F05F0546002092469B46884606463B
:10022000814640241BE0284641464746224600F0CE
:1002300053F853465A46C01A914110D311461846F6
:10024000224600F03AF82D1A67EB01084F46224685
:100250000120002100F031F817EB00094E41201E6B
:10026000A4F10104DFDC484631462A464346BDE896
:10027000F09F40EA01039B0703D009E008C9121F61
:1002800008C0042AFAD203E011F8013B00F8013B50
:10029000521EF9D27047D2B201E000F8012B491E7C
:1002A000FBD270470022F6E710B513460A46044613
:1002B0001946FFF7F0FF204610BD202A04DB203A44
:1002C00000FA02F1002070479140C2F1200320FAA9
:1002D00003F3194390407047202A04DB203A21FAA7
:1002E00002F00021704721FA02F3D040C2F120024F
:1002F0009140084319467047064C074D06E0E068F8
:1003000040F0010394E8070098471034AC42F6D35C
:10031000FFF766FF3861000858610008FEE700003B
:1003200010B500224FEA020100EB8203521CC3F811
:1003300084130F2AF8D300224FF400738418521C40
:1003400084F81C119A42F9D3017041700122827025
:10035000C0F8C413027640238371417680F81C13E1
:1003600080F81D2380F81F1380F81E13002010BD95
:1003700070477047002200F001B8000030B50E4B06
:10038000054601205C7A002C14D1587A1C54587A06
:1003900003EB800045605D7A03F108002A54587A27
:1003A000421C5A72303008703A2048702F208870F2
:1003B000CC70002030BD0000940C002090F8351067
:1003C000022903D08021416501207047052180F872
:1003D00035100068016821F00101016000207047BC
:1003E00070B5044600F0E8F80546601C02D00448E9
:1003F0000078044400F0E0F8401BA042FAD370BD3E
:100400002C0000202DE9F84F00224FF001080325B1
:100410004FF00F0E0B6808FA02F42340A3426ED18E
:100420004E68012E05D0022E03D0112E01D0122EBF
:1004300012D186684FEA420C05FA0CF7BE43CF682A
:1004400007FA0CF7374387604668A6430C79C4F374
:100450000014944034434460C668570005FA07FC12
:100460008C6826EA0C06BC403443C4604C68022CFD
:1004700001D0122C13D1D40800EB8404A346D4F885
:10048000209054074FEAD46A0EFA0AF629EA0609C0
:100490000E6906FA0AF646EA0906CBF820600668F5
:1004A0000C7926EA0C0604F00304BC4034430460D3
:1004B0004C68E40060D5334C266846F480462660DC
:1004C000246822F0030604F4804400942E4C344443
:1004D000A446D4F808489607370F0EFA07F6B44337
:1004E0002A4EB04201D100261FE0294EB04201D170
:1004F00001261AE0274EB04202D1022615E03BE069
:10050000254EB04201D103260FE0244EB04201D166
:1005100004260AE0224EB04201D1052605E0214E14
:10052000B04201D1062600E00726BE402643CCF8A3
:1005300008681D4E34684F689C43FF0300D51C4378
:100540003460194E361D34684F689C43BF0300D594
:100550001C433460144E083634684F689C43FF02D5
:1005600000D51C433460104E0C3634684F689C43F1
:10057000BF0200D51C433460521C102AFFF44AAF5E
:10058000BDE8F88F443802400030014000000240CE
:100590000004024000080240000C0240001002402B
:1005A0000014024000180240003C01400AB1816181
:1005B00070470904FBE700000148806870470000AD
:1005C0002C000020D0F8C00202F03DBED0F8C002DE
:1005D00002F043BE006804F011B8006804F012B8DD
:1005E00001EB810100EBC10090F85C00704701EB6A
:1005F000810100EBC100C06C704710B5044690F853
:10060000B802012809D0012084F8B802206804F05B
:1006100004F8002084F8B80210BD022010BD2DE9B6
:10062000FE430546DDE90B7095F8B842DDF828C0B9
:10063000012C1CD001EB81044FF0010905EBC4042F
:1006400085F8B892002684F83D6084F83830A4F824
:10065000400084F8391084F83F7002F07F0884F875
:100660003A805FEA026805D584F83B9004E00220F6
:10067000BDE8FE8384F83B6084F83CC0CDF800C040
:10068000CDE90170286804F029F885F8B862EFE731
:1006900070472DE9F0030E46DDE906C9DDE908746F
:1006A00001EB860100EBC101022581F83B2081F8B6
:1006B0003F30BCF1000F0AD081F8425000246BB1EA
:1006C000012B2DD0022B12D0032B16D10FE04FF0AF
:1006D000030881F8428081F83D40EFE7BCF1010F4B
:1006E0000BD152B9CFB9012281F8512003E0A2B158
:1006F00091F85020A2B181F84250C1E9119781F8D8
:100700005C40CC6481F8396081F85D40027C00680F
:10071000BDE8F003383104F05DB891F85120E9E705
:1007200081F84240E9E700002DE9F0410446006805
:10073000064603F06EFF01287ED1206804F075F9AB
:10074000002879D0206804F070F9800203D5216870
:100750004FF400104861206804F067F9C00203D527
:1007600021684FF480104861206804F05EF9400170
:1007700003D521684FF080604861206804F055F986
:10078000800702D5216802204861206804F04DF9F5
:1007900080000ED521684FF000504861D6F8400423
:1007A000C00706D12046FFF711FF0121206804F0A1
:1007B00021F9206804F039F9C00102D5204601F082
:1007C000B3FD206804F031F9000705D5204600F09C
:1007D000D2F8216808204861206804F026F98001D9
:1007E00023D5206803F0F2FF074600254FF00108EB
:1007F00014E000BF05F00F0108FA01F038420CD0F8
:1008000006EB4510D0F80005E9B20004204602D5F9
:1008100001F02CFB01E001F065FC6D1CA068A84212
:10082000E8D821684FF000704861206804F0FDF8B6
:10083000C043C0060ED400E00CE02068816921F0BE
:1008400010018161204601F0B9FD2068816941F005
:1008500010018161BDE8F08170B58AB0040005D057
:1008600094F8B9022568002618B107E001200AB003
:1008700070BD84F8B862204600F028F8032084F8A0
:10088000B902E86BC00500D42661206803F060FE61
:1008900004F1100128220D466846FFF7EAFC94E8AF
:1008A0000F0003F0FFFD0121206804F0E9F8282281
:1008B00029466846FFF7DDFC94E80F0004F032F8A3
:1008C000012084F8B9020020D1E7000030B587B0DC
:1008D000044614216846FFF7E5FC2068B0F1A04FFC
:1008E00038D11D480024016841F001010160006811
:1008F0001A4D00F0010005904FF4E85000900220DE
:10090000CDE90104032003900A200490694628469B
:10091000FFF778FD6815CDE9000469462846029482
:10092000FFF770FD0C48001D016841F08001016077
:1009300009481430016841F48041016000680022D8
:1009400000F4804005901146432000F0A3F94320B5
:1009500000F092F907B030BD30380240000002408C
:10096000D0F8C00202F010BDD0F8C00202F010BDF5
:10097000006804F06CB8D0F8C00202F0BFBC10B53B
:10098000044690F8B80201280DD0012084F8B8027E
:10099000206803F00BFE0121206803F0F1FD002028
:1009A00084F8B80210BD022010BD10B5044690F8BE
:1009B000B802012809D0012084F8B802206804F0A8
:1009C00077F8002084F8B80210BD022010BD0000A6
:1009D00070B5040025D094F83D00002520B984F8B6
:1009E0003C50204600F0B8F8242084F83D002068F0
:1009F000016821F0010101602068016841F40041B3
:100A000001602068016821F40041016000F0AAFB48
:100A10004D4A6168914201D84C4900E04C498842F6
:100A200001D2012070BD4B492368B0FBF1F15E6833
:100A300026F03F060E435E606368934206D94FF48A
:100A4000967359434FF47A73B1FBF3F12368491C51
:100A50001E6A26F03F06314319626168914210D840
:100A60004900401EB0FBF1F2521CC2F30B02042AF3
:100A700001D2042022E0B0FBF1F0401CC0F30B00D7
:100A80001CE0A268F2B301EBC10303EB0116431EA5
:100A9000B3FBF6F35B1C43F480431B0549D092B3D0
:100AA00001EBC10202EB0111401EB0FBF1F0401C52
:100AB000C0F30B0040F4804040F400402168CA6954
:100AC0004CF6FF739A431043C861D4E90710014301
:100AD0002068026822F0C00211430160D4E90301DA
:100AE00001432068826848F2FF339A4311438160D2
:100AF000D4E9050108432168CA6822F0FF021043C7
:100B0000C86001E00EE016E02068016841F00101D4
:100B100001602564202084F83D00256384F83E5060
:100B2000002070BD01EB4106431EB3FBF6F35B1CD6
:100B3000B3E70120C2E701EB4101401EB0FBF1F039
:100B4000401CC0F30B00B7E7A086010080841E00A4
:100B500000093D0040420F0010B586B00446142144
:100B60006846FFF79FFB14492068884221D113484B
:100B7000016841F0020101600068694600F002006E
:100B800005904FF410700090122001900120029007
:100B900003200390042004900948FFF733FC074822
:100BA0001030016841F400110160006800F4001089
:100BB000059006B010BD00000054004030380240DF
:100BC0000004024002488168027811448160704745
:100BD0002C0000200B4810B5016841F40071016041
:100BE000016841F480610160016841F48071016035
:100BF000032000F06FF8002000F006F800F024F861
:100C0000002010BD003C024070B50D4D04464FF46D
:100C10007A712878B1FBF0F00A490968B1FBF0F06D
:100C200000F0D1FE48B9102C07D200222146501EF8
:100C300000F030F800206C6070BD012070BD000035
:100C40002C000020380000200A4808B5016841F453
:100C500080410160006800F4804000900548001F5A
:100C6000016841F080510160006800F08050009000
:100C700008BD000044380240002809DB00F01F02D4
:100C8000012191404009800000F1E020C0F80011EE
:100C900070470000F0B40E4B1B680C46C3F30223F0
:100CA000C3F10705042D00D90425191D072901D218
:100CB000002300E0DB1E012606FA05F1491E214053
:100CC00099409E40761E16403143F0BC03F042BF6F
:100CD0000CED00E0064900F0070208684FF6FF033C
:100CE000184040EA0220034A1043086070470000A1
:100CF0000CED00E00000FA052DE9F84F04460078FD
:100D00000027C34DC00708D02868E16920F0C06003
:100D100008432860E06900B901272078800708D5DA
:100D20002868216A20F0C05008432860206A00B972
:100D30000127208881046FF0FF0015D52968A26C77
:100D400021F4401111432960A16C19B1B1F5001FC4
:100D500002D009E0012707E02968626921F4F8510F
:100D600000EB0222114329602188490415D5296826
:100D7000E26C21F4400111432960E16C19B1B1F535
:100D8000000F02D009E0012707E02968626921F419
:100D9000F85100EB02200143296020784FF0000950
:100DA000000755D59A484C38016841F080510160E0
:100DB0000068DFF8608200F080500090D8F80010E2
:100DC00041F48071C8F80010FFF7F6FB064604E016
:100DD000FFF7F2FB801B02286FD8D8F80000C0058F
:100DE000F6D58B4E1C3E306810F440701FD0A18C9D
:100DF00001F4407181421AD03068012220F4407120
:100E000085480260C0F8009031603068C0070ED09D
:100E1000FFF7D2FB804641F2883A05E0FFF7CCFBB2
:100E2000A0EB0801514548D830688007F6D5616AC3
:100E30007748C1F301228438032A36D0016821F4AF
:100E4000F81101603068A18CC1F30B0108433060D8
:100E50002078DFF8C8A1400703D594F85410CAF8E9
:100E6000E01120786E4EC00605D53068E16A20F4A6
:100E700040000843306020784FF00068800609D5B4
:100E80003068216B20F0006008433060206B4045E3
:100E900000D101272078400605D53068A16A20F0EE
:100EA00080500843306067B908E002685D4B22F467
:100EB000F81219400A430260C4E773E020688028F2
:100EC00077D1DFF864B1CBF86890FFF775FB504F2E
:100ED00081468C3F06E000BFFFF76EFBA0EB0900E8
:100EE00002285FD838680001F6D4216DCAF8D810FE
:100EF00020684E49C20701D0E2697AB1820701D564
:100F0000226A5AB1820602D5226B424506D04006BB
:100F10000FD5A06A68B9206B40450AD1D4E9010217
:100F200040EA8210227B237C120642EA03721043BD
:100F300008602068820401D5A26C1AB1400415D55E
:100F4000E06C98B90868D4E9012342EA8312C0F33F
:100F50000360237C000640EA037002430A602868AD
:100F6000A26920F01F00521E10432860207800065E
:100F70000AD5D4E9010240EA8210227B237C1206C2
:100F800042EA0372104308600120CBF86800FFF7C3
:100F900013FB80460AE000BFFFF70EFBA0EB080042
:100FA000022803D90320BDE8F88F02E03868000169
:100FB000F2D52088C00505D52868616B20F0004077
:100FC000084328602088800505D52868A16B20F497
:100FD0000040084328602088400505D52868E16B5B
:100FE00020F00040084328602088000505D52868C7
:100FF000216C20F48040084328602088C00405D577
:101000003068616C20F04040084330600020CAE73F
:101010008C38024000700040400E474200104742AA
:1010200094380240FFFCFF0F000047428438024022
:101030002DE9F0470E46050065D0DFF81481D8F899
:101040000000F7B200F00F00B04207D288F800703D
:10105000D8F8000000F00F00B04254D128683D4C91
:10106000810712D5400703D5206840F4E050206086
:101070002878000703D5206840F46040206020688D
:10108000A96820F0F000084320602878C0072DD020
:10109000304968680839012812D0022813D0032883
:1010A00011D00968890700292DDA216821F0030190
:1010B00001432160FFF780FA814641F2883A0EE051
:1010C00009688903EFE709688901ECE7FFF774FA1B
:1010D000A0EB0901514502D90320BDE8F087206843
:1010E000696800F00C00B0EB810FEFD1D8F8001068
:1010F000404601F00F01B14207D90770006800F0C7
:101100000F00B04201D00120E7E72878400705D55D
:101110002068E96820F4E050084320602878000740
:1011200006D52068296920F4604040EAC1002060AB
:1011300000F038F82168084AC1F30311515CC84037
:101140000649086006480068FFF75EFD0020C4E716
:10115000003C02400838024080600008380000204F
:10116000300000200448054900680968044AC1F3BA
:101170008221515CC8407047380000200838024086
:10118000906000080448054900680968044AC1F3F2
:101190004231515CC8407047380000200838024096
:1011A00090600008154810B5006810F00C02144853
:1011B00013D04110042A0FD0082A0ED10F4C241F3F
:1011C0002268236802F03F025B0207D52068C0F363
:1011D0008810A0FB010106E0084610BD2168C1F39C
:1011E0008811A1FB00010023FFF712F82168C1F369
:1011F0000141491C4900B0FBF1F010BD0838024024
:101200000024F4002DE9F84F05460078DFF800B31C
:10121000C04CC0074AD0DBF800105846C1F381012A
:10122000012908D00068C0F3810002280AD1201DDE
:101230000068400206D52068800337D5686800281A
:1012400072D033E06868B0F5803F10D0B0F5A02FC1
:10125000206810D020F480302060206820F48020A6
:1012600020606868A8B1FFF7A7F906460DE020687E
:1012700040F48030F4E740F480202060F7E700BFBE
:10128000FFF79AF9801B64286FD820688003F7D590
:101290000CE0FFF791F9064605E000BFFFF78CF977
:1012A000801B6428F0D820688003F7D42878DFF802
:1012B000688280074FF0000940D5DBF800105846DF
:1012C00011F00C0F09D00068C0F3810002280BD187
:1012D0008F48001F0068400206D42068800715D59B
:1012E000E868012820D111E0E868B8B10120C8F809
:1012F0000000FFF761F9064605E000BFFFF75CF963
:10130000801B0228C0D820688007F7D5206829698B
:1013100020F0F80040EAC10020600FE0C8F800901B
:10132000FFF74AF9064606E0EFE000BFFFF744F991
:10133000801B022819D820688007F7D42878000776
:1013400022D5734E754869696C3679B10121016007
:10135000FFF732F9074604E0FFF72EF9C01B022819
:1013600003D830688007F7D50EE089E0C0F8009018
:10137000FFF722F9074604E0FFF71EF9C01B022819
:101380007ED830688007F7D42878400768D5DFF822
:1013900080A100270AF1380ADAF80000C0000BD457
:1013A000DAF8001041F08051CAF80010DAF80000B5
:1013B000012700F080500090594E3068C00510D4CD
:1013C000306840F480703060FFF7F6F8009005E078
:1013D000FFF7F2F80099401A022851D83068C0058A
:1013E000F6D54B4EA868683601280FD0052830681E
:1013F00010D020F001003060306820F00400306030
:10140000A868B8B1FFF7D8F800900FE0306840F056
:101410000100F4E740F004003060F7E7FFF7CCF894
:101420000099411A41F28830814266D830688007BD
:10143000F4D50EE0FFF7C0F8009007E0FFF7BCF826
:101440000099411A41F28830814256D830688007AD
:10145000F4D42FB1DAF8001021F08051CAF800104E
:10146000A869D0B3DBF80010C1F3810102294CD088
:101470000228484607D0C8F86000FFF79DF800E052
:101480003BE005463CE04746C8F86000FFF794F8AB
:10149000064604E0FFF790F8801B02282DD820684C
:1014A0008001F7D4F5E907010843E9681D4A4908B6
:1014B00002EB0141AA6841EA82110843297C40EA13
:1014C0000160297D40EA01711148001F016001207F
:1014D0003866FFF771F8054605E014E0FFF76CF891
:1014E000401B022809D820688001F7D50BE000BF17
:1014F000FFF762F8401B022802D90320BDE8F88FED
:1015000020688001F4D40020F8E70120F6E700000D
:10151000083802400038024000004742800E47422F
:10152000007000400000FFFF7047704710B5044690
:1015300000688168C9040CD5C068C00509D520467B
:10154000FFF7F3FF2068C16801F0800161F4C0710A
:10155000C1602068816889040CD5C068800509D500
:101560002046FFF7E1FF2068C16801F0800161F4C7
:101570002071C16003494FF400300860012060779A
:1015800010BD0000143C014070B5040002D0607F23
:1015900010B106E0012070BD00202077204600F049
:1015A00049F8022060772168CA20486221685320E8
:1015B0004862204601F09AF8FF25042618BB2068EF
:1015C00081681B4A11408160216888686268104305
:1015D000D4E904231A43104388602168E068086155
:1015E00020680169228941EA024101612068C168DD
:1015F00021F08001C16020688068800607D4204601
:1016000000F0C6F918B1206845626677C2E7206825
:10161000016C21F4802101642068016CA2691143EE
:1016200001642068456201206077002070BD0000E1
:10163000BFFF8FFF10B50068084988420CD10849E8
:1016400001200860002211462920FFF723FBBDE896
:1016500010402920FFF710BB10BD000000280040FB
:101660003C0E4742F8B503465A480C464FF4FA413F
:101670000068B0FBF1F0491148430090187F012841
:1016800063D001261E770220587718680025002AAB
:1016900080684FEA40605AD0002800DBE570A078EF
:1016A0002278E77840EA02406278E169120242EA71
:1016B0000742104394F8202040EA02600843616921
:1016C000A269084361681F681143CA227A621F68D1
:1016D00053227A62626AFF27B2F5807F1A684FF060
:1016E000030C94684ED024F4007494601A68D46893
:1016F00004F0800464F42074D4601A68009CB4F18F
:10170000010ECDF800E05ED3D468A407F6D51062D0
:10171000186881641868816841F4007181601868F4
:10172000816841F4005181602B48016841F4003127
:10173000016029480830016841F4003101601868EF
:1017400047625E771D770020F8BD0220F8BD0028B3
:1017500000DBE570207800F0BDFF0204607800F047
:10176000B9FF42EA0022A07800F0B4FF0243E0781B
:1017700042EA004294F8200000F0ACFF42EA006028
:10178000E1699BE724F4807494601A68D46804F0DB
:10179000800464F4C074D4601A68009CB4F1010E33
:1017A000CDF800E00FD3D468E407F6D0D061186814
:1017B00041641868816841F48071816018688168AB
:1017C00041F48051AFE7576283F81DC01D770320B5
:1017D000F8BD000038000020003C01402DE9F04732
:1017E0000446007F0B4601281FD04FF0010984F802
:1017F0001C9002206077DAB19878D97840EA0145E8
:1018000058781978000240EA413005432168CA201F
:101810004862216853204862204600F067FF002696
:10182000FF274FF0040860BB1AE00220BDE8F087F4
:101830005878C10603D500F0EF000A305870D87808
:1018400000F048FF0204587800F044FF42EA00220A
:10185000987800F03FFF0243187842EA4035D5E718
:101860000F480540206845602068C16821F080016C
:10187000C1602068806880060AD4204600F088F89D
:1018800030B12068476284F81D8026770120CDE7BB
:101890002068476284F81D9026770020C6E7000084
:1018A0003FFFFF002DE9F0470446007F0D46012869
:1018B00027D04FF0010A84F81CA00220607720682E
:1018C000002680684FEA4060F2B1002800DBEE702D
:1018D000A878297840EA01476878E978000240EA68
:1018E000014007432168CA204862216853204862AA
:1018F000204600F0FBFE4FF0FF084FF00409A0BBAC
:1019000016E00220BDE8F087002800DBEE702878A2
:1019100000F0E0FE0204687800F0DCFE42EA0022FB
:10192000A87800F0D7FE0243E87842EA0047D9E7FA
:1019300016480740206807602068816821F48021EC
:101940008160D5E90301084321688A6810438860F3
:101950002068C16821F08001C1602068806880062D
:101960000BD4204600F014F838B12168C1F8248067
:1019700084F81D9026770120C4E72168C1F82480EF
:1019800084F81DA026770020BCE700007F7F7F0041
:1019900070B504460068C16821F0A001C160FEF77F
:1019A0000BFE05464FF47A7607E000BFFEF704FE13
:1019B000401BB04201D9032070BD2068C06880067A
:1019C000F4D5002070BD10B5401EB0F1807F01D36A
:1019D000012010BD4FF0E02460610F21601703F07B
:1019E000B9F80020A06107202061002010BD000090
:1019F00070B590F83C20012A32D0012480F83C4098
:101A0000022280F83D2003685A689D6822F0700623
:101A10000A6832435A60134B02689A4214D0B2F1FA
:101A2000804F11D0104B9A420ED0104B9A420BD0DF
:101A30000F4B9A4208D00F4B9A4205D00E4B9A4258
:101A400002D00E4B9A4204D1496825F08003194315
:101A5000916080F83D40002180F83C10084670BD40
:101A6000022070BD0000014000040040000800405A
:101A7000000C0040000401400040014000180040FC
:101A800010B5040003D094F83D0010B107E0012028
:101A900010BD002084F83C00204600F00DF8022024
:101AA00084F83D00211D206800F09EFE012084F88E
:101AB0003D00002010BD000008B5006806498842BE
:101AC00008D10648016841F002010160006800F099
:101AD0000200009008BD00000004004040380240B1
:101AE00070B5044690F83C00012817D0012584F811
:101AF0003C50022084F83D002068826822F0770282
:101B000022F47F4282600868502830D00DDC202803
:101B10004DD005DC98B310283BD148E0022070BDC1
:101B2000302844D0402834D139E0602828D07028AB
:101B300006D0B0F5805F2CD0B0F5005F29D10AE067
:101B4000CB68D1E90121206800F0B2FE20688168ED
:101B500041F0770109E0CB68D1E90121206800F06C
:101B6000A7FE2068816841F48041816011E0CA6865
:101B70004968206800F0AEFE5021206807E016E0BA
:101B8000CA684968206800F0B6FE6021206800F04D
:101B900099FE84F83D50002084F83C0070BDCA686E
:101BA0004968206800F096FE40212068EFE722682F
:101BB00001461046EBE7704770B5026804461068AE
:101BC000D168536910F00F0F52D003F0010501F4F2
:101BD00090762E435FD0C20705D0CA0503D5E26BCD
:101BE00042F00102E263420705D5DA0703D0E26B57
:101BF00042F00202E263820705D5DA0703D0E26B06
:101C000042F00402E263020707D501F020022A43F2
:101C100003D0E26B42F00802E263E26B002A33D0A9
:101C2000800604D5880602D5204600F08CFE206888
:101C30004069E16BC0F38010090700D428B3204647
:101C400000F073FE2068416949061AD5416921F008
:101C500040014161606BA0B11B490165606BFEF7FB
:101C6000ADFB002810D0606B016DBDE870400847E7
:101C7000830610D58B060ED52046BDE8704000F0D7
:101C800062BE2046FFF797FF70BD2046FFF793FF27
:101C90000020E06370BD030606D50B0604D5204680
:101CA000BDE8704000F03CBF4006F3D54806F1D5D2
:101CB000D168204621F04001D160202184F83910FC
:101CC00000F0D2F870BD00001B29000870B50400B8
:101CD00004D094F83900002510B106E0012070BD51
:101CE00084F83850204600F023F8242084F8390086
:101CF0002068C16821F40051C160204600F06EFEEA
:101D00002068016921F4904101612068416921F056
:101D10002A0141612068C16841F40051C160E56356
:101D2000202084F8390084F83A00002070BD0000BB
:101D300010B586B0044614216846FEF7B3FA184978
:101D40002068884229D117480021026842F4802285
:101D50000260006800F48020059012481038026884
:101D600042F008020260006800F0080005904FF49D
:101D7000407000900220CDE901010320039007206C
:101D8000049069460848FEF73DFB002211462720D3
:101D9000FEF780FF2720FEF76FFF06B010BD0000A2
:101DA0000048004040380240000C024070472DE9D6
:101DB000F843044690F839001F4616460D46202881
:101DC00050D1B5B1AEB194F8380001284AD0012005
:101DD00084F838004FF00008C4F83C80212084F8D3
:101DE0003900FEF7E9FBA6848146E68484F8388052
:101DF00026E00120BDE8F883E08C401EE084A06866
:101E00004B46B0F5805F4FF000024FF08001204656
:101E1000009703D000F0B5FEE8B90DE000F0B1FE88
:101E2000C8B928882168C0F308004860206908B153
:101E30006D1C05E0AD1C03E0216815F8010B48603E
:101E4000E08C0028D8D14B46002240212046009744
:101E500000F097FE08B10320CCE7202084F8390079
:101E60000020C7E70220C5E7704700002DE9F05FBA
:101E7000074600680E4600EB4114D4F808054FF001
:101E80000409420701EB86004FF0050B4FF01008E4
:101E900007EBC00508D5C4F80895D4F80C0540F048
:101EA0000200C4F80C0542E0D4F80805C0050DD5C1
:101EB0004FF48070C4F80805072085F85D00D4F859
:101EC0000C0540F00200C4F80C0517E0D4F8080532
:101ED000800601D5202028E0D4F808054FF0080A34
:101EE00000070FD5D4F80C0540F00200C4F80C052B
:101EF00085F85DB0C4F80885C4F808A5386802F014
:101F00008CFB14E0D4F80805400510D5D4F80C0576
:101F100040F00200C4F80C05386802F07EFBC4F8FB
:101F2000088585F85DA04FF48060C4F80805D4F8F2
:101F3000080580050ED5D4F80C0540F00200C4F861
:101F40000C05314604F5A164386802F066FB4FF4D5
:101F50000070A4E0D4F808054FF00001C0074FF06E
:101F6000010242D0386930B1A86CD4F81035C3F3FF
:101F70001203C01AE86485F85D20A965C4F8082535
:101F800095F83F0030B1022804D0032811D0012871
:101F900018D023E0D4F80C0540F00200C4F80C057A
:101FA000314604F5A164386802F037FBC4F80080BC
:101FB00014E0D4F8000540F00050C4F8000585F89E
:101FC0005C2007E085F85C2095F8500080F0010067
:101FD00085F8500031463846FEF75AFB15F8500F89
:101FE00080F001002870BDE8F09FD4F80805800754
:101FF0003ED5D4F80C0520F00200C4F80C0595F885
:102000005D00022301280AD005280BD006280CD039
:1020100008280AD003281AD007281BD01FE085F80B
:102020005C201CE085F85CB019E0A86D401CA86538
:1020300003280CD9A96585F85C9000BFD4F8000589
:1020400020F0804040F00040C4F8000507E085F82B
:102050005C30F3E7A86D401CA86585F85C90C4F877
:10206000083595F85C2031463846FEF711FBBAE793
:10207000D4F80805000614D5D4F80C0540F0020089
:10208000C4F80C05A86D3146401CA865062085F8EB
:102090005D0004F5A164386802F0BFFA802020607A
:1020A000A1E7D4F80805C0069DD595F83F000328A0
:1020B00003D020B1022802D011E0A96505E0A9658E
:1020C000386960B9032085F85D00D4F80C0540F04C
:1020D0000200C4F80C053146386802F09EFAC4F8D4
:1020E000088580E72DE9F047026802EB4114D4F837
:1020F00008254FF00403520709D5C4F80835D4F871
:102100000C0540F00200C4F80C05BDE8F087D4F8D7
:10211000082501EB810596064FF0000200EBC5058E
:102120004FF0020C15D52023C4F8083595F83D3042
:10213000012BEAD185F83D2085F85CC0D4F80C2548
:1021400042F00202C4F80C250068BDE8F04702F036
:1021500064BAD4F8086577064FF0010611D585F802
:102160005D3085F83D60AA65D4F80C2542F0020286
:10217000C4F80C25006804F5A16402F04EFA402072
:1021800010E0D4F80875BF050ED5D4F80C2542F040
:102190000202C4F80C25006804F5A16402F03DFABF
:1021A0004FF400702060B0E7D4F80875FF070FD037
:1021B000AA65D4F80C2542F00202C4F80C25006888
:1021C00004F5A16402F029FA266085F85D609CE7B9
:1021D000D4F808754FF005095FEA07784FF0080753
:1021E0000DD5C4F80875D4F80C2542F00202C4F8E5
:1021F0000C25006802F011FA85F85D9085E7D4F8A7
:1022000008854FF0100A5FEAC86818D5AA6503224E
:1022100085F85D2095F83D2022B995F83C200AB953
:1022200085F83D60D4F80C2542F00202C4F80C2574
:10223000006804F5A16402F0F0F95046B2E7D4F862
:1022400008855FEA08680FD5D4F80C2542F0020231
:10225000C4F80C25006804F5A16402F0DEF906203C
:1022600085F85D0080209DE7D4F808855FEA48582E
:1022700012D5D4F80C2542F00202C4F80C250068EF
:1022800004F5A16402F0C9F9C4F800A04FF480601D
:10229000206085F85D7038E7D4F80875BF0796D5DB
:1022A000D4F80C7527F00207C4F80C7595F85D702A
:1022B000012F0AD0032F17D0042F15D0052F16D0C9
:1022C000062F17D0082F15D027E085F85C6095F809
:1022D0003F20022A01D0032A1FD195F8512082F015
:1022E000010285F8512018E085F85CC015E085F8FA
:1022F0005C9012E0AE6D761CAE65032E03D9AA6524
:1023000085F85C3001E085F85CC0D4F8002522F047
:10231000804242F00042C4F80025C4F808C595F890
:102320005C20FEF7B5F9F0E67CB504680546D4F804
:1023300040040190D4F8400420F02E000090019851
:10234000800709D50198C00702D02846FEF73AF960
:10235000009840F0020000900198000724D50098F2
:1023600040F008000090019840071AD5A86902289B
:1023700003D0E86801280CD00FE00198C0F3414079
:102380000228286803D0012102F034FB05E0022175
:10239000FAE74EF66020C4F804042846FEF7E4FA93
:1023A00002E02846FEF7DCFA01988006009802D584
:1023B00040F020000090C4F840047CBD2DE9F041BD
:1023C000024600680646016AC1F3434301F00F0765
:1023D000C1F30A14022B25D1002C23D007EB87016F
:1023E00002EBC105696C00291CD0224602F021FBDA
:1023F000686C20446864E86C2044E86406EB47108D
:10240000D0F81015084A11420CD0D0F8001521F070
:10241000804141F00041C0F8001515F8500F80F0E0
:1024200001002870BDE8F0810000F81FFEE7000001
:1024300010B504490448FDF79DFF0249491E087084
:1024400010BD0000010000206C6000082DE9F04381
:1024500087B014216846FDF725FF3C480024016839
:1024600041F004010160016801F004010591016877
:1024700041F080010160016801F08001059101686F
:1024800041F001010160016801F00101059101685D
:1024900041F002010160016801F00201059101684B
:1024A00041F008010160016801F00801059101682F
:1024B00041F0400101600068254F00F040000590A8
:1024C000002204213846FEF771F8DFF8888044F2D4
:1024D0008106002231464046FEF768F8DFF8789022
:1024E000002240214846FEF761F84FF4005000906A
:1024F0001A48CDE9010469461948FDF783FF042015
:1025000000900125CDE90154694638460394FDF752
:1025100079FF0096CDE90154694640460394FDF7E2
:1025200071FF40200090CDE901546946484603946C
:10253000FDF768FF8020CDE9000469464846029413
:10254000FDF760FF07B0BDE8F083000030380240BF
:102550000000024000040240001802400000111078
:102560000008024030B591B014210AA8FDF79AFE88
:102570000024282168460F94FDF794FE244823493F
:10258000C0E900147F218160FF21C0E90314446188
:102590008461FEF7F9FF02208DF8280015208DF8E0
:1025A000290020258DF82A500D9401220AA91848E7
:1025B0000E94FFF777F906208DF83C0007208DF880
:1025C0003D0004208DF83E008DF83F5001220FA9F8
:1025D0000F48FFF703F910208DF800008DF8014037
:1025E0008DF80240C004CDE90440039401208DF829
:1025F0002000000201940990069407940122694684
:102600000348FFF72FF811B030BD0000002800404C
:10261000C000002010B586B0002412480094019438
:102620000294039404940E49059401604721C0E983
:1026300001144FF6FE71C0E903148461FFF720FA1C
:102640004FF48050009069460648FFF749FA049419
:1026500004A904480594FFF7CBF906B010BD0000AB
:1026600000040040E000002010B501220B490C4896
:1026700000F0C1FD08B1FDF77CFE0A49084801F0F1
:102680002BFE08B1FDF775FE054801F068FE002835
:1026900003D0BDE81040FDF76CBE10BD75430008C7
:1026A0006001002044000020014801F001BD00004D
:1026B00060010020FEE770470148FEF735B80000D2
:1026C000B0090020704700000148FEF72FBF00004E
:1026D000C0000020002102E00A38C0B2491C0A28CC
:1026E000FAD2090740EA11607047000070B504464D
:1026F0000068C168490614D44FF0FF31C160FDF78E
:102700005BFF05464FF47A7607E000BFFDF754FF04
:10271000401BB04201D9032070BD2068C06840064C
:10272000F4D5002070BD7047FEF74CBA30B5A9B0A3
:10273000342116A8FDF7B6FD142123A8FDF7B2FD3C
:1027400058216846FDF7AEFD1E480025016841F09E
:1027500080510160006800F0805028901A4801689C
:1027600041F4404101600068022400F44040289098
:102770000520169000041790012018908005CDE9DF
:102780001C4004201E904820CDE91F040320CDE901
:10279000210416A8FEF736FD23A90F2081E8310099
:1027A000E002CDE92605022123A8FEF741FC2820FE
:1027B0000090E00109900C956846FEF79DFA29B05B
:1027C00030BD0000403802400070004005480168FC
:1027D00041F47001016003494FF0006080390860E6
:1027E0007047000088ED00E0F0B50268254C264DEA
:1027F000264E274F274B4FF0804CA04209D0604512
:1028000007D0A84205D0B04203D0B84201D09842C8
:1028100004D122F0700E4A6842EA0E02A0421BD098
:10282000604519D0A84217D0B04215D0B84213D095
:10283000984211D0184DA8420ED0184DA8420BD086
:10284000174DA84208D0174DA84205D0164DA842F2
:1028500002D0164DA84203D122F44075CA682A431B
:102860004D6922F080022A4302608A68C2620A68C7
:102870008262A04201D0984201D10969016301211D
:102880004161F0BD0000014000040040000800402C
:10289000000C0040000401400040014000440140A1
:1028A0000048014000180040001C0040002000408B
:1028B00010B5846842EA032224F47F440A43224389
:1028C000826010BD826822F070020A4342F0070164
:1028D0008160704710B5036A046A24F00104046241
:1028E000846924F0F00444EA021423F00A020A4343
:1028F0008461026210BD10B5036A23F01003036205
:102900008369046A23F4704343EA023224F0A0038B
:1029100043EA01118261016210BD10B5806B002194
:10292000C185C184FFF747F910BD0168CA6822F468
:102930009072CA6001684A6922F001024A6120214E
:1029400080F83A10704710B590F83A10222901D05B
:10295000022010BD8168B1F5805F11D001690029A6
:1029600001681FD0496801F07F03816A4A1C8262B6
:102970000B70C18D491E0904090CC18518D02BE0CC
:102980000269816A002A0268526805D0D2B20A80C0
:10299000816A491C8162ECE7C2F308020A80816AFD
:1029A000891CF7E74A68816A4B1C83620A70E0E77A
:1029B0000168CA6822F02002CA600168CA6822F46D
:1029C0008072CA6001684A6922F001024A612021CE
:1029D00080F83A10FFF7EAF9002010BD2DE9F04128
:1029E000044600680169E26821F440511143016125
:1029F0002169A068E26908436169114308432168BD
:102A0000CA6849F20C639A430243CA60206841696C
:102A1000A26921F4407111434161E06919276425DD
:102A20003226B0F5004F3A493A4A3B4BDFF8ECC04A
:102A300020684FF000080AD0604505D0884203D0D6
:102A4000904201D098423AD1FEF79CFB39E06045B4
:102A500005D0884203D0904201D0984202D1FEF7BF
:102A600091FB01E0FEF77EFB61684A18A0FB0701BD
:102A700048EB0803FDF7CCFB0146B0FBF5F0020183
:102A8000B1FBF5F06FF01803584301EB800006EB43
:102A9000C000B0FBF5F000F0F80002EB4002B1FB23
:102AA000F5F0584301EB800006EBC000B0FBF5F0F9
:102AB00000F00700216810448860BDE8F081FEF74F
:102AC00051FB61688B0F8A00A0FB0701FDF7A0FB9B
:102AD0000146B0FBF5F06FF01802504301EB8000A7
:102AE00006EB0010B0FBF5F000F0F002B1FBF5F0E2
:102AF00002EB0012B1FBF5F06FF01803584301EB45
:102B0000800006EB0010B0FBF5F000F00F00D1E7FD
:102B10000014014000180140001C01400010014059
:102B200090F83910212901D0022070478168B1F551
:102B3000805F016A0BD04A1C02620268097851600A
:102B4000C18C491E0904090CC1840ED017E0098804
:102B50000268C1F30801516001690029016A02D0CD
:102B6000491C0162ECE7891CFBE70168CA6822F096
:102B70008002CA600068C16841F04001C160002065
:102B800070472DE9F041984617460E460446069DCB
:102B90001DE0681C1BD02DB1FDF70EFDA0EB080059
:102BA000A84214D92068C16821F4D071C16020689E
:102BB000416921F001014161202084F8390084F845
:102BC0003A00002084F838000320BDE8F081206836
:102BD000006836EA000004D00020B842D9D00020B6
:102BE000F3E70120F9E700000148FEF7E5BF000028
:102BF0002001002010B500224FF6FF7300EB820485
:102C0000B4F8844324040BD49A4207D002F00F0393
:102C100000EB830041F40041C0F88413D0B210BD32
:102C2000521CD2B20B2AE9D31A46F7E77FB51C46ED
:102C3000012501AE0023009586E80E0002232A46F6
:102C4000214600F0D7FB04B0002070BD7FB51D46C3
:102C500090F81D33089C03B100240123CDE9003115
:102C6000CDE9022402230022294600F0C3FB04B070
:102C7000002070BD10B500F0DDFA002010BD827894
:102C8000012A07D1022202740122427400224282E8
:102C90008182C2820022114600F00FB87FB51C4627
:102CA000012501AE0023009586E80E002A46214644
:102CB00000F0A0FB04B0002070BD70B504460120F8
:102CC000A3780546012B0BD0022B08D1204600F03B
:102CD00014F958B1032809D0022800D1A57070BD9D
:102CE000A160A28125760221A17070BDA57000218E
:102CF000217670BD7FB51D4690F81D33089C03B149
:102D000000240123CDE90031CDE9022400231A4635
:102D1000294600F06FFB04B0002070BD1FB50023F2
:102D20001446CDE900310822CDE902231A46214696
:102D300000F060FB04B0002010BDFDF751BB0000A7
:102D400070B50546002005F54E7500BF00EB800408
:102D500004EBC00405EB4404E67B0A348E4201D048
:102D6000FF2909D1A679964201D0FF2A04D1E4793E
:102D70009C4206D0FF2B04D0401CC0B20228E5D3F1
:102D8000FF2070BD0B2907D200EB8100B0F884133F
:102D9000C1F30E01C0F884130020704730B4857869
:102DA000029C012D0FD141F0800101740621417474
:102DB00003214282B1EB122F02D140F2094100E01F
:102DC00000218182C482224630BC1946FFF775BFBC
:102DD0000A8803781A440A80017808447047F8B5D5
:102DE0000E4600F11C05009104462B464FF400727C
:102DF0000021FFF7D3FF070005D13246294604F52D
:102E00004E7001F0E7F83846F8BD38B50D46009130
:102E1000044600F58E734FF480720021FFF7BEFF69
:102E2000002839D194F81C1184F8261394F81D1148
:102E300084F82713B4F81E11A4F8281394F820116D
:102E400084F82A1394F8211184F82B1394F8221192
:102E500084F82C1394F8231184F82D13082D1BD912
:102E6000B4F82411A4F82E13B4F82611A4F83013E2
:102E7000B4F82811A4F8321394F82A1184F8341302
:102E800094F82B1184F8351394F82C1184F8361328
:102E900094F82D1184F8371338BDF8B51C46164642
:102EA000009341F4407200F58E731D460021FFF738
:102EB00075FF002814D16978032911D129788A1E59
:102EC000A24200D814460021A2B2AD1C04E06B5C03
:102ED000891C06F8013B89B29142F8D30021317078
:102EE000F8BD01004FF0000004D0012901D00229F3
:102EF00001D002207047012070472DE9F84F0125CD
:102F0000017E04460B26092728464FF007084FF09C
:102F1000050A4FF00D090C2919D2DFE801F0B406BB
:102F20000E26313C48606B7C899A627904F110016D
:102F30002046FFF7F3FE022012E06179204600F000
:102F4000D9F9012804D0042871D002287FD09AE052
:102F5000207CE18A00F0800021B180283AD1032052
:102F6000207690E0802814D02EE0D4F8C403E081CD
:102F70002379A2892046A168FFF790FE0420EFE79D
:102F80002179204600F0B6F9012802D0052840D06A
:102F900056E0277677E000906379A2892046A16801
:102FA000FFF7A8FED4F8C403E0810620D8E76179D2
:102FB000204600F09FF9012806D0052807D00228F6
:102FC00008D0042809D05EE084F818805BE00C206B
:102FD00020761EE084F818A055E0267652E0002204
:102FE000237911462046FFF759FED4F8C403E08147
:102FF0000820B5E72179204600F07CF9012804D0AB
:10300000042824D0052804D03DE084F81890002539
:1030100039E0032537E0009000226379114620460D
:10302000FFF768FED4F8C403E0810A2098E70EE0B9
:103030006179204600F05EF9012804D00228A8D06A
:10304000042804D01FE0002584F818901BE02676A1
:1030500019E0617E491CC9B26176022902D8207646
:10306000A07010E0D4F8D423062120469047002514
:10307000657661792046FFF785FE21792046FFF7C6
:1030800081FE257002252846BDE8F88F2DE9FE4314
:1030900004460126407800250D27B04604F58E72BF
:1030A00008280CD2DFE800F0042A3C686F86929969
:1030B00008212046FFF7A9FE10B103280DD097E0A4
:1030C00094F82D03A07184F8018094F81D130091E9
:1030D000CDE9015094F81C3338E094F81E03401CED
:1030E000C0B284F81E03032818D861792046FFF780
:1030F00049FE21792046FFF745FE59E0122120467E
:10310000FFF783FEA8BB022047E000BF94F81E0330
:10311000401CC0B284F81E03032840D9277067E022
:103120000121204601F0F1F810B1032822D05FE020
:103130000220FFF702FE84F81C8303206070A07950
:1031400094F81D13CDE900154346029021798022A1
:10315000204600F035FFA07994F81D130091CDE9C9
:10316000015094F81C3361790022204600F028FFBA
:103170003EE00EE027702EE009212046FFF72FFEEB
:1031800038B9042009E0B4F83A132046FFF727FEC7
:1031900010B10328BAD02BE00520607028E06179D7
:1031A0002046FFF7EFFD21792046FFF7EBFD657024
:1031B00025701DE094F8341306250AE0FF2320460D
:1031C000FFF76BFE38B1032805D011E094F83513F2
:1031D00007250029F2D165700AE094F8361331B161
:1031E000FF232046FFF759FE08B1032800D100262F
:1031F0003046BDE8FE8370B50E46040018D084F852
:10320000CC230025C4F87C53C4F8805304F54874DB
:10321000FDF786F8E57025706570A570A4F5487413
:103220000EB1C4F8D463204600F078F8002070BDD9
:10323000022070BD10B5D0F8D003FDF7DEF9BDE86F
:103240001040FFF74EBE012180F82013002180F8C6
:10325000211380F822130846704710B50446012058
:1032600084F82103002084F8200384F823032046F7
:1032700000F0B7F821792046FFF784FD61792046F8
:10328000FFF780FD002010BD10B590F8CC03012899
:1032900004D1012240210448FDF788F9C820FDF738
:1032A0009FF8002010BD000000180240D0F8D003A5
:1032B000FDF79DB910B50124D0F8D003FDF78DF9C5
:1032C00020B1012805D0022803D101E0002400E04C
:1032D0000224204610BDD0F8D00301EB810100EBA1
:1032E000C10090F83B1011B190F85000704790F871
:1032F00051007047D0F8D003FDF772B9D0F8C4136D
:10330000491CC0F8C41301780B2905D1D0F87C13EF
:10331000002901D0896908477047000010B50446AC
:1033200090F8CC0301281CD10F484FF0A041002297
:10333000C0F8C042C4F8D00301600C2181600121B3
:10334000C0E903120222C0E90621FDF785FA08B19F
:10335000FDF70FF80448FDF73DF90146204600F05F
:1033600024F8002010BD0000B0090020FEB508AF11
:1033700097E870008DE87000D0F8D003FDF74FF9A2
:10338000BDE8FE40FFF7ADBD002180F82313704774
:10339000012180F82313704710B5D0F8D003FDF752
:1033A000E7FABDE81040FFF79CBDC0F8C4137047B2
:1033B000D0F8D00301EB810100EBC10090F83B1085
:1033C00011B180F8502001E080F8512000207047B2
:1033D00010B5D0F8D003FDF7D2FABDE81040FFF7E2
:1033E00080BD10B5D0F8D003FDF7DFFABDE810407E
:1033F000FFF777BD2DE9FF410DF1280898E8F000AF
:103400008DE8F000D0F8D003FDF743F904B0BDE833
:10341000F041FFF766BD03460220D3F87C13C9696B
:103420002AB1012A05D189791846FFF728BCC97944
:10343000FAE77047D0F87C030549C0694165054942
:103440008165012100F8501F817000207047000045
:1034500055534243504030202DE9F84F0746D0F8ED
:103460007C0301263546C4694FF00B0A4FF00A0B66
:1034700094F850004FF009094FF007080C2845D286
:10348000DFE800F0D20611252E4852757EA7AFCB9B
:1034900084F86110022084F85000009563791F229F
:1034A00004F1540159E061793846FFF723FF012800
:1034B00002D002287ED03FE0E06D002829D094F8A9
:1034C0006000000601D503204BE0052049E0237988
:1034D00062893846D4F88C10FFF7A8FB042040E03E
:1034E00021793846FFF706FF01284FD16289E06D48
:1034F00090420CD9D4F88C10801A1144C4F88C1066
:10350000E0656BD023793846FFF790FB8CE0002014
:10351000E06563E00095637922893846D4F88C1021
:10352000FFF794FB06201CE061793846FFF7E2FEC6
:10353000012804D00228C8D0052815D074E02289BB
:10354000E06D9042E3D9D4F88C10801A1144C4F88D
:103550008C10E06542D0009563793846FFF776FB22
:1035600062E084F850005FE084F850B05CE02379BA
:103570000D2204F178013846FFF758FB0820F0E7E8
:1035800021793846FFF7B6FE012802D005281DD064
:103590004AE004F8505F3846A570D7F87C13CC6930
:1035A0002179FFF783FE0D280CD12149A06F8842B5
:1035B00008D100E036E0A16DE06F884202D194F8B6
:1035C000840008B102262FE000262DE084F85090F8
:1035D0002AE000223846FFF71EFF38B984F85080F1
:1035E00022E001223846FFF716FF10B1042811D05F
:1035F0001AE061793846FFF76EFEC0F10100C2B2F1
:1036000061793846FFF7D4FE217900223846FFF76A
:10361000CFFEDBE784F850A006E0384600F015F84E
:10362000060001D184F850503046BDE8F88F000004
:1036300055534253A1220274FE2242740022428258
:1036400082820122C282FFF738BB21210174FF214F
:103650004174002141828182C1820A46FFF72DBB5D
:1036600070B5D0F87C130125CC69A17B21B102296A
:1036700002D003292ED127E02146FFF7DBFF0021EE
:103680000546032801D01DB124E02170002504E087
:103690002078022801D9022001E02078401C207007
:1036A000002002230CE000BF00EB800202EBC0020E
:1036B00004EB8202401C82F8923082F8C110C0B242
:1036C00022788242F0D805E00021FFF7D8FA08B945
:1036D000E07BA073284670BD10B51446D0F87C235B
:1036E0000078D3690B2801D0022010BD01EB8100C6
:1036F00000EBC10003EB8001342220469031FCF73F
:10370000B8FD002010BD70B50546D0F87C0300263A
:10371000C469617939B12846FFF7ACFA6179284666
:10372000FFF730FB6671217939B12846FFF7A2FA1D
:1037300021792846FFF726FB2671D5F87C03C0695E
:1037400020B102F0D9F8D5F87C03C661002070BD25
:10375000FEB50546D0F87C035023062201792846A1
:10376000FFF7EEFA0646FF2823D0022E21D20146AB
:10377000284600F0BFFDE0B94FF48077384602F0EC
:1037800035FAD5F87C130446C861200011D03946BB
:10379000FCF788FD06EB860000EBC60005EB400059
:1037A00090F84E130A0606D5E171B0F85013618106
:1037B00005E00220FEBDA171B0F85013218190F800
:1037C00056130A0604D5E171B0F85803608103E08E
:1037D000A171B0F858032081002020736073A0739A
:1037E000A1792846FFF706FA6071E1792846FFF7CC
:1037F00001FA20712846FFF71DFE208995F81D1358
:1038000002260091CDE9016095F81C33A279617917
:10381000284600F0D5FB608995F81D130091CDE98D
:10382000016095F81C33E2792179284600F0C8FB45
:10383000217900222846FFF7BBFD61790022284646
:10384000FFF7B6FD0020FEBD2DE9F0470746D0F892
:103850007C034FF0010AC469207B10B101282DD1EF
:103860002CE1B4F8F800217801254FF000088842D7
:103870006FD200EB800101EBC00004EB8000022658
:1038800080F89150B4F8F8004FF0050900EB800182
:1038900001EBC00104EB810292F8901009290DD2CE
:1038A000DFE801F0050C1F880DB10C0CFF000420AF
:1038B00082F89000D7F8C403C4F8FC0000E1C1B25C
:1038C00038469F3200F08CF940B9B4F8F80000EBAC
:1038D000800101EBC00004EB8000B6E002287DD03F
:1038E00099E0C1B2384600F0ABFA10B1022831D0ED
:1038F00091E0B4F8F80000EB800101EBC00004EBAC
:10390000800090F8921011B180F8C15001E080F869
:10391000C180B4F8F820032002EB820101EBC20160
:1039200004EB810181F89000B4F8F81001EB8102FA
:1039300002EBC10104EB810181F89180B4F8F81029
:1039400001EB810202EBC10104EB810181F892805D
:10395000B6E0AAE0B4F8F80000EB800101EBC0008B
:1039600004EB800090F89210022902D080F8C15038
:1039700001E080F8C180B4F8F81001EB810202EB9D
:10398000C10104EB810181F89090B4F8F80000EBDC
:10399000800101EBC00004EB800080F89150B4F886
:1039A000F80000EB800101EBC00004EB800080F820
:1039B000926085E0C1B23846943200F0BBF900282D
:1039C0008CD1B4F8F80000EB800101EBC00004EBEF
:1039D000800080F89050B4F8F81000E008E001EBA7
:1039E000810202EBC10104EB810181F8918031E099
:1039F000B4F8F81001EB810202EBC10104EB810184
:103A000081F890905CE0C1B238469C3200F0CFF96A
:103A100020B1022823D004282DD051E0B4F8F800BA
:103A200000EB800101EBC00004EB800090F89C10DB
:103A3000062901D002290BD1D7F8C413D4F8FC20F1
:103A4000891A42F21072914202D280F8906037E0F7
:103A500080F8905034F8F80F401C208030E0B4F823
:103A6000F810082001EB810202EBC10104EB810197
:103A700081F8900024E0B4F8F80000EB800101EB3D
:103A8000C00004EB800080F89050B4F8F80000EB20
:103A9000800101EBC00004EB800080F891600FE032
:103AA000FFE7401CA4F8F8000AE0A4F8F8802573AA
:103AB000D7F8D42302213846904701E04FF0000A9E
:103AC0005046BDE8F08700002DE9F843D0F87C238C
:103AD00001EB810303EBC103D269012502EB8304EF
:103AE000082794F890302E46052B22D000224FF064
:103AF0000508062B02D0072B2AD10CE000230092E8
:103B00001A4600F0D7F80BE002280FD018E000BFEB
:103B100084F890701BE0002300921A4600F0B6F97A
:103B20000028F1D184F89060002511E084F890809D
:103B30000EE004F19C0200F03AF920B1022807D00F
:103B40000428E5D004E004F8906F0220607002259C
:103B50002846BDE8F8832DE9F8430446D0F87C03F5
:103B6000089E0F46C56994F8200360B120780B28A1
:103B700009D107EB870000EBC70005EB800090F848
:103B80009010012902D00220BDE8F8830621297394
:103B900080F89010A5F8FA7039462046009600F09B
:103BA00089F8D4F8C48340F271204FF001094643EC
:103BB00009E0D4F8C413A1EB0800B0EB061F0CD841
:103BC00094F8200348B139462046FFF77DFF0128CD
:103BD000EFD085F80C900020D6E785F80C90D2E75E
:103BE0002DE9F0411546D0F87C2302270026D46940
:103BF0004FF0010894F85220012A02D0022A56D12F
:103C000026E024208022E06584F860200A2284F8DF
:103C10006220C4F86360C4F86760A4F86B60122285
:103C200084F86320490184F8641084F8656084F89E
:103C3000666084F8670084F86860022084F8508029
:103C400084F8520004F110000127C4F88C002EE023
:103C5000FFF702FC07002AD122212846FCF722FBAD
:103C6000D4F88C00007800F01F006870D4F88C0045
:103C7000007840092870D4F88C004078000602D5FE
:103C800085F8028000E0AE7054F88C0F1022816835
:103C9000C5F80310C068C5F80700216805F10C00DD
:103CA0001031FCF7E6FA2068006AC5F81D003846B6
:103CB000BDE8F0812DE9F041154602461F46D2F8D5
:103CC0007C330220069EDC6994F85230012B06D02A
:103CD000022B2DD1BDE8F0411046FFF7BDBBB4F873
:103CE000980010217043E065802084F860000A206D
:103CF00084F8620004F16300FCF7D4FA282084F809
:103D00006300280E84F86500280C84F86600280AF1
:103D100084F8670084F86850300A84F86A0084F8F0
:103D20006B60012004F8500F0220A0700120E763AF
:103D3000BDE8F08170B51646D0F87C230125D46922
:103D400094F85220012A02D0022A2ED11AE008202B
:103D5000E065802084F860000A2084F86200102169
:103D600004F16300FCF79EFA252084F8630001202B
:103D700084F85000022084F8520004F11000C4F8C6
:103D80008C0012E0FFF768FB05000ED154F88C0F91
:103D90004188427849BA007862F31F4141EA0060E5
:103DA00030602068C08840BAB080284670BD70B5C9
:103DB000154602460E46D2F87C130220CC6994F8D0
:103DC0005210012914D0022911D131461046FFF7B3
:103DD00043FB00280BD154F88C1F897801F00F01A8
:103DE00029702168097B69702168497BA97070BDC1
:103DF0000E258020E56584F860000A2084F86200C2
:103E0000102104F16300FCF74DFA032084F86300ED
:103E1000700184F86400002084F8650084F866006E
:103E200084F8675084F86800012084F8500002206C
:103E300084F8520004F11000C4F88C00012070BD19
:103E400070B502460220D2F87C33DC6994F8523017
:103E5000012B06D0022B18D1BDE870401046FFF7A9
:103E6000FBBA0025E56584F860500A2084F86200FA
:103E7000102104F16300FCF715FA84F86350012067
:103E800004F8500F0220A070012070BD2DE9F04110
:103E9000154602461F46D2F87C330220069EDC6996
:103EA00094F85230012B06D0022B2DD1BDE8F04101
:103EB0001046FFF7D1BAB4F8980010217043E065BE
:103EC000002084F860000A2084F8620004F1630096
:103ED000FCF7E8F92A2084F86300280E84F86500CE
:103EE000280C84F86600280A84F8670084F8685073
:103EF000300A84F86A0084F86B60012004F8500FDF
:103F00000220A0700120E763BDE8F0810020704727
:103F1000D0F87C230078D2690B2808D101EB81000E
:103F200000EBC10002EB800090F8910008B1002086
:103F30007047012070472DE9F8430446D0F87C0310
:103F4000089E0F46C56994F8200360B120780B28BD
:103F500009D107EB870000EBC70005EB800090F864
:103F60009010012902D00220BDE8F88307212973AF
:103F700080F89010A5F8FA70394620460096FFF7B1
:103F800085FFD4F8C48340F271204FF00109464305
:103F900009E0D4F8C413A1EB0800B0EB061F0CD85D
:103FA00094F8200348B139462046FFF78DFD0128DB
:103FB000EFD085F80C900020D6E785F80C90D2E77A
:103FC000FEB508AF97E870008DE87000FFF7CEF9F6
:103FD0000020FEBD2DE9F84105460B782B704B788B
:103FE0006B704B886B800B792B714B796B718B7974
:103FF000AB71CB790846EB710027097A2972092A3F
:1040000054D90921ADF800104BE06946FEF7E0FEF7
:104010004178042943D107EB870101EBC70105EB88
:104020004108017888F80A10417888F80B108178E7
:1040300088F80C10C17888F80D10017988F80E10F6
:10404000417988F80F10817988F81010C17908F14A
:104050000A0488F81110017A2172002615E06946D9
:10406000FEF7B6FE417805290FD108EBC6010278AC
:104070000A7542784A7582788A75C278CA758288CC
:104080000A838279761C8A76F6B22179B14204D904
:104090006A88BDF800108A42E1D87F1CFFB2022F67
:1040A00004D26988BDF800209142AED8BDE8F881FD
:1040B000FEB5022104468DF8001094F8212300205B
:1040C000012A01D10322227022780D26082700251B
:1040D0000C2A17D2DFE802F0061734DEF869C27C3A
:1040E000848C9AD794F8200300280BD001202070EC
:1040F000C820FEF722FE2046FFF74EF984F81C5335
:10410000C4F8C853E0E094F8230301280DD0D4F894
:10411000C803B0F57A7F0CD994F81F03401CC0B2D5
:1041200084F81F03032870D86DE084F81F532170B2
:10413000CAE00A30C4F8C8030A20FEF7FEFDC3E057
:10414000D4F8D42312B10421204690476420FEF70E
:10415000F4FD2046FFF7AEF884F81D03052020701B
:1041600000212046FEF746FD607180212046FEF7C3
:1041700041FD20710146A07994F81D230092CDE9FC
:10418000015094F81C3380222046FFF719FFA079D4
:1041900094F81D130091CDE9015094F81C33617916
:1041A00000222046FFF70CFF8EE02046FEF76EFF50
:1041B0008DF800009DF80000002808D184F82453F1
:1041C00094F83703012801D0072058E027707BE0DE
:1041D000D4F8D423002A77D0012120469047F5E770
:1041E00094F83D13204600F09EF8B0BB092046E04D
:1041F00094F83F034FF00A05800604D501212046BC
:1042000000F09FF848BB25705EE03AE0D4F88013D8
:1042100019B3C4F87C5394F8471300BF04EB800231
:10422000D2F8782312798A4206D104EB8000D0F8C4
:104230007803C4F87C0304E0401C10F0FF00EDD0CC
:104240002846F0B1816820468847D0B90620207002
:10425000D4F8D42303212046904735E0D4F87C03DA
:1042600078B10169204688478DF800009DF800006C
:1042700020B19DF80000022803D025E00B2020701B
:1042800022E0267020E0D4F87C03E8B141692046A2
:10429000884719E084F821532046FCF741F8D4F808
:1042A0007C0320B1C16820468847C4F87C53D4F809
:1042B000D42312B105212046904794F82203012807
:1042C00004D02046FFF784F80020FEBD84F8225376
:1042D000204600F044F8F7E7002211B1D0F880330F
:1042E00013B10222104670470123C0F88033C0F892
:1042F0007813F7E70246002092F83C338B4202D94C
:1043000082F824137047022070478278012A06D170
:10431000002202740523437441828282C2820022F9
:104320001146FEF7CABC8278012A06D10022027427
:104330000923437441828282C28200221146FEF721
:10434000BCBC8278012A06D1002202740323437484
:1043500041828282C28200221146FEF7AEBC10B5B5
:104360000446FFF735F801212046FEF78DFF0020B7
:1043700010BD000001290AD00548022906D00429F1
:1043800003D0052903D1032100E00121017070470A
:10439000050000200020704730B58DB0154601247F
:1043A00049B1012909D0022910D0032918D00424C9
:1043B0000DB0204630BD0024FAE701466A460E489B
:1043C000FFF78AF90028F3D1019813E001466A4605
:1043D0000948FFF781F90028EAD1BDF8080009E093
:1043E00001466A460448FFF777F90028E0D1BDF896
:1043F0000800400A2860DEE76001002030B58FB079
:10440000054600930B46014601240C48FFF7A3FB29
:1044100068B101AA29460948FFF75EF99DF8110025
:10442000042806D0282804D03A2803D101E000242B
:1044300000E003240FB0204630BD000060010020E2
:1044400010B5014601240348FFF762FD00B10024C6
:10445000204610BD6001002030B58FB005460093A6
:104460000B46014601240E48FFF765FD78B101AA0D
:1044700029460B48FFF730F99DF8110004280AD0AF
:10448000272806D0282806D03A2805D103E00024A2
:1044900002E0022400E003240FB0204630BD0000FB
:1044A0006001002070B5044606990A9E049D0D988F
:1044B000012916D0E06840F04000E060204600F09E
:1044C0002BF8A16B1EB321F48031A163012D07D11C
:1044D000A16841F00601A160A16841F02001A1603E
:1044E00070BDA16B21F48031A163E168094A1140DC
:1044F000E160E16821F44011E160012803D1E06846
:1045000040F48010E060204600F006F8DEE741F459
:104510008031DAE7BFFFBDFF01220C4902E0521CE7
:104520008A420BD80369002BF9DA026942F00102D2
:104530000261012204E0521C8A4201D90320704723
:104540000369DB07F7D1002070470000400D03002E
:10455000816821F0010181600020704700EB41106B
:10456000064AC0F81025D0F8001521F0804141F02E
:104570000041C0F8001500207047000000000880CE
:1045800008B5D0F8402422F02E020092D20405D4BF
:10459000012909D1009941F4805103E021B9009922
:1045A00021F48051C0F84014002008BD816841F01A
:1045B0000101816000207047002110220261054A3C
:1045C000491C914201D9032070470369DB06F7D4E7
:1045D00000207047400D03000022202343EA811190
:1045E00001610549521C8A4201D9032070470369C1
:1045F0009B06F7D400207047400D0300D0F8080454
:1046000080B2704708B5D0F840040090C0F3414034
:1046100008BD406900F00100704700EB4111D1F87E
:1046200000254FF47A73C2F381426AB1022A0BD09B
:10463000D1F8002542F08042C1F80025D0F81004DE
:1046400010F47F0F2ED009E0D1F8002542F080420F
:10465000C1F80025C06A10F47F0F07D0D1F800051B
:1046600040F00040C1F8000500207047D1F8000577
:1046700020F00040C1F80005D1F8000540F00040EE
:10468000C1F80005D1F8000520F40040C1F800058C
:10469000012002E0401C9842E6D8D1F80025002A0B
:1046A000F8DBE1E7D1F8000520F00040C1F8000593
:1046B000D1F8000540F00040C1F80005D1F8000530
:1046C00020F40040C1F80005012002E0401C98429F
:1046D000CAD8D1F80025002AF8DBC5E72DE9F04358
:1046E0000026DDE9078500EB4114771EDDF82490F4
:1046F000C4F80875CDB1012D32D0022D15D0032D8F
:1047000027D00126D0F8187401F00F0C012101FA0E
:104710000CF10F43C0F81874816941F00071816198
:1047200010062AD54FF4004028E040F29D47C4F817
:104730000C75170605D500BFD4F80C7547F48077C3
:1047400018E0C76BFF05DDD5D4F80C7547F060079E
:1047500010E040F29D67C4F80C751706ECD4D1E761
:1047600040F22527C4F80C751706CBD5D4F80C7584
:1047700047F4C077C4F80C75C4E70020B8F1020F05
:1047800018D000214FF0FE5707EA83534FF4F0474B
:1047900007EAC22213434FF4402202EA8542134340
:1047A000C9F30A02134303430B43C4F80035032D36
:1047B00003D008E04FF40031E4E7D4F8000540F0FE
:1047C0000050C4F800053046BDE8F083D0F814046A
:1047D00080B27047F8B54C78C56B4FF48073ED0527
:1047E0004FF0000715D50D799DB912B1012A07D0F8
:1047F0000FE04D79012D0CD12146FFF7AFFE8CE083
:1048000000EB4415D5F80C6526F06006C5F80C657C
:104810004F710E695EB10D892E44761EB6FBF5F61A
:10482000B6B29E4204D91E462B020B6100E001265F
:10483000CB78CBB30B897343C1F810306FF0604570
:10484000C3F3120305EAC6452B438D7A4FF0C046E9
:1048500006EA45752B4300EB44140546C4F81035B1
:1048600012B1CB68C4F81435D5F80834D4F8005523
:1048700043F3000325F00055C4F80055D4F8005563
:104880005B1C45EA4373C4F80035D4F80055244B4B
:104890001D601D6825F080451D60CD78002D1D68C8
:1048A00005D045F4004504E0FFE70B69C6E725F4B1
:1048B00000451D601D6845F000451D601B68C4F87B
:1048C000003552BBCA7842BB0A6932B3CB7933B1E7
:1048D000012B0FD0022B02D0032B17D10AE0D21CE0
:1048E000C36AC2F38F029BB293420FD2826942F035
:1048F00020020AE0D21CD0F81034C2F38F029BB21F
:10490000934203D2826942F08062826100970A8AF0
:1049100093B24A78C96800F00AF90020F8BD000097
:10492000280000202DE9F0410025DDF81880174609
:104930000446C0F8005E806B20F40010A063A06BFA
:1049400020F40030A063E06BC00501D5012B04D03A
:10495000D4F8000420F0040103E0D4F8000440F08F
:1049600004012046C4F800141021FFF735FE20464C
:10497000FFF722FE0020461E07E000BF04EB4011B7
:10498000C1F80865C1F80C55401C8742F6D80121D2
:104990002046FFF7F5FDC820FBF722FDA561666103
:1049A000E06BC00506D54FF4007060620C48A06251
:1049B0000C4804E0802060620B48A0620B48C4F8F9
:1049C0000001B8F1000F03D1A06940F01000A06110
:1049D000A06907490843A0610020BDE8F0810000FC
:1049E000000200010003E00080006000E0004000E1
:1049F000080020A3D0F8002422F00302C0F800240D
:104A0000D0F8002401F003031A43C0F80024012960
:104A100002D0022903D006E04BF6803101E041F2DA
:104A20007071C0F804140020704741698069084023
:104A30007047D21C10B59308002200F5805002E0A8
:104A40000468521C10C19A42FAD3084610BD38B50A
:104A50000446D0F8400420F02E00009040F480700E
:104A6000C4F84004642004F58864FBF7B9FC00989E
:104A700020F4807020600A20FBF7B2FC002038BDD3
:104A800010B5C26822F0C042C260012902D029B12B
:104A9000012010BDC16841F0005102E0C16841F041
:104AA0008041C1603220FBF79BFC002010BD00005C
:104AB00030B504468068002520F00100A060102178
:104AC0002046FFF789FD2046FFF776FD5FF00000E6
:104AD00004EB4011D1F8002522F0802242F0804200
:104AE000C1F80025401C0F28F2D900204FF47A733A
:104AF00004EB4011D1F8002522F4004242F040427C
:104B0000C1F800256D1C9D4203D8D1F80025002A6C
:104B1000F8DB401C0F28EBD94FF0FF30C4F8140429
:104B20006061A06840F00100A060002030BD10B5B9
:104B3000029C64B9DB1C9C0800EB0230002300F5EA
:104B4000805002E004C902605B1CA342FAD300203B
:104B500010BDFEE70907090E002804DB00F1E02084
:104B600080F80014704700F00F0000F1E02080F89A
:104B7000141D704702E008C8121F08C1002AFAD1AC
:104B800070477047002001E001C1121F002AFBD1CD
:104B90007047000010B504460020E070401EE0623F
:104BA000204601F06AF808B1042010BD04F22E205E
:104BB00000F0D8FFA0F52A41553901D0032010BDDF
:104BC00094F83000E92805D0EB2814D194F832008D
:104BD000902810D104F1660000F0B9FF0749B1EB4D
:104BE000002F06D004F1820000F0B1FF0449884292
:104BF00001D1002010BD022010BD0000004641542C
:104C000046415433F0B50022144D134605EB02140F
:104C100026685EB10768BE4209D166688768BE42F1
:104C200005D1A4684669B44204D000E00123521CB7
:104C3000022AEBD3022A01D069B904E04BB9022958
:104C400007D01220F0BD05EB02108089B0F5807FFF
:104C500001D00020F0BD1020F0BD0000740C002039
:104C600030B50021054B0C4603EB01121568854257
:104C700000D11460491C0229F6D330BD740C002009
:104C80000268490AC06A5289B1FBF2F1001D04C8EA
:104C90001AB1914203D3891AF8E7002070470068DF
:104CA000084470474269891E921E8A4201D800203A
:104CB0007047826A408901FB002070472DE9F0416E
:104CC00005680F00804606D000F03EFE022809D29B
:104CD0000120BDE8F081EE6816B16869B04207D8DE
:104CE000012605E0411CF4D069698142F1D83E46B5
:104CF00034466869641CA04202D80224022E0AD3FA
:104D00002146404600F020FE38B10128E1D0411C88
:104D1000DFD0B442EDD10020DBE74FF0FF36324662
:104D20002146284600F0C2FF30B957B12246394625
:104D3000284600F0BBFF20B101280FD001242046F7
:104D4000C7E7EC60D5E90401891E884201D8401EFE
:104D50002861287940F001002871F0E73446EEE739
:104D60002DE9F0410E4624300D6804460B22202127
:104D700000F07CFF0020014608272A5C401C202A06
:104D800012D92F2A0BD05C2A09D02E2A01D0B94281
:104D900014D30B2F22D02E2A20D10CE0401C2B5CE8
:104DA0002F2BFBD05C2BF9D028443060B1B1207898
:104DB000E5281FD020E008210B27DEE7802A03D357
:104DC000114B1A4412F8802C10A300E05B1C93F8DE
:104DD00000C0BCF1000F04D09445F7D10620BDE817
:104DE000F081A2F16103192B01D8203AD2B26254AA
:104DF000491CC2E705202070202A01D8042000E0C9
:104E00000020E0720020EAE798600008222A2B2C9C
:104E10003A3B3C3D3E3F5B5D7C7F0000401E0228EC
:104E200012D20A4901EB00118889B0F5807F05D0C4
:104E300008B1401E80B2888110B103E00020FAE77B
:104E4000002008600020704702207047740C00208A
:104E50002DE9F04104460021056800F0D8F800284B
:104E600026D12846E16900F008FF02001FD1206A20
:104E7000017899B1C17A01F03F01A171C17A0907A6
:104E80000FD404F124010B2610F8013B11F8017B2B
:104E9000DB1B761E04D0002BF6D002E0042206E0D5
:104EA0002BB10021204600F005F80200D9D01046B1
:104EB000BDE8F0812DE9F047054647690468C069FF
:104EC0008946203710B1B7F5001F02D30420BDE892
:104ED000F087F90560D1401CE861A9694FF000082E
:104EE00029B16089401E10EA572F05D054E020896F
:104EF000B0EB571F1DD94FE0284600F025FD0646B0
:104F000001281BD9701C33D06069B0423ED8B9F17A
:104F1000000F0ED02846A969FFF7D0FE06000BD07F
:104F2000012E0BD0701C23D0204601F05BF8F8B99D
:104F300006E0C5F81C80C9E70720C8E70220C6E7DD
:104F40004FF40072002104F1300000F08FFE4FF0AA
:104F5000000831462046FFF7A5FE4FF00109E06248
:104F60000DE000BF84F80390204601F03BF808B143
:104F70000120ACE7E06A08F10108401CE0626189A9
:104F80004145EFD8E16AA1EB0800E06231462046D6
:104F9000AE61FFF787FEE861C7F3080020443030B8
:104FA0006F612862002092E770B504460021066810
:104FB00000F02DF80DE03046E16900F05EFE50B9DA
:104FC000206A0078E52809D040B101212046FFF78A
:104FD00071FF0028EFD0042807D007E03046E169D0
:104FE00000F04BFE050003D00FE0072005460CE063
:104FF00020220021206A00F039FE0B2204F1240156
:10500000206A00F029FE0120F070284670BD2DE9CD
:10501000F04107680E460546B1F5001F36D2F0068E
:1050200034D16E61AC6824B93878032805D37C6A22
:105030001CB178894FEA402812E03889B0EB561F3E
:1050400024D9786A12E0284600F07EFC0446401C11
:105050001AD0022C1AD37869A04217D9A6EB0806F9
:1050600046452146EFD23846FFF71CFEC5E906400B
:1050700060B100EB5620E861C6F3080038443030D8
:1050800028620020BDE8F0810120FBE70220F9E75B
:10509000084910B50B5C002253B901220A540A18C2
:1050A00001EB8000127A406801681046884702468A
:1050B000104610BD940C002030B4054C231804EBAE
:1050C00080001B7A406804691846A44630BC6047DB
:1050D000940C002030B4054D2C1805EB8000247A88
:1050E000406885682046AC4630BC6047940C002080
:1050F000044A111802EB8000097A406842680846A9
:1051000010470000940C002030B4054D2C1805EB1E
:105110008000247A4068C5682046AC4630BC6047B1
:10512000940C002038B5044600F073F900280CD127
:105130006946204600F07FFF002806D12069FFF76E
:105140006DFE002801D10021216038BD2DE9F74115
:1051500081B0904602980090684600F087FC0400F9
:1051600003D50B2004B0BDE8F0810D4E002756F8A2
:1051700024501DB12846FFF773FD2F7001980028B9
:1051800000D0077046F8240002D0B8F1010F01D01A
:105190000020E7E7002201A902A800F049FAE1E7B0
:1051A000400000202DE9F74392B005000BD002F03B
:1051B0003F063246694613A800F03AFA04004FF061
:1051C000000804D0ECE0092015B0BDE8F083009899
:1051D000049004A8139900F055FB04000ED19DF82B
:1051E0003F00000601D5062408E0700801D0012127
:1051F00000E0002104A8FFF705FD044616F01C0F8F
:105200005DD04FF00109C4B1042C10D100206749D2
:1052100002E0401C022804D201EB00121268002AAE
:10522000F7D1022807D004A8FFF7BEFE044646F0D7
:1052300008065CB1B4E01224B2E09DF8160010F04C
:10524000110F47D1700701D50824A9E0300747D5D1
:1052500000F0D9FB07460C9839460E3000F072FE7C
:105260000C983946163000F06DFE0C982021C17262
:105270000C99009800F058FC074600220C99009801
:1052800000F04CFE0C9800211C3000F05BFE0099F1
:1052900081F8039017B3D1F82C900022394604A866
:1052A00000F0B1FD04007BD14946009800F0E5FC18
:1052B00004000098A7F10107C7600DD070E0ECBBB7
:1052C0009DF81600C10601D5042469E0B10703D595
:1052D000C00701D0072463E0300701D546F040063F
:1052E0000098C06A68620C98A862700801D0012119
:1052F00000E0002104A800F0D7FB2861B8B30C99A6
:10530000009800F011FCA8600C981C3000F01FFC05
:10531000C5F82C80E86000992960009905F13000FB
:105320004FF40072C988A9802E7585F81580C5F8DC
:10533000208000218146C5F8188000E030E000F0B0
:1053400095FCB0062ED5EE6866B3AE610098A968EC
:10535000408947020FE0284600F0F6FA014601288E
:1053600000D80224481C03D0F61B24B105E01BE042
:105370000124F61B01E0BE42EDD8E96184B9F005D5
:1053800010D00098FFF78EFC70B100EB56222A6215
:105390000098012349464078FFF79CFE10B1012494
:1053A000C5F8008020460FE70224F9E7740C0020BE
:1053B00010B594B004460020CDE90010029002E040
:1053C000641C00F0E8FC217868460029F8D100F060
:1053D00005FD14B010BD33B58DB00D4600226946F1
:1053E0000DA800F025F9040010D168460D9900F0D1
:1053F00049FA04000AD19DF82F00000601D50624C1
:1054000004E01DB12946684600F0FFFA0FB02046BF
:1054100030BDF8B50446694600F00DFE00280ED1F7
:10542000217D4A060BD508060ED50098226A012375
:10543000407804F13001FFF767FE08B10120F8BDA4
:10544000207D00F07F00207500F0DDFA0646616ADD
:10545000009800F012FC0028F1D1A56A2946E87AEC
:1054600040F02000E872A268206800F057FD05F1C6
:105470001C00E16800F066FD314605F1160000F001
:1054800061FD002105F1120000F064FD009801218A
:10549000C17000F063FD217D01F0BF012175F8BDF1
:1054A0002DE9FE4F044600208846186099461546AF
:1054B00002A9204600F0BFFD002806D1607D00282B
:1054C00003D1207D800702D40720BDE8FE8FA069AC
:1054D000012742194FF0020A04F1300B824200D238
:1054E000C5439BE0A169C80575D102984089401E5B
:1054F00010EA512618D129B1E06A38B12046FFF7E9
:10550000BFFB07E0A06838B9002100E0E169204650
:10551000FFF7D4FB00287DD001282DD0411C54D0AA
:10552000E061A16801B9A060207D00060BD502985A
:10553000226A012340785946FFF7E6FDA0BB207D93
:1055400000F07F002075E1690298FFF7ABFB98B18E
:1055500030440190680A009027D03218029841899F
:105560008A4201D9891B0091DDE900324078414629
:10557000FFF7CAFDC0B903E084F815A00220A4E734
:10558000216A0198081A009988420AD208EB402142
:105590004FF40072584600F05FFB207D00F07F0062
:1055A00020750098460228E00FE0216A01988142A8
:1055B0000FD0E168A06988420BD2029801235946B6
:1055C0004078019AFFF786FD18B1677501207CE7E6
:1055D00001E001982062208BC0F30800C0F500763E
:1055E000AE4200D92E46204432464146303000F0CB
:1055F00033FB207D40F080002075A069B04430442A
:10560000A061E168884200D80846E060D9F800004F
:10561000811900E005E0AD1BC9F80010002D7FF4F2
:1056200061AF207D40F04000207500204DE7000074
:105630002DE9FF41002790460E460F6000F016FA54
:10564000050003D50B2004B0BDE8F0818A4850F86E
:1056500025409CB13460207808F0FE0620B16078C7
:10566000FFF746FDC1070BD02770E8B2B84660705F
:10567000FFF70EFDC10708D00320E4E70C20E2E7A6
:105680000EB1400704D40020DDE71EB1400701D56C
:105690000A20D8E7002631462046FFF77BFA022889
:1056A00022D100254FEA0D0704EB051090F8F21106
:1056B00000F5F77019B1083000F049FA00E0002059
:1056C00047F825006D1C042DEED3002557F8256002
:1056D00036B131462046FFF75DFA022801D203E0D9
:1056E00003206D1C042DF1D3042809D002286DD2AB
:1056F00004F13B0000F036FAB0F5007F66D101E01E
:105700000120A0E704F1460000F02CFA18B904F1DA
:10571000540000F01CFAA06194F84050A570012DCF
:1057200001D0022D52D1454394F83D006081E8B389
:10573000411E08424AD104F1410000F013FA2081D1
:10574000000743D104F1430000F00CFA070004D134
:1057500004F1500000F0FBF9074604F13E0000F0B0
:1057600001FA010032D02389481900EB1312974245
:105770002CD3B81A6789B0FBF7F0B8B103274FF6FE
:10578000F57C604500D8022740F6F57C604500D8DE
:105790000127801C3244A26231446061C4E9076180
:1057A000032F15D013B12944616200E00EE0022FEF
:1057B0001FD000F0010100EB400001EB500000BFE2
:1057C000A16900F2FF10B1EB502F14D20D203AE77F
:1057D00004F15A0000F0C6F90028F7D1208900280A
:1057E000F4D104F15C0000F0B2F9606260698000FD
:1057F000E6E74000E4E74FF0FF302061E060802002
:105800002071032F2CD104F1600000F0ABF90128C6
:1058100026D1711C204600F030FA08BB84F80480C1
:1058200004F22E2000F09EF9A0F52A41553917D137
:1058300004F1300000F08BF91049884210D104F5D2
:10584000057000F084F90E49884209D104F506700C
:1058500000F07DF9206104F5077000F078F9E06050
:1058600005492770091F0888401C0880E0802046F1
:10587000FFF7F6F907E700004000002052526141AF
:105880007272416173B504460568019801E0401CDD
:10589000019001782F29FAD05C29F8D00021A1606D
:1058A00001980078202806D2802084F82F00204616
:1058B000FFF7ADFB7CBD01A92046FFF751FA002898
:1058C000F8D12046FFF7C4FA94F82F1028B1042825
:1058D000F0D14907EED405207CBD4907FCD4A0795E
:1058E000C006F8D5A08AC0F3080041192846303117
:1058F00000F01AF9A060DEE710B5002821D0114BA6
:105900000022001F196803E0814203D80A46496853
:105910000029F9D152B11368841A9C4204D100685D
:1059200018441060104602E0506000E0186039B181
:1059300002680B1A934203D10B681A44026049684B
:10594000416010BD640000202DE9F04104680D465F
:1059500002290BD36069A84208D920784FF0FF369E
:10596000012807D002282BD0032839D00126304641
:10597000BDE8F081206A05EB550700EB5721204672
:1059800000F07BF90028F2D1C7F3080020447F1C07
:1059900090F83080206A00EB5721204600F06DF926
:1059A0000028E4D1C7F30800204490F8301048EAFA
:1059B0000120E90701D00609D9E7C0F30B06D6E7B5
:1059C000206A00EB1521204600F057F90028CED1BF
:1059D000E8B204EB4000303000F0C4F80646C6E7F9
:1059E000206A00EBD511204600F047F90028BED10F
:1059F00040F2FF1000EA85002044303000F0A7F8A4
:105A000020F07046B3E7002070472DE9F0410023F5
:105A100005464B72C0690C46002825D000210A4675
:105A20002E26286A805C521C20280AD0052800D126
:105A3000E520092A02D16718491C7E726718491CA3
:105A400078720B2AEDD360184372286AC07A2072EC
:105A5000286A1C3000F07BF82060286A163000F0BD
:105A600076F8E080000CA080BDE8F08110B5044617
:105A70004FF0FF302268002A13D0114600E0491C85
:105A80000B78212B0ED33A2BF9D112F8013B303B86
:105A90000A2B06D28A4204D1002B02D1491C184697
:105AA000216010BD002010BDF0B502461D4BD2F89C
:105AB0000050002003EB00142668AE4207D1666850
:105AC0009768BE4203D1A4685669B44202D0401C14
:105AD0000228EFD3022814D1002002E0401C022843
