:020000040800F2
:10000000584D0020ED010008192B0008292900088F
:10001000152B00081D030008BB5E0008000000004F
:100020000000000000000000000000002F2B00086E
:100030007F030008000000002D2B0008312B000872
:10004000070200080702000807020008070200086C
:10005000070200080702000807020008070200085C
:10006000070200080702000807020008070200084C
:10007000070200080702000807020008070200083C
:10008000070200080702000807020008070200082C
:10009000070200080702000807020008070200081C
:1000A000070200080702000807020008070200080C
:1000B00007020008070200080702000807020008FC
:1000C00007020008070200080702000807020008EC
:1000D00007020008070200080702000807020008DC
:1000E00007020008070200080702000807020008CC
:1000F00007020008070200080702000807020008BC
:1001000007020008070200080702000807020008AB
:10011000070200080702000807020008070200089B
:10012000070200080702000807020008070200088B
:10013000070200080702000807020008070200087B
:100140000702000807020008070200081D2B00082C
:10015000070200080702000807020008070200085B
:10016000070200080702000807020008070200084B
:10017000070200080702000800000000000000005D
:10018000070200080702000807020008070200082B
:10019000070200080702000800000000070200082C
:1001A000070200080702000800000000000000002D
:1001B000070200080000000000000000070200081D
:1001C00007020008070200080702000807020008EB
:1001D0000702000807020008DFF80CD000F08CF8D6
:1001E00000480047AB720008584D00200648804781
:1001F00006480047FEE7FEE7FEE7FEE7FEE7FEE70C
:10020000FEE7FEE7FEE7FEE70D2C0008D901000837
:100210002DE9F05F0546002092469B46884606463B
:10022000814640241BE0284641464746224600F0CE
:1002300053F853465A46C01A914110D311461846F6
:10024000224600F03AF82D1A67EB01084F46224685
:100250000120002100F031F817EB00094E41201E6B
:10026000A4F10104DFDC484631462A464346BDE896
:10027000F09F40EA01039B0703D009E008C9121F61
:1002800008C0042AFAD203E011F8013B00F8013B50
:10029000521EF9D27047D2B201E000F8012B491E7C
:1002A000FBD270470022F6E710B513460A46044613
:1002B0001946FFF7F0FF204610BD202A04DB203A44
:1002C00000FA02F1002070479140C2F1200320FAA9
:1002D00003F3194390407047202A04DB203A21FAA7
:1002E00002F00021704721FA02F3D040C2F120024F
:1002F0009140084319467047064C074D06E0E068F8
:1003000040F0010394E8070098471034AC42F6D35C
:10031000FFF766FF087900082879000800BFFEE7AC
:100320000146002200BF05E0002301F5617040F89E
:100330002230521C0F2AF7D3002204E0002301F5DB
:100340008E708354521CB2F5007FF7D300200870E2
:100350004870012088700020C1F8C40301230B7687
:1003600040238B7100234B7681F81C33012381F8E5
:100370001D33002381F81F3381F81E337047704707
:10038000704730B504460D4600222946204600F04D
:1003900001F830BDF0B50346012500241148407A2C
:1003A00001281CDA00200F4E767A0E4FB8553846D9
:1003B000467A001D40F82630001F467A08308255E4
:1003C0003E46707A461C7E72044604F13000087086
:1003D0003A2048702F2088700020C87000252846D9
:1003E000F0BD0000480D002070B5044600F00EF985
:1003F00006462546681C10B104480078054400BF35
:1004000000F004F9801BA842FAD370BD70000020F0
:10041000F8B502460B460025002400200021D7E055
:10042000012606FA01F51E6806EA0504AC4273D1FE
:100430005E68012E08D05E68022E05D05E68112E1F
:1004400002D05E68122E13D190684F000326BE4082
:10045000B0434F00DE68BE403043906050680126D4
:100460008E40B0431E79C6F300168E403043506074
:10047000D0684F000326BE40B0434F009E68BE4088
:100480003043D0605E68022E02D05E68122E13D117
:10049000CF0802F1200656F827004E07F70E0F2668
:1004A000BE40B0434F07FF0E1E69BE403043CF0829
:1004B00002F1200646F8270010684F000326BE40D0
:1004C000B0431E7906F003064F00BE403043106073
:1004D0005E6806F08056B6F1805F78D100BF0026D6
:1004E00000963D4E366846F480463B4F3E603E46A1
:1004F000366806F48046009600BF00BF374E8F086E
:1005000056F827008E07370F0F26BE40B043344EF3
:10051000B24202D100261FE059E0324EB24201D170
:10052000012619E0304EB24201D1022614E02F4ECE
:10053000B24201D103260FE02D4EB24201D1042672
:100540000AE02C4EB24201D1052605E02A4EB24205
:1005500001D1062600E007268F073F0FBE4030433B
:100560001E4E8F0846F82700244E3068A0435E6870
:1005700006F48036B6F5803F00D120431F4E306030
:10058000361D3068A0435E6806F40036B6F5003FBD
:1005900000D12043194E361D3060361D3068A0430F
:1005A0005E6806F48016B6F5801F00D12043134E16
:1005B00008363060361D3068A0435E6806F40016C9
:1005C000B6F5001F00D120430C4E0C363060491C9C
:1005D0001029FFF425AFF8BD443802400838014027
:1005E000000002400004024000080240000C0240EB
:1005F000001002400014024000180240003C01407C
:100600000AB1816101E00B04836170470148006811
:10061000704700006800002010B50446D4F8C002FE
:1006200003F07BF910BD10B50446D4F8C00203F006
:100630007FF910BD10B50446206805F039F810BDEB
:1006400010B50446206805F03AF810BD024601EBEB
:10065000810302F1380000EBC30090F824007047DA
:10066000024601EB810302F1380000EBC300406950
:10067000704770B504460D46002600BF94F8B802D6
:10068000012801D1022070BD012084F8B80200BF0A
:100690002946206805F024F800BF002084F8B8023D
:1006A00000BF3046EFE72DE9FE4F04460D461646E3
:1006B0001F46DDE90D9ADDF8308000BF94F8B802DE
:1006C000012802D10220BDE8FE8F012084F8B80283
:1006D00000BF002105EB850204F1380000EBC200E9
:1006E000417105EB850104F1380000F8317005EB2C
:1006F000850100EBC100A0F808A005EB850104F11D
:10070000380000EBC100457005EB850104F13800AD
:1007100000EBC10080F8079006F07F0105EB850231
:1007200004F1380000EBC200817006F080008028E0
:1007300008D1012105EB850204F1380000EBC2006D
:10074000C17007E0002105EB850204F1380000EBE1
:10075000C200C17005EB850104F1380000EBC10057
:1007600080F804808DE800073B4632462946206821
:1007700005F071F8834600BF002084F8B80200BF7E
:100780005846A0E770472DE9F05F04460D4616462F
:100790001F46DDE90C9BDDE90A8A05EB850104F1C2
:1007A000380000EBC100C67005EB850104F138008C
:1007B00000EBC100C771B8F1000F10D1032105EBA8
:1007C000850204F1380000EBC200817205EB85015F
:1007D00004F1380000EBC10080F805B007E0022109
:1007E00005EB850204F1380000EBC200817237B1DD
:1007F000012F74D0022F2BD0032F71D15DE0B8F1FF
:10080000010F24D11EBBB9F1000F07D1012105EB67
:10081000850204F1380000EBC200417605EB85014A
:1008200004F1380000EBC100407E40B9002105EB27
:10083000850204F1380000EBC200817207E002215A
:1008400005EB850204F1380000EBC200817275E00F
:10085000CEB905EB850104F1380000EBC100407E04
:1008600040B9002105EB850204F1380000EBC2001D
:10087000817221E0022105EB850204F1380000EBD2
:10088000C200817218E005EB850104F1380000EB2D
:10089000C100007E40B9002105EB850204F138005B
:1008A00000EBC200817207E0022105EB850204F132
:1008B000380000EBC200817240E0DEB905EB850133
:1008C00004F1380000EBC100407E50B9002105EB77
:1008D000850204F1380000EBC200817223E023E0BE
:1008E0002BE0022105EB850204F1380000EBC20089
:1008F000817218E005EB850104F1380000EBC100BE
:10090000007E40B9002105EB850204F1380000EBC0
:10091000C200817207E0022105EB850204F1380074
:1009200000EBC200817209E0002105EB850204F1B1
:10093000380000EBC200817200E000BF00BF05EB91
:10094000850104F1380000EBC100C0F80CA005EBF4
:10095000850104F1380000EBC100C0F810900021BF
:1009600005EB850204F1380000EBC20080F824108A
:1009700005EB850204F1380000EBC200416105EB94
:10098000850104F1380000EBC1004570002105EB42
:10099000850204F1380000EBC20080F82510227CAB
:1009A00005EB850C04F1380303EBCC01206805F05E
:1009B00035F8BDE8F09F2DE9F0410446D4F80080F9
:1009C0004746206804F087FE012870D1206805F0B2
:1009D000ADF908B9BDE8F081206805F0A7F900F489
:1009E0000010B0F5001F03D14FF4001021684861DA
:1009F000206805F09BF900F48010B0F5801F03D14A
:100A00004FF4801021684861206805F08FF900F0EC
:100A10008060B0F1806F03D14FF080602168486141
:100A2000206805F083F900F00200022801D1216856
:100A30004861206805F07AF900F00050B0F1005FDD
:100A40000FD14FF0005021684861D7F8400400F002
:100A5000010030B92046FFF7E6FD0121206805F0CE
:100A600043F9206805F062F900F08070B0F1807FF2
:100A700002D1204601F078FE206805F057F900F019
:100A80000800082805D1204600F0F6F80820216863
:100A90004861206805F04AF900F00070B0F1007F6D
:100AA00027D1206804F0B2FF064600251AE035E0A1
:100AB00005F00F0101208840304090B107F5A0609B
:100AC00000EB4510006800F40040B0F5004F04D181
:100AD000E9B2204601F06EF803E0E9B2204601F0E9
:100AE0009EFB6D1CA068A842E2D84FF00070216800
:100AF0004861206805F01AF9C0F3001070B1206851
:100B0000806920F0100021688861204601F088FE8D
:100B10002068806940F010002168886100BF59E7B3
:100B200030B58BB0044614B901200BB030BD256838
:100B300094F8B90228B9002084F8B802204600F0E1
:100B400029F8032084F8B902E86B00F4807008B932
:100B500000212161206804F027FD282204F1100102
:100B60006846FFF786FB94E80F0004F0B5FC01210E
:100B7000206805F00FF9282204F110016846FFF7FC
:100B800078FB94E80F0005F033F8012084F8B902EF
:100B90000020CAE710B586B00446142101A8FFF76B
:100BA00081FB2068B0F1A04F4CD100BF0020009025
:100BB0002548006840F001002349086008460068A5
:100BC00000F00100009000BF00BF4FF4E85001901A
:100BD0000220029000200390032004900A20059038
:100BE00001A91A48FFF714FC4FF40070019000208F
:100BF0000290039001A91548FFF70AFC00BF1248B4
:100C0000001D006840F080000F49091D086000BF0A
:100C1000002000900C481430006840F480400A49DD
:100C2000143108600846006800F48040009000BF5E
:100C300000BF00BF00221146432000F0DBF8432034
:100C400000F0C8F806B010BD303802400000024085
:100C500010B50446D4F8C00202F034FF10BD10B540
:100C60000446D4F8C00202F031FF10BD10B50446AE
:100C7000206805F071F810BD10B50446D4F8C00224
:100C800002F0C9FE10BD10B5044600BF94F8B802CA
:100C9000012801D1022010BD012084F8B80200BF54
:100CA000206804F0D0FC0121206804F0A7FC00BFFC
:100CB000002084F8B80200BF00BFECE710B504467E
:100CC00000BF94F8B802012801D1022010BD012014
:100CD00084F8B80200BF206805F077F800BF002054
:100CE00084F8B80200BF00BFF0E7000003480068C6
:100CF00003490978084401490860704768000020EA
:100D00007000002010B50D48006840F400700B49D9
:100D100008600846006840F4806008600846006883
:100D200040F480700860032000F0A2F8002000F07A
:100D300007F800F02BF8002010BD0000003C024036
:100D400070B504460E4800784FF47A71B1FBF0F0AC
:100D50000C490968B1FBF0F5284600F027FE08B100
:100D6000012070BD102C07D200222146501E00F039
:100D700041F80548046001E00120F2E70020F0E7B7
:100D800070000020740000206C00002008B500BF37
:100D9000002000900E48006840F480400C49086034
:100DA0000846006800F48040009000BF00BF00BF0C
:100DB00000200090081F006840F08050091F086064
:100DC0000846006800F08050009000BF00BF08BDDA
:100DD0004438024001460846002809DB00F01F03A2
:100DE00001229A4043099B0003F1E023C3F800214C
:100DF00000BF70472DE9F05F80460D46164600277C
:100E000005F05EF8074639462A46334601F00700EA
:100E1000C0F1070ABAF1040F02D94FF0040A01E049
:100E2000C0F1070AD14600F1040ABAF1070F02D255
:100E30004FF0000A01E0A0F1030AD4464FF0010A86
:100E40000AFA09FAAAF1010A0AEA020A0AFA0CFAEB
:100E50004FF0010B0BFA0CFBABF1010B0BEA030B90
:100E60004AEA0B042146404605F032F8BDE8F09FFF
:100E700000BF00F00702064B19684FF6FF03194048
:100E8000044B0B4343EA0221014B196000BF70473A
:100E90000CED00E00000FA052DE9F84304460025BA
:100EA00000260027A846207800F0010058B1FE482F
:100EB000006820F0C060E1690843FB490860E06910
:100EC00008B94FF00108207800F0020002280BD189
:100ED000F548006820F0C050216A0843F2490860D4
:100EE000206A08B94FF00108208800F40050B0F5DE
:100EF000005F19D1EC48006820F44010A16C084351
:100F0000E9490860A06C08B94FF00108A06CB0F581
:100F1000001F09D1E448006820F4F8516069401EC0
:100F200041EA0020E0490860208800F48040B0F5E4
:100F3000804F19D1DC48006820F44000E16C084380
:100F4000D9490860E06C08B94FF00108E06CB0F5D1
:100F5000000F09D1D448006820F4F8516069401EA0
:100F600041EA0020D0490860207800F008000828F5
:100F70007ED100BF00200090CB484C38006840F084
:100F80008050C9494C3908600846006800F080501C
:100F9000009000BF00BFC548006840F48070C3499E
:100FA0000860FFF733FB054607E0FFF72FFB401B08
:100FB000022802D90320BDE8F883BC48006800F489
:100FC00080700028F1D0B8481C38006800F44076E2
:100FD0004EB3A08C00F44070B04224D0B2481C380C
:100FE000006820F440760120B149086000200860C4
:100FF000AD481C380660006800F0010098B1FFF7AA
:1010000005FB054608E0FFF701FB401B41F2883174
:10101000884201D90320CEE7A3481C380068C0F3FA
:1010200040000028EFD000BFA08C00F44070B0F565
:10103000407F0CD19C488438006820F4F8109D4A09
:10104000616A1140084398498439086007E096486E
:101050008438006820F4F810934984390860924875
:101060001C380068A18CC1F30B0108438E4900E0D5
:1010700002E01C39086000BF207800F0040004285A
:1010800003D194F854008C490860207800F01000D7
:10109000102809D184480830006820F44000E16A33
:1010A0000843814908310860207800F0200020289A
:1010B0000FD17D480830006820F00060216B0843A4
:1010C000794908310860206BB0F1006F01D14FF011
:1010D0000108207800F04000402809D1724808300B
:1010E000006820F08050A16A08436F490831086009
:1010F000B8F1010F02D0206880287DD100206F490F
:101100008866FFF783FA054606E0FFF77FFA401B83
:10111000022801D903204EE763488C380068C0F3E9
:10112000C0600028F1D16649206D0860207800F089
:10113000010008B1E069D0B1207800F00200022877
:1011400001D1206A98B1207800F02000202803D136
:10115000206BB0F1006F0AD0207800F040004028EA
:1011600012D1A06A80B9206BB0F1006F0CD1D4E924
:10117000011041EA8011207B41EA0061207C41EAB4
:101180000070494908390860208800F40050B0F523
:10119000005F01D1A06C38B1208800F48040B0F528
:1011A000804F1BD1E06CC8B93F4808380068C0F3D5
:1011B0000367D4E9011041EA801040EA0761207C0E
:1011C00041EA00703849083908603748006820F063
:1011D0001F00A169491E084333490860207800F0C8
:1011E000800080280ED1D4E9011041EA8011207BD3
:1011F00041EA0061207C00E019E041EA00702A49E0
:101200000839086001202D498866FFF7FFF9054677
:1012100006E0FFF7FBF9401B022801D90320CAE6CC
:1012200021488C380068C0F3C0600028F1D02088C5
:1012300000F48070B0F5807F07D11B48006820F073
:101240000040616B084318490860208800F4007072
:10125000B0F5007F07D11448006820F40040A16B6E
:10126000084311490860208800F48060B0F5806F61
:1012700007D10D48006820F00040E16B08430A499F
:101280000860208800F40060B0F5006F07D10648C0
:10129000006820F48040216C0843034908602088DE
:1012A00000F480500EE000008C38024000700040D6
:1012B000400E4742FFFCFF0FE0114742000047424B
:1012C000D8104742B0F5805F07D10548006820F08C
:1012D0004040616C08430249086000206BE6000052
:1012E0009438024070B504460D460CB9012070BD1B
:1012F0005848006800F00F00A84209D255490D7007
:101300000846006800F00F00A84201D00120EEE777
:10131000207800F0020002281DD1207800F004009F
:10132000042805D14C48006840F4E0504A49086060
:10133000207800F00800082805D14748006840F4EC
:101340006040454908604448006820F0F000A1680A
:10135000084341490860207800F00100A8B36068A4
:10136000012807D13C4808380068C0F34040B8B9AC
:101370000120BCE76068022802D06068032807D11A
:10138000354808380068C0F3406048B90120AEE72E
:10139000314808380068C0F3400008B90120A6E7CA
:1013A0002D48006820F00300616808432A4908605E
:1013B000FFF72CF9064609E0FFF728F9801B41F2F8
:1013C0008831884202D9032091E707E0224800686B
:1013D00000F00C006168B0EB810FEDD11D48006892
:1013E00000F00F00A84209D91A490D70084600689C
:1013F00000F00F00A84201D0012078E7207800F02B
:101400000400042807D11448006820F4E050E16883
:10141000084311490860207800F00800082808D126
:101420000D48006820F46040216940EAC1000A4983
:10143000086000F03FF808490968C1F30311074A42
:10144000515CC8400649086006480068FFF778FC10
:1014500000204CE7003C0240083802405078000869
:10146000740000206C0000200148006870470000F4
:101470007400002000B5FFF7F7FF04490968C1F3C5
:101480008221034A515CC84000BD00000838024078
:101490006078000800B5FFF7E7FF04490968C1F369
:1014A0004231034A515CC84000BD00000838024088
:1014B000607800082DE9F047002400250026A146A9
:1014C0002548006800F00C0020B1042805D0082849
:1014D0003AD105E0DFF8849039E0DFF8849036E017
:1014E0001D48001F006800F03F041B48001F0068F3
:1014F00000F4800078B11A481749091F0968C1F340
:101500008811A0FB01700146224600233846FEF7F1
:101510007FFE05460EE011480F49091F0968C1F317
:101520008811A0FB01700146224600233846FEF7D1
:101530006FFE05460848001F0068C0F30140401CCC
:101540004600B5FBF6F902E0DFF8109000BF00BFDF
:101550004846BDE8F0870000083802400024F40047
:1015600000127A00F8B504460025207800F001004A
:10157000002874D0F748006800F00C0004280DD053
:10158000F448006800F00C00082813D1F148001F4F
:10159000006800F48000B0F5800F0BD1ED480838EA
:1015A0000068C0F34040002859D06068002856D138
:1015B0000120F8BD00BF6068B0F5803F08D1E54864
:1015C0000838006840F48030E249083908601EE0BD
:1015D0006068B0F5A02F0DD1DE480838006840F4EF
:1015E0008020DC49083908600846006840F48030F3
:1015F00008600CE0D7480838006820F48030D549EE
:10160000083908600846006820F48020086000BFA0
:10161000606890B1FEF7FAFF054606E0FEF7F6FFB8
:10162000401B642801D90320C3E7CA480838006872
:10163000C0F340400028F1D011E0FEF7E7FF054677
:1016400006E0FEF7E3FF401B642801D90320B0E762
:10165000C04808380068C0F340400028F1D1207825
:1016600000F0020002285FD1BA48006800F00C00C8
:1016700058B1B848006800F00C0008281CD1B548E3
:10168000001F006800F48000B0B9B2480838006854
:10169000C0F3400020B1E068012801D0012088E7B4
:1016A000AC480838006820F0F800216940EAC10021
:1016B000A8490839086037E0E06800B30120A6496E
:1016C0000860FEF7A3FF054606E0FEF79FFF401BFC
:1016D000022801D903206CE79E4808380068C0F34F
:1016E00040000028F1D09B480838006820F0F8003E
:1016F000216940EAC10097490839086014E00020D8
:1017000095490860FEF782FF054606E0FEF77EFF7A
:10171000401B022801D903204BE78E480838006897
:10172000C0F340000028F1D1207800F0080008281C
:101730002CD16069A8B1012088490860FEF766FFD6
:10174000054606E0FEF762FF401B022801D9032090
:101750002FE780486C300068C0F340000028F1D0CB
:1017600014E000207D490860FEF750FF054606E0C2
:10177000FEF74CFF401B022801D9032019E77548EA
:101780006C300068C0F340000028F1D1207800F0F0
:101790000400042870D100266E483830006800F03C
:1017A000805090B900BF002000906A48383000682F
:1017B00040F080506749383108600846006800F002
:1017C0008050009000BF00BF01266548006800F40B
:1017D0008070B0B96248006840F480706049086069
:1017E000FEF714FF054606E0FEF710FF401B022837
:1017F00001D90320DDE65A48006800F48070002813
:10180000F2D000BFA068012808D1524868300068B3
:1018100040F001004F49683108601DE0A0680528CC
:101820000DD14C486830006840F0040049496831E7
:1018300008600846006840F0010008600CE0454878
:101840006830006820F001004249683108600846AD
:10185000006820F00400086000BFA068A8B1FEF78F
:10186000D5FE054609E0FEF7D1FE401B41F2883166
:10187000884202D903209CE626E03648683000689A
:10188000C0F340000028EED013E0FEF7BFFE05468F
:1018900008E0FEF7BBFE401B41F28831884201D9C7
:1018A000032086E62B4868300068C0F3400000281B
:1018B000EFD1012E07D127483830006820F0805042
:1018C00024493831086000BFA069D8B321480068B6
:1018D00000F00C00082861D0A069022849D100203E
:1018E0001D490866FEF792FE054606E0FEF78EFEED
:1018F000401B022801D903205BE61648083800681F
:10190000C0F340600028F1D1D4E907010843616ABF
:1019100040EA81110122A06AC2EB500041EA004175
:101920002C20005D41EA00613020005D41EA00703A
:101930000849091F0860012007490866FEF766FE8E
:1019400005460FE02CE0FEF761FE401B022809D996
:1019500003202EE60838024000004742800E47422E
:10196000007000400F480068C0F340600028EAD0D3
:1019700016E000200C490866FEF748FE054606E022
:10198000FEF744FE401B022801D9032011E605485A
:101990000068C0F340600028F2D101E0012008E6B1
:1019A000002006E6003802400000474270B50446B9
:1019B0002546681EB0F1807F01D301200FE0681E2C
:1019C0004FF0E02148610F214FF0FF3004F080FA22
:1019D00000204FF0E021886107200861002070BDE1
:1019E00010B504460CB9012010BDA06900B100E09B
:1019F00000BF94F8390028B9002084F83800204648
:101A000000F028F8242084F839002068C06820F409
:101A100000502168C860204601F006F9206800697E
:101A200020F49040216808612068406920F02A0075
:101A3000216848612068C06840F400502168C8608F
:101A40000020E063202084F8390084F83A00002068
:101A5000CAE7000010B586B00446142101A8FEF7BD
:101A600021FC1B492068884230D100BF0020009033
:101A70001848006840F4802016490860084600684D
:101A800000F48020009000BF00BF00BF0020009045
:101A900010481038006840F008000E4910390860FE
:101AA0000846006800F00800009000BF00BF4FF437
:101AB00040700190022002900020039003200490C7
:101AC0000720059001A90448FEF7A2FC06B010BD4E
:101AD0000048004040380240000C02402DE9F84325
:101AE00004460D4616461F464FF0000994F839008B
:101AF00020285DD105B116B90120BDE8F88300BFEB
:101B000094F83800012801D10220F6E7012084F87A
:101B1000380000BF0020E063212084F83900FEF780
:101B200075FD8146A684E68400BF002084F8380055
:101B300000BF2BE0E08C401EE084A068B0F5805F21
:101B400016D14B46002280212046009701F074FAFE
:101B500008B10320D1E7A846B8F80000C0F3080098
:101B600021684860206908B9AD1C0FE06D1C0DE0CC
:101B70004B46002280212046009701F05DFA08B113
:101B80000320BAE715F8010B21684860E08C0028B3
:101B9000D0D14B46002240212046009701F04CFA5C
:101BA00008B10320A9E7202084F839000020A4E729
:101BB0000220A2E72DE9F04705468846D5F80090B7
:101BC0004E46444606F5A06000EB4410806800F0E5
:101BD0000400042812D1042106F5A06000EB441093
:101BE000816006F5A06000EB4410C06840F002017F
:101BF00006F5A06000EB4410C16098E006F5A06017
:101C000000EB4410806800F48070B0F5807F20D134
:101C10004FF4807106F5A06000EB4410816007214D
:101C200004EB840205F1380000EBC20080F82510B7
:101C300006F5A06000EB4410C06840F0020106F514
:101C4000A06000EB4410C160E1B2286803F048FDD9
:101C50006DE006F5A06000EB4410806800F0200005
:101C6000202806D1202106F5A06000EB44108160F9
:101C70005DE006F5A06000EB4410806800F008000D
:101C8000082825D106F5A06000EB4410C06840F09C
:101C9000020106F5A06000EB4410C160052104EBD1
:101CA000840205F1380000EBC20080F825101021F5
:101CB00006F5A06000EB44108160082106F5A060E5
:101CC00000EB44108160E1B2286803F009FD2EE0CA
:101CD00006F5A06000EB4410806800F48060B0F569
:101CE000806F24D106F5A06000EB4410C06840F07E
:101CF000020106F5A06000EB4410C160E1B2286863
:101D000003F0EEFC102106F5A06000EB44108160AA
:101D1000082104EB840205F1380000EBC20080F8D2
:101D20002510C90106F5A06000EB4410816006F59E
:101D3000A06000EB4410806800F40070B0F5007FF4
:101D400017D106F5A06000EB4410C06840F0020116
:101D500006F5A06000EB4410C160E1B2286803F012
:101D6000BFFC4FF4007106F5A06000EB44108160E9
:101D700053E206F5A06000EB4410806800F001001B
:101D800000287DD02869A8B104EB840105F1380052
:101D900000EBC100016906F5A06000EB441000698A
:101DA000C0F31200091A04EB840205F1380000EBBD
:101DB000C2004161012104EB840205F1380000EB0F
:101DC000C20080F82510002104EB840205F13800E0
:101DD00000EBC2000162012106F5A06000EB441097
:101DE000816004EB840105F1380000EBC100C0798B
:101DF00040B104EB840105F1380000EBC100C0796B
:101E0000022816D106F5A06000EB4410C06840F02F
:101E1000020106F5A06000EB4410C160E1B2286841
:101E200003F05EFC102106F5A06000EB4410816019
:101E30005AE004EB840105F1380000EBC100C079E1
:101E4000032823D106F5A06000EB4410006840F0A1
:101E5000005106F5A06000EB44100160012104EB85
:101E6000840205F1380000EBC20080F8241004EB76
:101E7000840305F1380000EBC30090F8242000E053
:101E800043E0E1B22846FEF77DFC2DE004EB84013F
:101E900005F1380000EBC100C079012824D10121EF
:101EA00004EB840205F1380000EBC20080F8241036
:101EB00004EB840105F1380000EBC100007E80F0E6
:101EC000010104EB840205F1380000EBC200017649
:101ED00004EB840305F1380000EBC30090F82420E4
:101EE000E1B22846FEF74EFC04EB840105F1380010
:101EF00000EBC100007E80F0010104EB840205F1DB
:101F0000380000EBC200017687E106F5A06000EB27
:101F10004410806800F00200022871D106F5A0602C
:101F200000EB4410C06820F0020106F5A06000EB51
:101F30004410C16004EB840105F1380000EBC100DE
:101F400090F82500012809D1012104EB840205F154
:101F5000380000EBC20080F82410AEE004EB8401EE
:101F600005F1380000EBC10090F82500052809D1E3
:101F7000052104EB840205F1380000EBC20080F873
:101F800024109AE004EB840105F1380000EBC10055
:101F900090F82500062809D004EB840105F13800EB
:101FA00000EBC10090F82500082842D104EB840121
:101FB00005F1380000EBC100006A401C04EB84020C
:101FC00005F1380101EBC201086204EB840105F15F
:101FD000380000EBC100006A032812D9002104EB8D
:101FE000840205F1380000EBC2000162042104EB19
:101FF000840205F1380000EBC20080F8241009E0EB
:102000006EE0022104EB840205F1380000EBC2000F
:1020100080F8241006F5A06000EB4410076827F054
:10202000804747F0004706F5A06000EB44100760CA
:1020300043E004EB840105F1380000EBC10090F8A7
:102040002500032817D1022104EB840205F1380092
:1020500000EBC20080F8241006F5A06000EB4410ED
:10206000076827F0804747F0004706F5A06000EBBF
:102070004410076021E004EB840105F1380000EB17
:10208000C10090F82500072817D104EB840105F161
:10209000380000EBC100006A401C04EB840205F12B
:1020A000380101EBC2010862042104EB840205F14E
:1020B000380000EBC20080F82410022106F5A06071
:1020C00000EB4410816004EB840305F1380000EB61
:1020D000C30090F82420E1B22846FEF753FB9CE0B1
:1020E00006F5A06000EB4410806800F080008028B6
:1020F0002ED106F5A06000EB4410C06840F002014C
:1021000006F5A06000EB4410C16004EB840105F10A
:10211000380000EBC100006A401C04EB840205F1AA
:10212000380101EBC2010862062104EB840205F1CB
:10213000380000EBC20080F82510E1B2286803F0F7
:10214000CFFA802106F5A06000EB4410816064E0C6
:1021500006F5A06000EB4410806800F01000102825
:102160005BD104EB840105F1380000EBC100C079BC
:10217000032818D1002104EB840205F1380000EB9C
:10218000C200016206F5A06000EB4410C06840F098
:10219000020106F5A06000EB4410C160E1B22868BE
:1021A00003F09EFA33E004EB840105F1380000EB04
:1021B000C100C07940B104EB840105F1380000EBA7
:1021C000C100C079022822D1002104EB840205F16C
:1021D000380000EBC20001622869C0B9032104EB9A
:1021E000840205F1380000EBC20080F8251006F5E6
:1021F000A06000EB4410C06840F0020106F5A0604A
:1022000000EB4410C160E1B2286803F069FA1021C4
:1022100006F5A06000EB44108160BDE8F0872DE971
:10222000F04705460F46D5F800904E463C4606F569
:10223000A06000EB4410806800F00400042812D174
:10224000042106F5A06000EB4410816006F5A06053
:1022500000EB4410C06840F0020106F5A06000EBFE
:102260004410C1607EE206F5A06000EB4410806877
:1022700000F02000202830D1202106F5A06000EBDE
:102280004410816004EB840105F1380000EBC100CB
:1022900040790128E6D1002104EB840205F13800E1
:1022A00000EBC2004171022104EB840205F1380009
:1022B00000EBC20080F8241006F5A06000EB44108B
:1022C000C06840F0020106F5A06000EB4410C16058
:1022D000E1B2286803F004FA44E206F5A06000EBDE
:1022E0004410806800F0400040282FD1042104EB06
:1022F000840205F1380000EBC20080F825100121AE
:1023000004EB840205F1380000EBC20041710021AA
:1023100004EB840205F1380000EBC200016206F50F
:10232000A06000EB4410C06840F0020106F5A06018
:1023300000EB4410C160E1B2286803F0D1F94021FC
:1023400006F5A06000EB441081600BE206F5A0608A
:1023500000EB4410806800F40070B0F5007F17D1E6
:1023600006F5A06000EB4410C06840F0020106F5DD
:10237000A06000EB4410C160E1B2286803F0B0F93E
:102380004FF4007106F5A06000EB44108160E9E1B4
:1023900006F5A06000EB4410806800F0010030B347
:1023A000002104EB840205F1380000EBC200016259
:1023B00006F5A06000EB4410C06840F0020106F58D
:1023C000A06000EB4410C160E1B2286803F088F916
:1023D000012106F5A06000EB4410816004EB84024B
:1023E00005F1380000EBC20080F82510BAE106F5CF
:1023F000A06000EB4410806800F0080008281FD19E
:10240000082106F5A06000EB4410816006F5A0608D
:1024100000EB4410C06840F0020106F5A06000EB3C
:102420004410C160E1B2286803F05AF9052104EBB9
:10243000840205F1380000EBC20080F8251091E11C
:1024400006F5A06000EB4410806800F01000102832
:102450003FD1002104EB840205F1380000EBC200FB
:102460000162032104EB840205F1380000EBC20095
:1024700080F8251004EB840105F1380000EBC10061
:10248000407978B904EB840105F1380000EBC10014
:10249000007938B9012104EB840205F1380000EB22
:1024A000C200417106F5A06000EB4410C06840F026
:1024B000020106F5A06000EB4410C160E1B228689B
:1024C00003F00EF9102106F5A06000EB44108160C6
:1024D00048E106F5A06000EB4410806800F0800041
:1024E00080281FD106F5A06000EB4410C06840F0C2
:1024F000020106F5A06000EB4410C160E1B228685B
:1025000003F0EEF8062104EB840205F1380000EB3D
:10251000C20080F82510802106F5A06000EB441071
:1025200081601FE106F5A06000EB4410806800F4B4
:102530008060B0F5806F25D106F5A06000EB4410F7
:10254000C06840F0020106F5A06000EB4410C160D5
:10255000E1B2286803F0C4F8102106F5A06000EB92
:1025600044108160890106F5A06000EB4410816091
:10257000082104EB840205F1380000EBC20080F86A
:102580002510EFE006F5A06000EB4410806800F035
:10259000020002289CD106F5A06000EB4410C06840
:1025A00020F0020106F5A06000EB4410C16004EBCE
:1025B000840105F1380000EBC10090F825000128E6
:1025C0002BD1012104EB840205F1380000EBC2009D
:1025D00080F8241004EB840105F1380000EBC10001
:1025E000C079022808D004EB840105F1380000EB23
:1025F000C100C07903280FD104EB840105F1380034
:1026000000EBC100407E80F0010104EB840205F183
:10261000380000EBC200417692E004EB840105F142
:10262000380000EBC10090F82500032809D10221F1
:1026300004EB840205F1380000EBC20080F824109E
:102640007EE004EB840105F1380000EBC10090F856
:102650002500042809D1022104EB840205F1380089
:1026600000EBC20080F824106AE004EB840105F15D
:10267000380000EBC10090F82500052809D105219C
:1026800004EB840205F1380000EBC20080F824104E
:1026900056E004EB840105F1380000EBC10090F82E
:1026A0002500062809D004EB840105F1380000EB71
:1026B000C10090F82500082842D104EB840105F1FF
:1026C000380000EBC100006A401C04EB840205F1F5
:1026D000380101EBC201086204EB840105F1380006
:1026E00000EBC100006A032811D9002104EB840229
:1026F00005F1380000EBC2000162042104EB840202
:1027000005F1380000EBC20080F8241008E0022137
:1027100004EB840205F1380000EBC20080F82410BD
:1027200006F5A06000EB4410D0F8008028F0804847
:1027300048F0004806F5A06000EB4410C0F80080A7
:10274000022106F5A06000EB4410816004EB8403D5
:1027500005F1380000EBC30090F82420E1B22846D0
:10276000FEF710F8BDE8F0877CB5044626683546CC
:10277000D5F840040190D5F840040090009820F06E
:102780002E000090019800F0020002280AD1019862
:1027900000F0010010B12046FDF73EFF009840F028
:1027A00002000090019800F0080008282AD1009843
:1027B00040F008000090019800F0040004281ED1A9
:1027C000A06902280FD1019800F4C020B0F5802F35
:1027D00004D10221206803F087FA0CE0012120686F
:1027E00003F082FA07E0E068012804D14EF6602188
:1027F00040F2044041512046FEF731FA02E0204603
:10280000FEF726FA019800F02000202803D1009856
:1028100040F0200000900098C5F840047CBD000006
:102820002DE9F05F0546D5F800A057462868D0F896
:10283000208008F00F04C8F3434BC8F30A16BBF11D
:10284000020F09D0BBF1030F66D0BBF1050F61D0B9
:10285000BBF1070F5FD160E0002E5AD004EB84017A
:1028600005F1380000EBC100C068E8B3B2B204EB78
:10287000840C05F1380303EBCC03D968286803F016
:102880005AFA04EB840105F1380000EBC100C0687E
:10289000811904EB840205F1380000EBC200C1602D
:1028A00004EB840105F1380000EBC1004069811997
:1028B00004EB840205F1380000EBC200416107F52A
:1028C000A06000EB441000691649084060B107F5AC
:1028D000A06000EB4410D0F8009029F0804949F046
:1028E000004907F5A06000E013E000EB4410C0F8D9
:1028F000009004EB840105F1380000EBC100007E7C
:1029000080F0010104EB840205F1380000EBC20005
:10291000017603E002E000BF00BF00BF00BFBDE8DA
:10292000F09F00000000F81F00BFFEE710B503494C
:102930000348FDF726FD0349087010BD0100002083
:102940003C7800080000002000B587B0142102A8E0
:10295000FDF7A8FC00BF002001904848006840F047
:102960000400464908600846006800F00400019031
:1029700000BF00BF00BF002001900846006840F083
:10298000800008600846006800F08000019000BFE9
:1029900000BF00BF002001900846006840F0020020
:1029A00008600846006800F00200019000BF00BF08
:1029B00000BF002001900846006840F00800086051
:1029C0000846006800F00800019000BF00BF00BF8B
:1029D000002001900846006840F04000086008466A
:1029E000006800F04000019000BF00BF00BF002061
:1029F00001900846006840F0010008600846006841
:102A000000F00100019000BF00BF002244F28101EC
:102A10001B48FDF7F5FD002240211A48FDF7F0FDA7
:102A20004FF400500290184803900020049002A92F
:102A30001648FDF7EDFC44F281000290012003905E
:102A400000200490059002A90D48FDF7E1FC40200C
:102A500002900120039000200490059002A90948EB
:102A6000FDF7D6FC8020029000200390049002A97C
:102A70000448FDF7CDFC07B000BD0000303802402F
:102A8000000402400018024000001110000802403B
:102A900010B50B480B4908604FF4E1304860002145
:102AA00008488160C16001610C21416100218161A0
:102AB000C161FEF795FF08B1FDF762FC10BD000093
:102AC00000480040A800002010B501220A490B4828
:102AD00000F0ECFE08B1FDF753FC0949074802F08D
:102AE000A7FB08B1FDF74CFC044802F00AFC08B152
:102AF000FDF746FC10BD000019530008E800002057
:102B00008000002010B5024802F02EFA10BD00002F
:102B1000E800002000BFFEE77047000010B5024843
:102B2000FDF749FF10BD0000640A002070477047A0
:102B300010B5FEF7DBF810BD00B5A9B034211CA814
:102B4000FDF7B0FB142117A8FDF7ACFB582101A835
:102B5000FDF7A8FB00BF002000902A48006840F065
:102B60008050284908600846006800F080500090B6
:102B700000BF00BF00BF002000902348006840F461
:102B80004040214908600846006800F44040009039
:102B900000BF00BF01201C904FF4A0201D90022018
:102BA000229041051CA8C161082101624FF4C07147
:102BB0004162042181620821C16202210163FEF7A2
:102BC000D1FC08B1FDF7DCFB0F2017900220189014
:102BD000002019904FF480501A9000201B90032180
:102BE00017A8FEF77FFB08B1FDF7CAFB2020019074
:102BF00000200D9001A8FEF74FF908B1FDF7C0FBCA
:102C000029B000BD4038024000700040054800680F
:102C100040F47000034908604FF0006001498039BA
:102C20000860704788ED00E02DE9F84F0446206801
:102C3000006920F44050E168084321680861216977
:102C4000A068084361690843E1690843009020686F
:102C5000C06849F20C618843009908432168C86044
:102C60002068406920F44070A169084321684861E8
:102C7000E069B0F5004F7DD1EB49206888420BD068
:102C8000EA492068884207D0E9492068884203D091
:102C9000E849206888426FD1FEF7FCFB814602209C
:102CA0006168A0FB01510B461920A9FB00712A465F
:102CB0003846FDF7ADFA6421B0FBF1F04FEA001A97
:102CC00002206168A0FB01510B461920A9FB00718D
:102CD0002A463846FDF79CFA074602206168A0FBA9
:102CE00001510B461920A9FB00B12A465846FDF7B1
:102CF0008FFA6421B0FBF1F000EBC00101EB001092
:102D0000A7EB8000322101EBC0006421B0FBF1F0A1
:102D100000F0F8000AEB400A02206168A0FB0151B4
:102D20000B461920A9FB00712A463846FDF770FAB8
:102D3000074602206168A0FB01510B461920A9FB40
:102D400000B12A465846FDF763FA6421B0FBF1F062
:102D500000EBC00101EB0010A7EB8000322101EB7A
:102D6000C0006421B0FBF1F000F00700504421687E
:102D7000886057E16EE0FFE7FEF77CFB81460220AA
:102D80006168A0FB01510B461920A9FB00712A467E
:102D90003846FDF73DFA6421B0FBF1F04FEA001A26
:102DA00002206168A0FB01510B461920A9FB0071AC
:102DB0002A463846FDF72CFA074602206168A0FB38
:102DC00001510B461920A9FB00B12A465846FDF7D0
:102DD0001FFA6421B0FBF1F000EBC00101EB001021
:102DE000A7EB8000322101EBC0006421B0FBF1F0C1
:102DF00000F0F8000AEB400A02206168A0FB0151D4
:102E00000B461920A9FB00712A463846FDF700FA47
:102E1000074602206168A0FB015003461920A9FB68
:102E200000B12A465846FDF7F3F96421B0FBF1F0F2
:102E300000EBC00101EB0010A7EB8000322101EB99
:102E4000C0006421B0FBF1F000F00700504421689D
:102E50008860E7E07449206888420BD07349206895
:102E6000884207D072492068884203D0714920689F
:102E700088426BD1FEF70EFB814604206168A0FBFF
:102E800001510B461920A9FB00712A463846FDF76F
:102E9000BFF9824604206168A0FB01500346192057
:102EA000A9FB00712A463846FDF7B2F96421B0FB50
:102EB000F1F000EBC00101EB0010AAEB8000322121
:102EC00001EB00106421B0FBF1F000F0F00A0420E7
:102ED0006168A0FB015003461920A9FB00712A4636
:102EE0003846FDF795F96421B0FBF1F00AEB001AC2
:102EF00004206168A0FB01510B461920A9FB007159
:102F00002A463846FDF784F9074604206168A0FB8D
:102F1000015003461920A9FB00B12A465846FDF787
:102F200077F96421B0FBF1F000EBC00101EB001078
:102F3000A7EB8000322101EB00106421B0FBF1F01F
:102F400000F00F005044216888606BE0FEF792FAB1
:102F5000814604206168A0FB015003461920A9FBAB
:102F600000712A463846FDF753F98246042061680D
:102F7000A0FB015003461920A9FB00712A463846E0
:102F8000FDF746F96421B0FBF1F000EBC00101EB65
:102F90000010AAEB8000322101EB00106421B0FB8D
:102FA000F1F000F0F00A04206168A0FB0150034634
:102FB0001920A9FB007001462A463846FDF728F97A
:102FC0006421B0FBF1F00AEB001A04206168A0FB59
:102FD000017003461920A9FB00513A462846FDF727
:102FE00017F9074604206168A0FB01500346192029
:102FF000A9FB00B12A465846FDF70AF96421B0FB47
:10300000F1F000EBC00101EB0010A7EB80003221D2
:1030100001EB00106421B0FBF1F000F00F00504410
:1030200021688860BDE8F88F00100140001401405D
:1030300000180140001C01402DE9F04104460D46F6
:1030400017469846069E21E0701CF8B12EB1FDF798
:10305000DDFAA0EB0800B04218D92068C06820F45F
:10306000D0702168C8602068406920F001002168A4
:103070004861202084F8390084F83A0000BF00201D
:1030800084F8380000BF0320BDE8F08120680068A4
:103090002840A84201D1012000E00020B842D3D04E
:1030A0000020F1E770B506460D46304600F029F9DC
:1030B00004464FF6FF70844207D045F4004104F007
:1030C0000F0206F5617040F82210E0B270BD2DE9E4
:1030D000FF4107460C4615461E46002001210223EB
:1030E0000A468DE8320003903146384600F03FFD35
:1030F000002004B0BDE8F0812DE9FF4104460D46F3
:1031000017461E46DDF8288094F81D0308B14FF0DD
:10311000000801200223002231468DE8A10120464B
:1031200000F025FD002004B0BDE8F08170B5044634
:103130000D462946204600F0DDFB002070BD70B52D
:1031400004460D46A078012807D1022121740121EF
:10315000617400216182A582E1820022114620462D
:1031600000F016F870BD2DE9FF4107460C461546E4
:103170001E460020012103460A468DE832000390D6
:103180003146384600F0F3FC002004B0BDE8F08181
:103190002DE9F04104460E4617460125A078012886
:1031A00002D0022819D107E0A660A781012121766B
:1031B0000220A070012511E0204600F01EF905460E
:1031C0000DB1032D04D10120A0700021217603E070
:1031D000022D01D10120A07000E000BF00BF2846F1
:1031E000BDE8F0812DE9FF4104460D4617461E4615
:1031F000DDF8288094F81D0308B14FF00008012085
:1032000000231A4631468DE8A101204600F0AFFCAC
:10321000002004B0BDE8F0817FB506460C46154697
:1032200000200821CDE9000403460246CDE9021042
:103230002946304600F09BFC002004B070BD10B55C
:1032400004462046FDF7D0F810BDF0B506460C4602
:1032500015460022002106F54E771AE002EB8200A7
:1032600000EBC20C07F10A0000EB4C014879A042C8
:1032700001D0FF2C0BD18879A84201D0FF2D06D1B7
:10328000C879984201D0FF2B01D11046F0BD501CE7
:10329000C2B2022AE2D3FF20F8E702460B2909D284
:1032A00002F5617030F82100C0F30E0302F5617081
:1032B00040F82130002070472DE9F04104460E46C9
:1032C00015461F46DDF81880A078012812D146F077
:1032D0008001217406216174658205F47F40B0F598
:1032E000407F03D140F20941A18201E00021A18287
:1032F000A4F81680424639462046FFF749FFBDE84C
:10330000F0810246002100BF0AE002F5617030F84A
:10331000210000F4004008B908467047481CC1B2BB
:103320000B29F2D34FF6FF70F7E710B502460B8872
:10333000147823440B801378981810BDF8B5044610
:103340000D4604F11C0633464FF40072002120465E
:103350000095FFF7B1FF071E05D12A46314604F557
:103360004E7001F02AFD3846F8BDF8B504460D460A
:1033700004F58E734FF48072002120460095FFF70C
:103380009BFF061E06D12A4604F58E7104F22630F4
:1033900001F080FD3046F8BD2DE9F84304460E46A5
:1033A00017461D4646F4407204F58E7300212046F0
:1033B0000095FFF781FFB0F1000805D12A46394694
:1033C00004F58E7001F0B5FD4046BDE8F883014676
:1033D000002031B1012906D0022906D0032908D1E5
:1033E00005E0002007E0022005E0012003E00220C4
:1033F00001E0022000BF00BF7047F8B50446012776
:103400000025207E0C286FD2DFE800F0DD060F32A9
:103410003E505E7A869AA8BD627904F1100120467A
:10342000FFF7FAFE02212176CEE06179204600F016
:10343000E9FA0546012D14D1207C00F08006E08ACF
:1034400038B1802E02D10321217610E005212176AA
:103450000DE0802E02D10921217608E00721217696
:1034600005E0042D01D0022D01D10B212176ABE026
:10347000D4F8C403E0812379A2892046A168FFF72C
:1034800072FE042121769FE02179204600F0BAFAED
:103490000546012D01D109212176052D01D10327F2
:1034A00003E0042D01D10B2121768DE00120009055
:1034B0006379A2892046A168FFF794FED4F8C4037B
:1034C000E081062121767FE06179204600F09AFABA
:1034D0000546012D02D10721217610E0052D04D1EA
:1034E0000C21217603270AE06DE0022D02D105218F
:1034F000217604E0042D02D10B212176022763E01E
:103500002379002211462046FFF72DFED4F8C4038C
:10351000E0810821217657E02179204600F072FAF7
:103520000546012D03D10D212176002707E0042D4A
:1035300002D10B21217602E0052D00D1032743E0C3
:10354000012000906379002211462046FFF74AFED1
:10355000D4F8C403E0810A21217635E06179204660
:1035600000F050FA0546012D03D100270D212176E8
:1035700008E0022D02D10921217603E0042D01D1BA
:103580000B21217620E0607E401CC1B261760229C9
:1035900004D8012121760120A07013E006212046E5
:1035A000D4F8D42390470021617600BF00BF617931
:1035B0002046FFF772FE21792046FFF76EFE0020BD
:1035C0002070022700E000BF00BF3846F8BDFEB5FE
:1035D0000446012601256078082874D2DFE800F04F
:1035E000044874ABD2FDEFEE08212046FFF7BDFE84
:1035F000054605BB94F82D13A17101206070A079D8
:10360000002294F81D13CDE90012029094F81C33A7
:1036100021798022204601F0BBFBA079002294F89A
:103620001D13CDE90012029094F81C3361792046F5
:1036300001F0AEFB1BE0032D19D100BF00BF94F8D1
:103640001E03401C84F81E0394F81E03032804D9AB
:1036500000BF00BF0D20207009E061792046FFF710
:103660001CFE21792046FFF718FE002020700CE197
:1036700012212046FFF779FE054635B900BF00BF8D
:1036800000BF00BF022060701CE0032D1AD100BFF4
:1036900000BF94F81E03401C84F81E0394F81E0318
:1036A000032804D900BF00BF0D2020700AE0617913
:1036B0002046FFF7F2FD21792046FFF7EEFD0020BE
:1036C00060702070E1E0DFE00121204601F0DDFDC7
:1036D00005462DBB0220FFF7B2FD012184F81C1323
:1036E00000BF00BF03206070A079002294F81D1372
:1036F000CDE90012029094F81C33217980222046F3
:1037000001F046FBA079002294F81D13CDE90012C8
:10371000029094F81C336179204601F039FB09E0EE
:10372000032D07D100BF00BF00BF00BF0D202070D8
:1037300000206070A9E009212046FFF7FFFD054643
:1037400015B9042060701CE0032D1AD100BF00BF22
:1037500094F81E03401C84F81E0394F81E030328EB
:1037600004D900BF00BF0D2020700AE06179204617
:10377000FFF793FD21792046FFF78FFD0020607051
:10378000207082E0B4F83A132046FFF7D7FD0546D3
:1037900015B9052060701FE0032D1DD100BF00BFCB
:1037A00094F81E03401C84F81E0394F81E0303289B
:1037B00007D900BF00BF0D2020700DE049E02AE0CE
:1037C0000BE061792046FFF768FD21792046FFF77D
:1037D00064FD00206070207057E094F83403A8B1B5
:1037E00094F83413FF2304F58E722046FFF7D4FDBE
:1037F000054625B900BF00BF062060700AE0032D12
:1038000008D100BF00BF0620607003E000BF00BF0A
:103810000620607039E094F83503A8B194F83513A8
:10382000FF2304F58E722046FFF7B6FD054625B945
:1038300000BF00BF072060700AE0032D08D100BF61
:1038400000BF0720607003E000BF00BF072060706A
:103850001BE094F8360398B194F83613FF2304F56F
:103860008E722046FFF798FD05461DB900BF00BFC8
:10387000002608E0032D06D100BF00BF002602E0AD
:1038800000BF00BF002600E000BF00BF3046FEBD05
:1038900010B5044620780B2807D1D4F87C0320B15A
:1038A000D4F87C0381692046884710BD70B5044672
:1038B0000D4616461CB900BF00BF022070BD84F83B
:1038C000CC630020C4F87C03C4F880032046FCF7D6
:1038D00027FD002184F8231384F8201384F8211392
:1038E00084F822130DB1C4F8D453204600F09EF89A
:1038F0000020E3E72DE9F04104460D4600260027AD
:103900002946D4F8D003FCF7B4FE06463046FFF74C
:103910005EFD07463846BDE8F0810146012281F888
:103920002023002281F8212381F8222300207047E0
:1039300010B50446012184F82113002184F82013D6
:1039400084F82313204600F003F921792046FFF77D
:10395000A4FC61792046FFF7A0FC002010BD000008
:1039600070B504460D4694F8CC03012804D1012219
:1039700040210448FCF744FEC820FCF735FD002038
:1039800070BD00000018024070B504460D4629467F
:10399000D4F8D003FCF764FE70BD70B50446012571
:1039A000D4F8D003FCF74CFE20B1012804D0022843
:1039B00006D103E0002505E0012503E0022501E032
:1039C000012500BF00BF284670BD30B5034600206A
:1039D000D3F8D02301EB810502F1380404EBC504D0
:1039E000E4783CB101EB810502F1380404EBC50435
:1039F000207E06E001EB810502F1380404EBC504EA
:103A0000607E30BD70B504460D462946D4F8D0031B
:103A1000FCF71CFE70BD10B50446D4F8C403401C6E
:103A2000C4F8C4032046FFF733FF10BD70B5044649
:103A300094F8CC03012820D11148C0F8C042C4F842
:103A4000D0034FF0A0400E4908600C210C48816063
:103A50000121C16000210161022181610121C16157
:103A6000FDF75EF808B1FCF78BFC0548FCF7E2FDBA
:103A700005462946204600F03CF8002070BD0000B5
:103A8000640A00202DE9FF5F04460D4616461F46D6
:103A9000DDE90F9ADDF838804FF0000B002003902D
:103AA0008DE800073B4632462946D4F8D003FCF7A0
:103AB000FAFD83465846FFF78AFC0390039804B04A
:103AC000BDE8F09F002280F823237047012280F890
:103AD0002323704770B5044600250026D4F8D00390
:103AE000FDF7C4F805462846FFF771FC0646304648
:103AF00070BDC0F8C413704730B50446D4F8D03355
:103B000001EB810503F1380000EBC500C07838B146
:103B100001EB810503F1380000EBC500027606E0F9
:103B200001EB810503F1380000EBC500427600206F
:103B300030BD70B5044600250026D4F8D003FDF74B
:103B4000A2F805462846FFF742FC0646304670BDFF
:103B500070B5044600250026D4F8D003FDF7AEF872
:103B600005462846FFF733FC0646304670BD2DE972
:103B7000F04F87B004460D4616461F46DDE912ABEE
:103B8000DDE910890020069005908DE8000F3B4686
:103B900032462946D4F8D003FCF7F5FD0690069886
:103BA000FFF715FC0590059807B0BDE8F08F2DE9EB
:103BB000F0410446884615460227D4F87C03C669BE
:103BC00015B1012D0CD105E0F1792046FFF7B7FAC8
:103BD000074606E0B1792046FFF7B1FA074600E054
:103BE00000BF00BF3846BDE8F08100000246D2F8B1
:103BF0007C03C169054B4B65054B8B65012381F83F
:103C0000503081F852300020704700005553424335
:103C1000504030202DE9F84F074688464FF0010903
:103C20000126B2460025D7F87C03C469AB4694F858
:103C300050000C2874D2DFE800F07306153C47747E
:103C400081B5C0DFF2F084F86180022184F8501061
:103C50000120009063791F2204F154013846FFF7D8
:103C60004BFA0AE161793846FFF7CCFE0546012D93
:103C700013D1E06D68B194F8600000F080008028F6
:103C800003D1032184F8501012E0052184F850106C
:103C90000EE0072184F850100AE0022D03D1012123
:103CA00084F8501004E0052D02D10A2184F8501048
:103CB000E3E0237962898C2001593846FFF707FA3F
:103CC000042184F85010D8E021793846FFF79AFE95
:103CD0000546012D1ED16189E06D88420AD98C20EC
:103CE0000059618901448C2001516189E06D411ABC
:103CF000E16501E00021E165E06D38B12379628979
:103D00008C2001593846FFF7E2F908E0072184F8D2
:103D1000501004E0052D02D1092184F85010ACE0C8
:103D2000AAE001200090637922898C20015938464D
:103D3000FFF7E2F9062184F850109EE061793846D9
:103D4000FFF760FE0546012D20D12189E06D8842F4
:103D50000AD98C200059218901448C2001512189E4
:103D6000E06D411AE16501E00021E165E06D48B1D7
:103D700001200090637922898C2001593846FFF791
:103D8000BBF90EE0072184F850100AE0022D03D1A0
:103D9000052184F8501004E0052D02D10A2184F891
:103DA00050106AE023790D2204F178013846FFF7BC
:103DB0008EF9082184F850105FE021793846FFF72A
:103DC00021FE0546012D11D1012184F8501084F8FF
:103DD0005210384600F0C6F88246BAF1000F02D100
:103DE0004FF0000907E04FF0020904E0052D02D171
:103DF000092184F8501040E0002241463846FFF780
:103E0000D6FE06461EB9072184F8501004E0042EA1
:103E100002D10B2184F850102FE022E0FFE70122AD
:103E200041463846FFF7C3FE0646A6B961793846D3
:103E3000FFF7CBFD8346CBF10100C2B26179384672
:103E4000FFF75AFE217900223846FFF755FE092177
:103E500084F8501004E0042E02D10B2184F8501095
:103E60000BE0384600F01FF88146B9F1000F02D18F
:103E7000012184F8501000E000BF00BF4846BDE8B3
:103E8000F88F70B504460D46A1212174FE2161749E
:103E900000216182A1820121E1820122294620467E
:103EA000FFF776F970BD10B5044621212174FF217A
:103EB000617400216182A182E182002211462046C4
:103EC000FFF766F910BD2DE9F0410746D7F87C03EE
:103ED000C4690126A07B20B1022803D003283BD16E
:103EE00032E000BF21463846FFF7CBFF0646032EDF
:103EF00002D10020207000262EBB2078022801D994
:103F0000022001E02078401C207000BF00BF002587
:103F100016E0022105EB850000EBC50204F19000DC
:103F200000EB82008170002105EB850000EBC502EB
:103F300004F1900000EB820080F83110681CC5B2DB
:103F40002078A842E5DC08E000213846FFF7F7F8C2
:103F500008B9E07BA07300E000BF00BF3046BDE8B9
:103F6000F081000070B50546D5F87C03C4690126D0
:103F700021792846FFF708FD0D2801D0022619E017
:103F80000D49A06F884214D1E16FA06D814211D11B
:103F900094F8840008B900260CE094F88400012805
:103FA00001D1012606E094F88400022802D10226FD
:103FB00000E00226304670BD555342532DE9F041D2
:103FC00004460D461646D4F87C03C76920780B28B2
:103FD0000ED105EB850000EBC50207F1900000EB68
:103FE000820134223046FCF744F90020BDE8F0811C
:103FF0000220FBE770B50546D5F87C03C4696079FB
:1040000048B161792846FFF791F861792846FFF7B2
:1040100044F900206071207948B121792846FFF7E2
:1040200085F821792846FFF738F900202071D5F866
:104030007C03C06940B1D5F87C13C86902F0AEFFBB
:104040000020D5F87C13C861002070BDFEB5054680
:10405000D5F87C030179502306222846FFF7F5F8AE
:104060000646FF2E01D0022E03D300BF00BF022060
:10407000FEBD3146284601F0F4F807460FB1022094
:10408000F6E74FF4807003F023F9D5F87C13C8618C
:10409000D5F87C03C4691CB900BF00BF0220E7E764
:1040A0004FF480712046FCF7FDF806EB860000EB2C
:1040B000C60105F2423000EB4100007B00F08000B9
:1040C000A0B106EB860000EBC60105F2423000EB22
:1040D0004100007BE07106EB860000EBC60105F2B3
:1040E000423000EB4100C089608113E006EB86009E
:1040F00000EBC60105F2423000EB4100007BA071ED
:1041000006EB860000EBC60105F2423000EB4100F1
:10411000C089208106EB860000EBC60105F2423023
:1041200000EB4100007D00F08000A0B106EB8600AE
:1041300000EBC60105F2423000EB4100007DE0716A
:1041400006EB860000EBC60105F2423000EB4100B1
:10415000C08A608113E006EB860000EBC60105F221
:10416000423000EB4100007DA07106EB860000EBC1
:10417000C60105F2423000EB4100C08A20810020D8
:1041800020736073A073A1792846FEF78BFF6071DE
:10419000E1792846FEF786FF20712846FFF726FDC5
:1041A0002089022295F81D13CDE90012029095F89E
:1041B0001C33A2796179284600F0EAFD6089022269
:1041C00095F81D13CDE90012029095F81C33E279A1
:1041D0002179284600F0DCFD217900222846FFF7EE
:1041E0008BFC617900222846FFF786FC00203FE720
:1041F0002DE9F0410646D6F87C03C4694FF001086A
:1042000001250127207B10B101287DD149E2B4F8B6
:10421000F8002178884278DA0121B4F8F80000EB40
:10422000800202EBC00204F1900000EB82004170BA
:10423000B4F8F80000EB800101EBC00104F190003C
:1042400010F8210009287CD2DFE800F0057B66FD2C
:1042500017FC7B7BFB0000BF00BF0421B4F8F80013
:1042600000EB800202EBC00204F1900000F8221083
:10427000D6F8C403C4F8FC0007E2B4F8F80000EB79
:10428000800303EBC00304F1900000EB830000F116
:104290000F0294F8F810304600F00FFB054685B980
:1042A00000BF00BF00BF00BF00BF00BF0221B4F8C5
:1042B000F80000EB800202EBC00204F1900000F86D
:1042C0002210022D0BD10521B4F8F80000EB80027A
:1042D00002EBC00204F1900000F822101BE0042D54
:1042E00019D10121B4F8F80000EB800202EBC00202
:1042F00004F1900000F822100221B4F8F80000EB5D
:10430000800202EBC00201E0CEE1BFE104F19000C7
:1043100000EB82004170B8E194F8F810304600F0EC
:104320004CFC0746F7BBB4F8F80000EB800101EB4A
:10433000C00104F1900000EB8100807880B1012180
:1043400000E0A1E1B4F8F80000EB800202EBC0024B
:1043500004F1900000EB820080F8311000BF0CE007
:104360000021B4F8F80000EB800202EBC00204F177
:10437000900000EB820080F831100321B4F8F800BF
:1043800000EB800202EBC00204F1900000F8221062
:104390000021B4F8F80000EB800202EBC00204F147
:1043A000900000E00DE000EB82004170B4F8F800EE
:1043B00000EB800202EBC00204F1900000EB8200EF
:1043C0008170022F50D1B4F8F80000EB800101EBAE
:1043D000C00104F1900000EB8100807802280ED02B
:1043E0000121B4F8F80000EB800202EBC00204F1F6
:1043F000900000EB820080F8311000BF0CE000213B
:10440000B4F8F80000EB800202EBC00204F1900067
:1044100000EB820080F831100521B4F8F80000EBC1
:10442000800202EBC00204F1900000F8221001218A
:10443000B4F8F80000EB800202EBC00204F1900037
:1044400002E01BE196E029E000EB820041700221CE
:10445000B4F8F80000EB800202EBC00204F1900017
:1044600000EB8200817018E0042F16D10121B4F80E
:10447000F80000EB800202EBC00204F1900000F8AB
:1044800022100221B4F8F80000EB800202EBC00217
:1044900004F1900000EB82004170F6E0B4F8F800FF
:1044A00000EB800303EBC00304F1900000EB8300FA
:1044B000021D94F8F810304600F0D2FA054685BB8C
:1044C000B4F8F80000EB800101EBC00104F19000AA
:1044D00000EB810090F83100012805D100BF00BF3A
:1044E00000BF00BF00BF00BF0121B4F8F80000EB1F
:1044F000800202EBC00204F1900000F822100021BB
:10450000B4F8F80000EB800202EBC00204F1900066
:1045100000EB82004170B4F8F800401CA4F8F800E9
:1045200027E0FFE7022D0BD10521B4F8F80000EBDE
:10453000800202EBC00204F1900000F8221018E0A3
:10454000042D16D10121B4F8F80000EB800202EB33
:10455000C00204F1900000F822100221B4F8F80023
:1045600000EB800202EBC00204F1900000EB82003D
:1045700041708AE0B4F8F80000EB800303EBC0035D
:1045800004F1900000EB830000F10C0294F8F810A5
:10459000304600F0B9FA0546F5BBB4F8F80000EB78
:1045A000800101EBC00104F1900000EB8100007B71
:1045B00006280CD0B4F8F80000EB800101EBC00134
:1045C00004F1900000EB8100007B022814D1D6F8A2
:1045D000C403D4F8FC10401A42F2107188420BD286
:1045E0000221B4F8F80000EB800202EBC00204F1F3
:1045F000900000F8221048E000BF00BF00BF00BFDD
:1046000000BF00BF0121B4F8F80000EB800202EB0C
:10461000C00204F1900000E006E000F82210B4F8B7
:10462000F800401CA4F8F800022D0DD100BF00BF17
:104630000821B4F8F80000EB800202EBC00204F19C
:10464000900000F8221018E0042D16D10121B4F8D2
:10465000F80000EB800202EBC00204F1900000F8C9
:1046600022100221B4F8F80000EB800202EBC00235
:1046700004F1900000EB8200417006E0B4F8F8000D
:10468000401CA4F8F80000E000BF09E00020A4F8F6
:10469000F8000120207302213046D6F8D423904739
:1046A00003E04FF0000800E000BF00BF4046BDE857
:1046B000F0812DE9F84380460C46D8F87C03C569A3
:1046C0000127012604EB840000EBC40105F19000F2
:1046D00010F82100052860D0062802D007287DD1D7
:1046E0002DE000200346024621460090404600F09F
:1046F00064F9064656B9012104EB840000EBC402BC
:1047000005F1900000F82210002717E0022E09D1D1
:10471000052104EB840000EBC40205F1900000F8D1
:1047200022100BE0042E09D1082104EB840000EBD9
:10473000C40205F1900000F8221002276BE000206F
:104740000346024621460090404600F067FA0646BE
:1047500056B9012104EB840000EBC40205F190007E
:1047600000F82210002717E0022E09D1052104EBE2
:10477000840000EBC40205F1900000F822100BE069
:10478000042E09D1082104EB840000EBC40205F1DA
:10479000900000F8221002273DE004EB840000EBBB
:1047A000C40105F1900000EB810000F10C022146EC
:1047B000404600F0A9F90646DEB900BF00BF00BFC1
:1047C00000BF00BF00BF012104EB840000EBC40266
:1047D00005F1900000F82210022100E01AE004EB3D
:1047E000840000EBC40205F1900000EB82004170F0
:1047F0000227022E01D100BF0BE0042E09D10821AF
:1048000004EB840000EBC40205F1900000F82210D4
:10481000022700E000BF00BF3846BDE8F8832DE95D
:10482000F84F04460E4691469A460A9FD4F87C03F8
:10483000C56994F8200360B120780B2809D106EBF4
:10484000860000EBC60105F1900010F82100012858
:1048500002D00220BDE8F88F06202873062106EB5F
:10486000860000EBC60205F1900000F82210A5F8C2
:10487000FA6053464A4631462046009700F09DF8BC
:10488000D4F8C4830FE0D4F8C403A0EB080142F2CB
:1048900010707843814202D894F8200318B901209F
:1048A00028730220D6E731462046FFF702FF012891
:1048B000E9D0012028730020CCE72DE9F04106461D
:1048C0000F4615464FF00208D6F87C03C46994F8E9
:1048D0005200012802D002286AD12FE02421E1658C
:1048E000802184F860100A2184F86210002104F10C
:1048F0000F00C4F86310C4F86710A4F86B101221FD
:1049000084F863107807010E84F86410002184F89D
:10491000651084F86610242184F86710002184F85B
:104920006810012184F85010022184F8521004F11B
:1049300010008C2108514FF001083AE0394630460A
:10494000FFF768F98046B8F1000F30D122212846E0
:10495000FBF7A8FC8C200059007800F01F0068705D
:104960008C2000590078401128708C200059407824
:1049700000F08000802802D10120A87001E0002012
:10498000A8708C2000598168C5F80310C068C5F86C
:1049900007008C20005900F11001102205F10C00D5
:1049A000FBF767FC8C200059006AC5F81D0000E089
:1049B00000BF00BF4046BDE8F0812DE9FF4105463C
:1049C0000F461E464FF00208D5F87C03C46994F8E0
:1049D0005200012802D002283CD135E0B4F89810EA
:1049E0000A984143E165802184F860100A2184F827
:1049F0006210102104F16300FBF754FC282184F8B5
:104A000063109DF80B1084F865109DF80A1084F867
:104A100066109DF8091084F867109DF8081084F856
:104A200068109DF8291084F86A109DF8281084F801
:104A30006B10012184F85010022184F852108C2050
:104A400006514FF0010806E039462846FFF7E2F824
:104A5000804600E000BF00BF404604B0BDE8F081E2
:104A60002DE9F0410646884615460127D6F87C0315
:104A7000C46994F85200012802D002283FD11BE0FB
:104A80000821E165802184F860100A2184F8621011
:104A9000102104F16300FBF705FC252184F8631065
:104AA000012184F85010022184F8521004F1100002
:104AB0008C210851012723E041463046FFF7AAF830
:104AC0000746DFB98C200059C1788C2000598078C6
:104AD00041EA00218C200059407841EA00418C20B5
:104AE0000059007841EA006028608C200059C179A3
:104AF0008C200059807941EA0020A88000E000BFA6
:104B000000BF3846BDE8F0812DE9F04106460F466A
:104B100015464FF00208D6F87C03C46994F8520099
:104B2000012802D0022843D12BE00E21E16580212B
:104B300084F860100A2184F86210102104F16300E7
:104B4000FBF7B0FB032184F863107807010E84F8AB
:104B50006410002184F8651084F866100E2184F832
:104B60006710002184F86810012184F85010022198
:104B700084F8521004F110008C2108514FF0010804
:104B800017E039463046FFF745F88046B8F1000F88
:104B90000DD18C200059807800F00F0028708C20F7
:104BA0000059007B68708C200059407BA87000E0A1
:104BB00000BF00BF4046BDE8F0812DE9F041054649
:104BC0000E460227D5F87C03C46994F852000128E8
:104BD00002D002281DD116E00021E16584F86010A2
:104BE0000A2184F86210102104F16300FBF75AFBDC
:104BF000002184F86310012184F85010022184F808
:104C00005210012706E031462846FFF703F8074611
:104C100000E000BF00BF3846BDE8F0812DE9FF414C
:104C200005460F461E464FF00208D5F87C03C469BE
:104C300094F85200012802D002283CD135E0B4F8A3
:104C400098100A984143E165002184F860100A2118
:104C500084F86210102104F16300FBF723FB2A2182
:104C600084F863109DF80B1084F865109DF80A1005
:104C700084F866109DF8091084F867109DF80810F4
:104C800084F868109DF8291084F86A109DF828109F
:104C900084F86B10012184F85010022184F852101E
:104CA0008C2006514FF0010806E039462846FEF7F1
:104CB000B1FF804600E000BF00BF404604B0BDE841
:104CC000F08101460020704730B50246D2F87C439F
:104CD000E36914780B2C0BD101EB810404EBC105C3
:104CE00003F1900404EB850464780CB9012000E022
:104CF000002030BD2DE9F84F04460E4691469A46F5
:104D00000A9FD4F87C03C56994F8200360B1207829
:104D10000B2809D106EB860000EBC60105F19000D7
:104D200010F82100012802D00220BDE8F88F0720EA
:104D30002873072106EB860000EBC60205F1900000
:104D400000F82210A5F8FA6053464A46314620463C
:104D50000097FFF763FFD4F8C4830FE0D4F8C403CF
:104D6000A0EB080142F210707843814202D894F817
:104D7000200318B9012028730220D6E731462046C7
:104D8000FFF797FC0128E9D0012028730020CCE729
:104D90002DE9FE4F04460D4616461F46DDE90D9AE5
:104DA000DDF830803B463246294620468DE8000734
:104DB000FEF768FE0020BDE8FE8F2DE9F84F04469F
:104DC0000E46934635464FF00008C14600BF307886
:104DD000207070786070B178F07841EA00206080CF
:104DE0003079207170796071B079A071F079E071DB
:104DF000307A2072BBF1090F4AD9092000900027B0
:104E00003EE069462846FEF790FA05466878042891
:104E100036D108EB880000EBC80104F10A0000EB72
:104E200041072946384600F071F84FF00009CA469C
:104E30001AE069462846FEF778FA0546687805289C
:104E400012D108EB880000EBC80104F10A0000EB66
:104E500041000A3000EBC90A2946504600F046F8E6
:104E600009F1010000F0FF093879484504DD608848
:104E7000BDF800108842DCDC08F1010000F0FF08FA
:104E8000B8F1020F04D26088BDF800108842B8DC87
:104E9000BDE8F88F10B50B7803704B7843708C78B1
:104EA000CB7844EA032343800B7903714B79437138
:104EB0008B798371CB79C371082A16D90C7A4B7A16
:104EC00044EA032303818C7ACB7A44EA03234381A7
:104ED0000C7B4B7B44EA032383818B7B8373CB7BEB
:104EE000C3730B7C03744B7C437410BD0A7802704F
:104EF0004A7842708A788270CA78C2700B794A798F
:104F000043EA022282808A79827170470A780270AD
:104F10004A7842708A788270CA78C2700A790271BF
:104F20004A7942718A798271CA79C2710A7A0272A7
:104F3000704730B513464578032D14D10578AD1E62
:104F40009D4202D80578AD1E00E01D46ACB2801C23
:104F5000002204E0855C0D70491C951CAAB2A24297
:104F6000F8DB00250D7030BD7FB5044602200390AC
:104F7000002594F82103012801D103202070207816
:104F80000E287DD2DFE800F0071B46F57C80FF98F5
:104F9000A3AEC0F37CF294F8200378B100BF00BF49
:104FA00001202070C820FEF74AF92046FEF792FD46
:104FB000002184F81C130020C4F8C80334E194F8DD
:104FC0002303012807D100BF00BF002184F81F136D
:104FD000022020701DE0D4F8C803B0F57A7F10D904
:104FE00094F81F03401C84F81F0394F81F03032840
:104FF00004D900BF00BF0D2020700AE000202070FF
:1050000007E0D4F8C8030A30C4F8C8030A20FEF742
:1050100016F909E1D4F8D40320B104212046D4F8CC
:10502000D42390476420FEF70AF92046FEF7B5FC2A
:1050300084F81D030520207000212046FEF732F879
:10504000607180212046FEF72DF82071A0790022A2
:1050500094F81D13CDE90012029094F81C332179C5
:1050600080222046FFF794FEA079002294F81D13B9
:10507000CDE90012029094F81C336179204600E0DB
:10508000D0E0FFF785FECFE02046FEF7A0FA0390C0
:105090009DF80C0078B900BF00BF002184F82413EC
:1050A00094F83703012804D100BF00BF0820207006
:1050B00001E007202070B7E0D4F8D40330B101211B
:1050C0002046D4F8D423904708202070ACE094F810
:1050D0003D13204600F0EDF818B90920207000BFFC
:1050E00000BFA1E094F83F0300F0200048B1012187
:1050F000204600F0F2F830B900BF00BF0A2020704F
:1051000001E00A2020708FE0D4F8800308B900BFC6
:1051100038E00020C4F87C03002511E004F55E703F
:1051200050F82500017994F84703814206D104F52F
:105130005E7050F82500C4F87C0303E0681CC5B21B
:10514000002DEBD000BFD4F87C03B8B1D4F87C03B9
:1051500081682046884768B90620207000BF00BFDC
:1051600003212046D4F8D42390470BE05BE026E0EF
:1051700009E02DE00D20207000BF03E00D2020701D
:1051800000BF00BF50E0D4F87C0398B1D4F87C0392
:1051900001692046884703909DF80C0010B90B2048
:1051A00020700BE09DF80C00022807D10D20207024
:1051B00000BF03E00D20207000BF00BF34E0D4F832
:1051C0007C0320B1D4F87C034169204688472BE05A
:1051D000002184F821132046FBF7A2F8D4F87C03C1
:1051E00038B1D4F87C03C168204688470020C4F851
:1051F0007C03D4F8D40320B105212046D4F8D4236D
:10520000904700BF00BF94F82203012806D1002177
:1052100084F82213204600F074F802E02046FEF7DE
:1052200088FC01E000BF00BF00BF002004B070BDDB
:1052300010B50246002081B1D2F880334BB9D2F8C4
:105240008043631CC2F8803302F55E7343F8241078
:1052500006E000BF00BF022002E000BF00BF022046
:1052600010BD0246002092F83C338B4209DD82F8E3
:10527000241300BF00BF00BF00BF00BF00BF00BFBE
:1052800002E000BF00BF0220704770B504460D4623
:10529000A078012807D1002121740521617465825D
:1052A0000021A182E182002211462046FDF770FF15
:1052B00070BD70B504460D46A078012807D10021C5
:1052C00021740921617465820021A182E18200229A
:1052D00011462046FDF75CFF70BD70B504460D46D3
:1052E000A078012807D1002121740321617465820F
:1052F0000021A182E182002211462046FDF748FFED
:1053000070BD10B504462046FEF713FC012120466F
:10531000FEF726FB002010BD012906D0022909D086
:1053200004290BD005290DD100E00CE00322074B26
:105330001A7008E00222054B1A7004E00122034BA8
:105340001A7000E000BF00BF704700000800002096
:105350000146002070470000F0B58DB005460E46AE
:105360001446012736B1012E06D0022E10D0032E8E
:105370002CD11AE000272BE06A4629461648FEF792
:105380001DFE18B901982060002700E001271FE0EA
:105390006A4629461048FEF711FE20B9BDF80800FC
:1053A0002060002700E0012712E06A4629460A48EB
:1053B000FEF704FE40B9BDF80800C11700EBD1515B
:1053C00049122160002700E0012701E0042700BF07
:1053D00000BF38460DB0F0BDE80000202DE9F041D7
:1053E0008EB004460D4617461E464FF001082B4668
:1053F0003A46214612480096FFF711FA10B94FF0CD
:10540000000818E001AA21460D48FEF7D7FD9DF8D7
:105410001100042804D0282804D03A2807D100E03D
:1054200000BF00BF00BF00BF4FF0030802E04FF015
:10543000010800BF00BF40460EB0BDE8F08100008B
:10544000E800002070B50446012521460448FFF716
:105450003BFC08B1002500E00125284670BD000096
:10546000E80000202DE9F0418EB004460D461746B5
:105470001E464FF001082B463A4621461548009635
:10548000FFF738FC10B94FF000081FE001AA2146D1
:105490001048FEF793FD9DF8110004280BD0272833
:1054A00004D0282809D03A280CD105E000BF00BF5D
:1054B0004FF0020809E000BF00BF00BF00BF4FF07F
:1054C000030802E04FF0010800BF00BF40460EB0E5
:1054D000BDE8F081E80000200FB470B504460A98DA
:1054E000012817D1A06B20F48030A063E0681A492E
:1054F0000840E060E06820F44010E0601198012866
:1055000003D1E06840F48010E060204600F026F807
:10551000054612E0E06840F04000E060204600F000
:105520001DF805460E9820B9A06B40F48030A063AA
:1055300003E0A06B20F48030A0630898012807D115
:10554000A06840F00600A060A06840F02000A060C5
:10555000284670BC5DF814FBBFFFBDFF014600226A
:1055600000BF501C02460F4B984201D903207047E0
:10557000086900F000400028F3D00022086940F0DC
:105580000100086100BF501C0246064B984201D939
:105590000320ECE7086900F001000028F3D100BF08
:1055A000E5E70000400D03000146886820F0010097
:1055B0008860002070470000F0B503461C460A468C
:1055C00001260D4800EAC64040F00047114604F5A8
:1055D000A06000EB4110076104F5A06000EB4110F2
:1055E000056825F0804545F0004504F5A06000EB16
:1055F000411005600020F0BD0000F81F08B502460C
:10560000134600200090D3F840040090009820F04A
:105610002E000090009800F4805030B9012904D188
:10562000009840F48050C3F84004009800F4805083
:10563000B0F5805F05D121B9009820F48050C3F8FF
:105640004004002008BD0146886840F001008860E1
:1056500000207047014600221020086100BF501C46
:105660000246064B984201D903207047086900F0B2
:1056700010001028F3D00020F7E70000400D0300D1
:1056800010B502460023202040EA8110106100BFBF
:10569000581C0346054CA04201D9032010BD1069D7
:1056A00000F020002028F3D00020F7E7400D030091
:1056B00001460A464FF48160805880B2704708B5B1
:1056C00001460A4600200090D2F84004009000985D
:1056D000C0F3414008BD0146486900F00100704731
:1056E000F0B503460C461A462146002502F5A06097
:1056F00000EB41100068C0F381460EB1022E53D179
:1057000002F5A06000EB4110006840F0804702F510
:10571000A06000EB41100760D86A00F47F00A8BBCE
:1057200002F5A06000EB4110006820F0004702F590
:10573000A06000EB4110076002F5A06000EB411093
:10574000006840F0004702F5A06000EB41100760E0
:1057500002F5A06000EB4110006820F4004702F55C
:10576000A06000EB4110076000BF681C0546B0F563
:105770007A7F00D909E002F5A06000EB41100068D3
:1057800000F00040B0F1004FEFD062E0FFE702F51B
:10579000A06000EB4110006840F0004702F5A060F7
:1057A00000EB4110076054E002F5A06000EB4110EF
:1057B000006840F0804702F5A06000EB41100760F0
:1057C0004FF48260805800F47F00A8BB02F5A0600F
:1057D00000EB4110006820F0004702F5A06000EBEC
:1057E0004110076002F5A06000EB4110006840F036
:1057F000004702F5A06000EB4110076002F5A060D1
:1058000000EB4110006820F4004702F5A06000EBB7
:105810004110076000BF681C0546B0F57A7F00D9CB
:1058200009E002F5A06000EB4110006800F00040C4
:10583000B0F1004FEFD00CE0FFE702F5A06000EB05
:105840004110006840F0004702F5A06000EB4110F5
:1058500007600020F0BD2DE9F04F044615469C4638
:10586000DDE90A69DDF82480002022464FF0FF3A86
:1058700002F5A06B0BEB411BCBF808A036B1012E53
:1058800053D0022E03D0032E6BD132E000BF40F282
:105890009D4A02F5A06B0BEB411BCBF80CA005F069
:1058A000800ABAF1800F0ED102F5A06A0AEB411A04
:1058B000DAF80CA04AF4807A02F5A06B0BEB411BDE
:1058C000CBF80CA014E0D4F83CA00AF4807ABAF12A
:1058D000000F0DD002F5A06A0AEB411ADAF80CA00D
:1058E0004AF0600A02F5A06B0BEB411BCBF80CA051
:1058F00039E040F29D6A02F5A06B0BEB411BCBF83F
:105900000CA005F0800ABAF1800F0DD102F5A06A53
:105910000AEB411ADAF80CA04AF4807A02F5A06B7F
:105920000BEB411BCBF80CA01DE040F2252A02F541
:10593000A06B0BEB411BCBF80CA005F0800ABAF171
:10594000800F0DD102F5A06A0AEB411ADAF80CA01B
:105950004AF4C07A02F5A06B0BEB411BCBF80CA00C
:1059600001E0012000BF00BFD2F818A401F00F0E23
:105970004FF0010B0BFA0EFB4AEA0B0AC2F818A40F
:10598000D4F818A04AF0007AC4F818A005F0800AEC
:10599000BAF1800F02D14FF4004300E00023B8F1C8
:1059A000020F02D14FF4003700E000274FF0FE5AFB
:1059B0000AEA8C5A4FF4F04B0BEAC52B4AEA0B0A61
:1059C0004FF4402B0BEA864B4AEA0B0AC9F30A0B49
:1059D0004AEA0B0A4AEA030A4AEA070A02F5A06BF6
:1059E0000BEB411BCBF800A0032E0DD102F5A06AF2
:1059F0000AEB411ADAF800A04AF0005A02F5A06B4F
:105A00000BEB411BCBF800A0BDE8F08F01460A4626
:105A100040F21440805880B2704700002DE9FC4FDE
:105A200007460C4691463E4665784FF4807BF86BFE
:105A300000F48070F8B12079E8B9B9F1000F09D10C
:105A40006079012806D161783846FFF7B5FD00205E
:105A5000BDE8FC8FB9F1010F0DD106F5A06000EB98
:105A60004510C06820F0600106F5A06000EB45100D
:105A7000C16000206071206978B1218920690844E3
:105A8000401EB0FBF1F01FFA80F8D84507DDD8467C
:105A9000208900FB08F0206101E04FF00108E07868
:105AA00018B1208900FB08F020612069C0F31200C2
:105AB0004D4901EAC8410843A17A4FF0C04202EAC9
:105AC0004171084306F5A06101EB45110861B9F188
:105AD000000F05D006F5A06000EB4510E1684161BC
