:020000040800F2
:10000000F84C002081020008C32F0008C52C00080E
:10001000C12F0008E5080008AB4E000800000000F2
:100020000000000000000000000000002F30000869
:100030003509000800000000D12F00083130000809
:100040009B0200089B0200089B0200089B0200081C
:100050009B0200089B0200089B0200089B0200080C
:100060009B0200089B0200089B0200089B020008FC
:100070009B0200089B0200089B0200089B020008EC
:100080009B0200089B0200089B0200089B020008DC
:100090009B0200089B0200089B0200089B020008CC
:1000A0009B020008513000089B0200089B020008D8
:1000B0009B0200089B0200089B0200089B020008AC
:1000C0009B0200089B0200089B0200089B0200089C
:1000D0009B0200089B0200089B0200089B0200088C
:1000E0009B020008D52F00089B0200089B02000815
:1000F0009B0200089B0200089B0200089B0200086C
:100100009B0200089B0200089B0200089B0200085B
:100110009B0200089B0200089B0200089B0200084B
:100120009B0200089B0200089B0200089B0200083B
:100130009B0200089B0200089B0200089B0200082B
:100140009B0200089B0200089B020008C52F0008C4
:100150009B0200089B0200089B0200089B0200080B
:100160009B0200089B0200089B0200089B020008FB
:100170009B0200089B020008000000000000000035
:100180009B0200089B0200089B0200089B020008DB
:100190009B0200089B020008000000009B02000870
:1001A0009B0200089B020008000000000000000005
:1001B0009B02000800000000000000009B020008F5
:1001C0009B0200089B0200089B0200089B0200089B
:1001D0009B0200089B02000800F002F800F040F8C3
:1001E0000AA090E8000C82448344AAF10107DA4592
:1001F00001D100F035F8AFF2090EBAE80F0013F0A4
:10020000010F18BFFB1A43F00103184714550000F3
:1002100034550000103A24BF78C878C1FAD8520784
:1002200024BF30C830C144BF04680C607047000070
:100230000023002400250026103A28BF78C1FBD8EF
:10024000520728BF30C148BF0B6070471FB505F08B
:100250002DFA9DE8030000F0E3F91FBD10B510BDB5
:1002600000F071FA1146FFF7F1FF05F0F9F900F01F
:1002700093FA03B4FFF7F2FF03BC00F0EDFA0000BD
:100280000948804709480047FEE7FEE7FEE7FEE72A
:10029000FEE7FEE7FEE7FEE7FEE7FEE70448054966
:1002A000054A064B7047000035300008D9010008A8
:1002B000F80C0020F84C0020F82C0020F82C00202E
:1002C00070B5064600F08CF9056806F10B0020F0C9
:1002D0000704B4429CBF002070BD2B466A68BAB1C7
:1002E0001068A04210D304F1080188423CBF506856
:1002F000586007D35168101941601168091B0160EB
:1003000058601460101D70BD13465268002AE7D172
:100310002146284600F070F90028DED170BD70B586
:100320000446051F00F05CF90068002C14BF446807
:1003300070BD002C18BFAC423CBF20466468F8D3A7
:1003400001680A18AA4218BF456003D12A68054609
:100350001144016028684119A1421CBF6C6070BD46
:100360006168696021680844286070BD53EA020C26
:1003700000F069802DE9F04B4FF00006002B1FBF05
:10038000B3FA83F503FA05F424FA05F65E4012BFCA
:100390001643B2FA82F502FA05F4C5F120051EBF34
:1003A00022FA05FC44EA0C04203556EA044C4FEAD4
:1003B000144418BF641C4FF000084FF0000990422D
:1003C00071EB030C39D3002919BFB1FA81F701FA97
:1003D00007F6B0FA80F700FA07F6C7F120071EBF4C
:1003E00020FA07FC46EA0C062037B6FBF4FCA7EB24
:1003F0000507103F07F01F0BCBF120060CFA0BFB93
:100400002CFA06F644BFB3460026202FA4BF5E4652
:100410004FF0000B5BEA060C08BF4FF0010B19EB25
:100420000B09ABFB027C48EB0608C01B06FB02CCA9
:100430000BFB03CC71EB0C01C1E70B4602464146B6
:100440004846BDE8F08B13B54FF000004FF00001B7
:10045000AFF30080BDE81C407047032A40F23080B3
:1004600010F0030C00F0158011F8013BBCF1020FF5
:10047000624498BF11F801CB00F8013B38BF11F876
:10048000013BA2F1040298BF00F801CB38BF00F88D
:10049000013B11F0030300F02580083AC0F008800A
:1004A00051F8043B083A51F804CBA0E80810F5E7EE
:1004B000121D5CBF51F8043B40F8043BAFF30080D1
:1004C000D20724BF11F8013B11F801CB48BF11F846
:1004D000012B24BF00F8013B00F801CB48BF00F816
:1004E000012B704710B5203AC0F00B80B1E81850CE
:1004F000203AA0E81850B1E81850A0E81850BFF40E
:10050000F5AF5FEA027C24BFB1E81850A0E81850AC
:1005100044BF18C918C0BDE810405FEA827C24BF00
:1005200051F8043B40F8043B08BF7047D20728BF8E
:1005300031F8023B48BF11F8012B28BF20F8023BDD
:1005400048BF00F8012B70474FF000020429C0F0AB
:10055000128010F0030C00F01B80CCF1040CBCF1F5
:10056000020F18BF00F8012BA8BF20F8022BA1EB47
:100570000C0100F00DB85FEAC17C24BF00F8012B2C
:1005800000F8012B48BF00F8012B70474FF0000224
:1005900000B5134694469646203922BFA0E80C5079
:1005A000A0E80C50B1F12001BFF4F7AF090728BF54
:1005B000A0E80C5048BF0CC05DF804EB890028BFD0
:1005C00040F8042B08BF704748BF20F8022B11F0F9
:1005D000804F18BF00F8012B704770477047704775
:1005E00000487047A00C002000487047CC0C002049
:1005F000704770477047704738B504460A46002078
:100600006946AFF30080002808BF38BD0246009954
:10061000204600F041F8012038BD012000F056B816
:10062000F8B5AFF30080054600200C46102000BF4F
:100630000646A819A0420DD9324669460020AFF3FC
:100640000080070008BF00F041F80098A04218BFE2
:100650000546C419FFF7C4FF05600746F01D20F0EA
:1006600007004619284600F00AF8B44208BFF8BD52
:10067000A21B31463868BDE8F84000F00DB80021F3
:100680000160C0E9011070471020704700F025B8E4
:1006900000487047980C0020034640688C460028AC
:1006A00018BF88423CBF03464068F8D31868184416
:1006B000884207D00CF1030020F00700001D411A0A
:1006C000521A0146081D0A60FFF729BE10B500F056
:1006D0007DF8BDE8104000F073B810B500F00DF8DB
:1006E000016919B100220261884701E080688047F2
:1006F00000F05BF810B500F058F870B500F048F85D
:1007000004680546A4B92020FFF7DAFD040011D0E3
:10071000094900202C60C4E900010849A160207348
:10072000206160610649A06109B100F077F8E061DD
:10073000204670BD00F039F800000000F506000802
:100740000000000070477546FFF7A2FFAE460500A7
:100750006946534620F00700854618B020B5FFF7DC
:100760009DFDBDE820404FF000064FF000074FF020
:1007700000084FF0000B21F00701AC46ACE8C009BF
:10078000ACE8C009ACE8C009ACE8C0098D467047C8
:1007900000487047D40C002010B50446AFF3008029
:1007A0002046BDE81040FFF764BD10B5002000F002
:1007B00072F8FFF753FDBDE81040012000F04CB87F
:1007C000002801D000F048B87047000010B501289B
:1007D00005D0002103A000F045F8012010BD09A1BB
:1007E000F8E7000053494752544D454D3A204F75A4
:1007F00074206F662068656170206D656D6F727919
:10080000000000003A2048656170206D656D6F72D0
:100810007920636F727275707465640010B58820FA
:10082000FFF74EFD002801D00021017010BD802986
:1008300002D808B1017809B100207047012100F801
:10084000081B704718B100F10802914201D0002046
:10085000704700210170704701491820ABBEFEE7C8
:100860002600020070B505460C460A2000E06D1C0B
:1008700000F018F835B128780028F8D102E0641C9F
:1008800000F010F814B120780028F8D1BDE87040CD
:100890000A2000F007B810B500F00CF8BDE81040D1
:1008A000FFF78EBF08B569468DF800000320ABBE88
:1008B00008BD000010B5002102A0FFF7D3FF012002
:1008C00010BD0000534947414252543A2041626EE4
:1008D0006F726D616C207465726D696E6174696FA1
:1008E0006E000000FEE710B50021002200EB81033E
:1008F000C3F88423491C0F29F8D300214FF4007456
:10090000431883F81C21491CA142F9D3027042709C
:1009100001218170C0F8C42301764023837142769F
:1009200080F81C2380F81D1380F81F2380F81E23F5
:10093000002010BD70477047002200F001B8000091
:1009400030B5044601200D4B5D7A002D14D1587A44
:100950001D54587A03EB800044605C7A03F1080070
:100960002254587A421C5A72303008703A2048702B
:100970002F208870CD70002030BD00004C0C00206E
:1009800070B5044600F0EEF80546601C02D004483D
:100990000078044400F0E6F8401BA042FAD370BD92
:1009A000100000202DE9F84F0022DFF874A14FF06D
:1009B00003084FF00F090AF1040B012595400B685D
:1009C0002B40AB4272D14C68012C05D0022C03D0D5
:1009D000112C01D0122C10D18668540008FA04F7AB
:1009E000BE43CF68A740374387604468AC430D7966
:1009F000C5F30015954025434560C468570008FAC3
:100A000007F5AC438E68BE402643C6604C68022C96
:100A100001D0122C12D1D40800EB840CDCF8206039
:100A20005407E40E09FA04FE26EA0E06D1F810E097
:100A30000EFA04FE4EEA060ECCF820E00468AC4341
:100A40000D7905F00305BD40254305604C68E400C1
:100A500060D5344C256845F480452560246804F44D
:100A600080440094304C22F003052E19D6F8087803
:100A70009407250F09FA05F4A7432C4CA04201D195
:100A800000241FE02A4CA04201D101241AE0294C85
:100A9000A04201D1022415E0274CA04201D1032439
:100AA00010E0264CA04202D104240BE032E0244C9A
:100AB000A04201D1052405E0224CA04201D1062428
:100AC00000E00724AC403C43C6F80848DAF8004090
:100AD0009C434D68ED0300D51C43CAF80040DBF889
:100AE00000409C434D68AD0300D51C43CBF800404B
:100AF0000B4D08352C689C434E68F60200D51C430C
:100B00002C60074D0C352C689C434E68B60200D50E
:100B10001C432C60521C102AFFF44FAFBDE8F88F25
:100B2000003C0140443802400030014000000240D7
:100B30000004024000080240000C02400010024085
:100B400000140240001802400069084201D0012050
:100B5000704700207047002A01D081617047090466
:100B600081617047014880687047000010000020D4
:100B7000D0F8C00202F010BED0F8C00202F015BEDC
:100B8000006803F0EBBE01EB810100EBC10090F8BF
:100B90005C00704701EB810100EBC100C06C704745
:100BA00010B5044694F8B802012809D0012084F851
:100BB000B802206803F0DAFE002084F8B80210BD05
:100BC000022010BD2DE9FE430546DDE90B7C0A98A5
:100BD00095F8B842012C1AD04FF0010885F8B88278
:100BE00001EB8104002605EBC404383466712370E0
:100BF000A4F808C06170E77102F07F0984F80290E0
:100C0000383C5FEA026905D584F83B8004E00220A5
:100C1000BDE8FE8384F83B6084F83C008DE88110D9
:100C2000286803F005FF85F8B862F1E770472DE901
:100C3000F003DDE906C8DDE9087501EB810400EB8E
:100C4000C40484F83B2084F83F300226BCF1000F36
:100C50000AD084F8426000256BB1012B42D0022BF0
:100C60001AD0032B40D12AE04FF0030984F84290B8
:100C700084F83D50EFE7BCF1010F35D12ABB17B91D
:100C8000012284F8512094F8512012B184F8426076
:100C90002AE084F8425027E02AB194F850205AB153
:100CA00084F8426020E094F8512012B184F8426048
:100CB0001AE084F8425017E084F8425014E02AB158
:100CC00094F850205AB184F842600DE094F8512015
:100CD00012B184F8426007E084F8425004E084F8DE
:100CE000425001E084F84250C4F84480A76484F87C
:100CF0005C50E56484F8391084F85D50027C04F19E
:100D000038010068BDE8F00303F01EBF2DE9F04193
:100D100004462068064603F025FE01287ED120689F
:100D200004F045F8002879D0206804F040F88002EB
:100D300003D521684FF400104861206804F037F8AB
:100D4000C00203D521684FF480104861206804F088
:100D50002EF8400103D521684FF08060486120687B
:100D600004F025F8800702D5216802204861206838
:100D700004F01DF880000ED521684FF00050486146
:100D8000D6F84004C00706D12046FFF7F5FE012142
:100D9000206803F0EFFF206804F009F8C00102D5D5
:100DA000204601F007FF206804F001F8000705D590
:100DB000204600F0D1F8216808204861206803F03F
:100DC000F6FF800124D5206803F0BAFE074600250F
:100DD0004FF0010815E005F00F0108FA01F0384264
:100DE0000ED006EB4510D0F80005000404D5E9B29A
:100DF000204601F067FC03E0E9B2204601F0B9FDAE
:100E00006D1CA068A842E6D821684FF000704861C8
:100E1000206803F0CCFFC043C00600E00DE00CD416
:100E20002068816921F010018161204601F012FFE4
:100E30002068816941F010018161BDE8F08170B5E1
:100E40008AB00446002C05D0256894F8B902002623
:100E500018B107E001200AB070BD84F8B8622046DE
:100E600000F028F8032084F8B902E86BC00500D42C
:100E70002661206803F016FD04F1100128220D46BA
:100E80006846FFF72FFB94E80F0003F0AFFC012149
:100E9000206803F09FFF282229466846FFF722FBBF
:100EA00094E80F0003F0F6FE012084F8B902002058
:100EB000D1E7000030B587B00446142102A8FFF73F
:100EC00065FB2068B0F1A04F38D100241C480168B0
:100ED00041F001010160006800F0010001904FF451
:100EE000E8500290022003900494032005900A2009
:100EF0000690144D02A92846FFF754FD691502918A
:100F00000394049402A92846FFF74CFD0C48001DE9
:100F1000016841F08001016009481430016841F422
:100F200080410160006800F4804001900022114679
:100F3000432000F04DFA432000F03CFA07B030BDEA
:100F40003038024000000240D0F8C00202F0ADBCD0
:100F5000D0F8C00202F0ADBCD0F8C00202F066BC0E
:100F600010B5044694F8B80201280DD0012084F889
:100F7000B802206803F0C9FC0121206803F0A8FC36
:100F8000002084F8B80210BD022010BD10B5044640
:100F900094F8B802012809D0012084F8B80220682A
:100FA00003F030FF002084F8B80210BD022010BD0D
:100FB00070B50446002C04D094F83D00002510B113
:100FC00006E0012070BD84F83C50204600F060F936
:100FD000242084F83D002068016821F001010160AF
:100FE0002068016841F4004101602068016821F433
:100FF0000041016000F074FC4F4B6168994203D8D6
:101000004E49884203D304E04D49884201D2012071
:1010100070BD4C49B0FBF1F12268566826F03F06DE
:101020000E43566062689A4201D8491C07E04FF4AB
:10103000967251434FF47A72B1FBF2F1491C226867
:10104000166A26F03F06314311626168994210D852
:101050004900401EB0FBF1F2521CC2F30B02042AFD
:1010600001D2042022E0B0FBF1F0401CC0F30B00E1
:101070001CE0A268F2B301EBC10303EB0116431EAF
:10108000B3FBF6F35B1C43F480431B0549D092B3DA
:1010900001EBC10202EB0111401EB0FBF1F0401C5C
:1010A000C0F30B0040F4804040F400402168CA695E
:1010B0004CF6FF739A431043C861D4E9071001430B
:1010C0002068026822F0C00211430160D4E90301E4
:1010D00001432068826848F2FF339A4311438160DC
:1010E000D4E9051001432068C26822F0FF021143D1
:1010F000C16001E00EE016E02068016841F00101E6
:1011000001602564202084F83D00256384F83E506A
:10111000002070BD01EB4106431EB3FBF6F35B1CE0
:10112000B3E70120C2E701EB4101401EB0FBF1F043
:10113000401CC0F30B00B7E7A086010080841E00AE
:1011400000093D0040420F002DE9F84F04468A4651
:1011500015469946DDF82880FFF704FD064694F809
:101160003D00202802D00220BDE8F88F192301227B
:1011700045492046009601F03CFE08B10220F3E705
:1011800094F83C00012807D0012084F83C00206836
:101190000168C90702D005E00220E5E7016841F0D7
:1011A000010101602068016821F4006101602120D3
:1011B00084F83D00102084F83E0000272764656213
:1011C000A4F82A90608D20853048E062334642467C
:1011D0005146204601F08EFD08B10120C4E7206889
:1011E0004169806900903EE032464146204601F068
:1011F00091FE48B1206C042804D12068016841F4B4
:10120000007101600120AFE7606A21680078086121
:10121000656A6D1C6562608D401E6085208D401E74
:1012200080B2208522685169C94349070BD450B167
:1012300028781061606A401C6062608D401E608585
:10124000208D401E208532464146204601F0AAFDF1
:1012500048B1206C042804D12068016841F4007171
:101260000160012080E7208D0028BDD11F3454F893
:101270001F0C016841F4007101602020A077E7771E
:101280006777002070E70000020010000000FFFFF9
:1012900010B586B00446142101A8FFF777F9144968
:1012A0002068884221D11348016841F002010160A1
:1012B000006800F0020000904FF4107001901220BE
:1012C000029001200390032004900420059001A9BE
:1012D0000948FFF767FB07481030016841F4001127
:1012E0000160006800F40010009006B010BD00001E
:1012F0000054004030380240000402400248816837
:1013000002781144816070471000002010B50B482E
:10131000016841F400710160016841F4806101607D
:10132000016841F480710160032000F071F8002031
:1013300000F006F800F026F8002010BD003C024046
:1013400070B504460D4D4FF47A712878B1FBF0F07A
:101350000B490968B1FBF0F000F056FF08B101201D
:1013600070BD102C07D200222146501E00F030F82C
:101370006C60002070BD012070BD000010000020D6
:101380001C00002008B50A48016841F48041016052
:10139000006800F4804000900548001F016841F09B
:1013A00080510160006800F08050009008BD00008E
:1013B00044380240002809DB00F01F02012191405F
:1013C0004009800000F1E020C0F8001170470000E3
:1013D000F0B40D460D4B1B68C3F30223C3F10704A1
:1013E000042C00D90424191D072901D2002300E090
:1013F000DB1E012606FA04F1491E294099409E4051
:10140000761E16403143F0BC04F01AB90CED00E032
:1014100000F00701054A10684FF6FF03184040EA44
:101420000120034908431060704700000CED00E004
:101430000000FA052DE9F84F044600252078CA4E31
:10144000C00708D03068E16920F0C0600843306010
:10145000E06900B901252078800708D53068216A45
:1014600020F0C05008433060206A00B90125208870
:10147000800413D53068A16C20F44010084330601C
:10148000A06C00B90125B0F5001F07D1306820F429
:10149000F8516069401E41EA002030602088400415
:1014A00013D53068E16C20F4400008433060E06CF4
:1014B00000B90125B0F5000F07D1306820F4F851CC
:1014C0006069401E41EA0020306020784FF000073C
:1014D00000074FF0010A63D5A3484C38016841F07A
:1014E00080510160006800F080500090DFF87C922D
:1014F000D9F8000040F48070C9F80000FFF732FB13
:10150000804608E0FFF72EFBA0EB0800022802D976
:101510000320BDE8F88FD9F80000C005F2D5DFF848
:101520004892A9F11C09D9F8000000F4407020B3DA
:10153000A18C01F4407181421FD0D9F8000020F441
:1015400040708B49C1F800A00F60C9F80000D9F8BD
:101550000000C00711D0FFF705FB804641F2883B31
:1015600007E0FFF7FFFAA0EB0800584501D9032078
:10157000CFE7D9F800008007F3D5606A7A49C0F355
:1015800001228439032A43D0086820F4F810086047
:10159000D9F80000A18CC1F30B010843C9F8000081
:1015A0002078DFF8D0B1400703D594F85400CBF889
:1015B000E0012078DFF8C081C00607D5D8F8000028
:1015C000E16A20F440000843C8F8000020784FF09A
:1015D000006980060BD5D8F80000216B20F0006070
:1015E0000843C8F80000206B484500D10125207849
:1015F000400607D5D8F80000A16A20F080500843C3
:10160000C8F80000012D0BD02068802808D079E0B0
:101610000A685A4B22F4F812184002430A60B7E7EE
:1016200057488766FFF79EFA05464F4F8C3F06E006
:10163000FFF798FA401B022801D9032069E73868B0
:101640000001F5D4206DCBF8D80020684D49C207C1
:1016500001D0E2697AB1820701D5226A5AB18206C5
:1016600002D5226B4A4506D040060FD5A06A68B95C
:10167000206B48450AD1D4E9010240EA8210227B5E
:10168000237C120642EA0372104308602068820439
:1016900001D5A26C1AB1400415D5E06C98B9086860
:1016A000C0F30360D4E9012342EA8312237C0006DD
:1016B00040EA037002430A603068A26920F01F000C
:1016C000521E10433060207800060AD5D4E901028A
:1016D00040EA8210227B237C120642EA0372104306
:1016E00008602748C0F868A0FFF73CFA054606E006
:1016F000FFF738FA401B022801D9032009E73868B0
:101700000001F5D52088C00505D53068616B20F053
:101710000040084330602088800505D53068A16B03
:1017200020F40040084330602088400505D530682B
:10173000E16B20F00040084330602088000505D5AB
:101740003068216C20F48040084330602088C00459
:1017500007D5D8F80000616C20F040400843C8F875
:1017600000000020D5E600008C38024000700040E8
:10177000400E47420010474294380240FFFCFF0FE2
:1017800000004742843802402DE9F04704460D46E8
:10179000002C13D0DFF82891D9F80000EFB200F048
:1017A0000F00A8420CD289F80070D9F8000000F0B0
:1017B0000F00A84204D00120BDE8F0870120FBE71C
:1017C0002068404E810712D5400703D5306840F4A9
:1017D000E05030602078000703D5306840F4604066
:1017E00030603068A16820F0F00008433060207855
:1017F000C00731D0334960680839012808D0022871
:101800000BD0032809D0096889070BD40120D3E73E
:101810000968890306D40120CEE70968890101D44B
:101820000120C9E7316821F0030101433160FFF76E
:1018300099F9804641F2883A07E0FFF793F9A0EB67
:101840000800504501D90320B6E73068616800F010
:101850000C00B0EB810FF0D1D9F8000000F00F00C0
:10186000A84209D989F80070D9F8000000F00F00EB
:10187000A84201D001209FE72078400705D53068B5
:10188000E16820F4E050084330602078000706D576
:101890003068216920F4604040EAC100306000F007
:1018A0003FF83168084AC1F30311515CC840074949
:1018B000086007480068FFF743FD00207CE7000050
:1018C000003C024008380240CC5600081C000020B2
:1018D0001400002001480068704700001C00002030
:1018E00000B5FFF7F7FF04490968044AC1F38221F4
:1018F000515CC84000BD000008380240DC560008BA
:1019000000B5FFF7E7FF04490968044AC1F3423113
:10191000515CC84000BD000008380240DC56000899
:1019200010B51748006810F00C01164816D0431087
:10193000042912D0082911D1114C241F216801F06B
:101940003F02216849020AD52068C0F38810A0FB35
:1019500003010023FEF70AFD09E0184610BD2168C7
:101960000023C1F38811A1FB0001FEF7FFFC2168F1
:10197000C1F30141491C4900B0FBF1F010BD00006A
:10198000083802400024F4002DE9F84F0446DD4DEC
:101990002078C00753D0DB4808300168C1F38101CB
:1019A000012908D00068C0F3810002280BD1281D4E
:1019B0000068400207D52868800340D5606878BB7E
:1019C0000120BDE8F88F6068B0F5803F10D0B0F519
:1019D000A02F12D0286820F480302860286820F4D6
:1019E000802028606068E0B1FFF7BCF8064614E08C
:1019F000286840F480302860F4E7286840F48020AC
:101A00002860286840F480302860EBE7FFF7AAF8E8
:101A1000801B642801D90320D3E728688003F5D50B
:101A20000DE0FFF79FF8064606E0FFF79BF8801BE6
:101A3000642801D90320C4E728688003F5D42078FE
:101A4000B14F80074FF0000849D5AE480830016813
:101A500011F00C0F09D00068C0F38100022814D1E6
:101A6000A848001D006840020FD42868800704D5EC
:101A7000E068012801D00120A3E72868216920F04F
:101A8000F80040EAC100286029E0E068B8B1012010
:101A90003860FFF767F8064606E0FFF763F8801B3B
:101AA000022801D903208CE728688007F5D528682B
:101AB000216920F0F80040EAC10028600FE0C7F873
:101AC0000080FFF74FF8064606E0FFF74BF8801B53
:101AD000022801D9032074E728688007F5D420780C
:101AE000000729D5DFF81C928848616909F174095B
:101AF00089B101210160FFF735F8064606E0FFF7DE
:101B000031F8801B022801D903205AE7D9F80000D8
:101B10008007F4D510E0C0F80080FFF723F80646F0
:101B200006E0FFF71FF8801B022801D9032048E7D1
:101B3000D9F800008007F4D42078400772D5002639
:101B4000DFF8C0A10AF1400ADAF80000C0000BD4A7
:101B5000DAF8000040F08050CAF80000DAF800001F
:101B600000F0805000900126DFF8A4B1DBF80000FF
:101B7000C00515D4DBF8000040F48070CBF80000FD
:101B8000FEF7F0FF814607E0FEF7ECFFA0EB09004F
:101B9000022801D9032014E7DBF80000C005F3D5C3
:101BA000DFF860B1A0680BF1700B012813D0052895
:101BB00018D0DBF8000020F00100CBF80000DBF8C3
:101BC000000020F00400CBF80000A06830B3FEF75E
:101BD000C9FF81461DE0DBF8000040F00100CBF8B2
:101BE0000000F2E7DBF8000040F00400CBF8000052
:101BF000DBF8000040F00100CBF80000E5E7FEF75D
:101C0000B1FFA0EB090141F28830814201D90320E4
:101C1000D7E6DBF800008007F1D512E0FEF7A2FF5F
:101C200081460AE015E0FEF79DFFA0EB090141F2B5
:101C30008830814201D90320C3E6DBF80000800729
:101C4000F1D4012E05D1DAF8000020F08050CAF856
:101C50000000A069D8B32B4908310968C1F381019C
:101C600002294CD0022805D0C7F86080FEF77AFF21
:101C700004463FE0C7F86080FEF774FF064606E0C2
:101C8000FEF770FF801B022801D9032099E628681F
:101C90008001F5D454F81C0F4FF0FF336168E268FF
:101CA0000843A16803EB5202890141EA024108435B
:101CB000217C40EA0160217D40EA01711148001D4C
:101CC000016001203866FEF74DFF044607E014E08E
:101CD000FEF748FF001B022801D9032071E628689F
:101CE0008001F5D509E0FEF73DFF001B022801D970
:101CF000032066E628688001F5D4002061E6012013
:101D00005FE600000038024000004742800E474274
:101D1000007000407047000008B50348694600683D
:101D200003F05AFB08BD00000000002010B5044677
:101D300020688168C9040CD5C068C00509D5204653
:101D4000FFF7EAFF2068C16801F0800161F4C0710B
:101D5000C1602068816889040CD5C068800509D5F8
:101D60002046FFF7D7FF2068C16801F0800161F4C9
:101D70002071C16003494FF4003008600120607792
:101D800010BD0000143C014070B50446002C02D088
:101D9000607F10B106E0012070BD00202077204652
:101DA00000F04EF8022060772168CA20486221685E
:101DB00053204862204601F01EF9FF25042620B179
:101DC000206845626677012070BD206881681B4AE3
:101DD000114081602068816862681143D4E904235E
:101DE0001A43114381602168E06808612068016935
:101DF000228941EA024101612068C16821F0800125
:101E0000C16020688068800608D4204600F0E2F9AE
:101E100020B1206845626677012070BD2068016CA2
:101E200021F4802101642068016CA26911430164DE
:101E30002068456201206077002070BDBFFF8FFFE2
:101E400010B50068084988420CD108490120086093
:101E5000002202212920FFF7BBFABDE8104029200B
:101E6000FFF7A8BA10BD0000002800403C0E474212
:101E70002DE9F84103460C4660484FF4FA410068EA
:101E8000B0FBF1F0491148430090187F012868D059
:101E900001261E77022058770025002A63D0186893
:101EA0008068400600D4E570E069A1782278E77880
:101EB00041EA02416278120242EA0742114394F871
:101EC000202041EA02620243606902436768A06918
:101ED00007431968CA204862196853204862606A3B
:101EE000FF244FF0030CB0F5807F5CD01868816848
:101EF00021F4007181601868C16801F0800161F40B
:101F00002071C16019680098B0F10108CDF8008017
:101F100006D24C6283F81DC01D770320BDE8F8810E
:101F2000C8688007EFD50A621868876418688168F6
:101F300041F4007181601868816841F4005181604A
:101F40002F48016841F4003101602D4808300168D4
:101F500041F400310160186844625E771D7700200B
:101F6000DCE70220DAE718688068400600D4E570F4
:101F7000207801F035F80204607801F031F842EA87
:101F80000022A07801F02CF80243E07842EA0042F7
:101F900094F8200001F024F842EA0062E06902436C
:101FA0006069024392E71868816821F4807181605A
:101FB0001868C16801F0800161F4C071C1601968DE
:101FC0000098B0F10108CDF8008005D24C6283F88A
:101FD0001DC01D770320A1E7C868C007F0D0CA6103
:101FE000186847641868816841F4807181601868D6
:101FF000816841F480518160A2E700001C0000204C
:10200000003C01402DE9F04704460B46207F0128A3
:1020100007D04FF0010884F81C80022060771AB1C5
:1020200009E00220BDE8F0875878C10603D500F02A
:10203000EF000A305870F2B19878D97840EA01453B
:1020400058781978000240EA413005432168CA20D7
:102050004862216853204862204600F0CCFF0026E9
:10206000FF274FF00409B8B12068476284F81D903B
:1020700026770120D6E7D87800F0B2FF020458781E
:1020800000F0AEFF42EA0022987800F0A9FF024378
:10209000187842EA4035D9E70F4805402068456086
:1020A0002068C16821F08001C160206880688006D6
:1020B0000AD4204600F08EF830B12068476284F8D8
:1020C0001D9026770120ADE72068476284F81D80C7
:1020D00026770020A6E700003FFFFF002DE9F0472C
:1020E00004460D46207F01282DD04FF0010984F8C9
:1020F0001C900220607700263AB320688068400672
:1021000000D4EE70A878297840EA01476878E97829
:10211000000240EA014007432168CA204862216862
:1021200053204862204600F066FF4FF0FF084FF052
:10213000040A00B32068C0F8248084F81DA0267724
:102140000120BDE8F0870220FBE720688068400698
:1021500000D4EE70287800F043FF0204687800F0A5
:102160003FFF42EA0022A87800F03AFF0243E878F5
:1021700042EA0047D0E71648074020680760206819
:10218000816821F480218160D5E903100143206832
:102190008268114381602068C16821F08001C160BC
:1021A0002068806880060BD4204600F013F838B110
:1021B0002068C0F8248084F81DA026770120C0E79D
:1021C0002068C0F8248084F81D9026770020B8E7A6
:1021D0007F7F7F0070B505462868C16821F0A001A7
:1021E000C160FEF7BFFC04464FF47A7606E0FEF7C6
:1021F000B9FC001BB04201D9032070BD2868C0683B
:102200008006F4D5002070BD10B5401EB0F1807F6F
:1022100001D3012010BD4FF0E02460610F21601751
:1022200003F00EFA0020A06107202061002010BDFD
:102230007047704770B590F83C20012A31D00126D4
:1022400080F83C60022280F83D2002685468936860
:1022500024F070050C682C435460134C0268A242B1
:1022600014D0B2F1804F11D0104CA2420ED0104CBD
:10227000A2420BD00F4CA24208D00F4CA24205D074
:102280000E4CA24202D00E4CA24204D123F0800395
:102290004968194391603C3046700021017000206C
:1022A00070BD022070BD000000000140000400402D
:1022B00000080040000C00400004014000400140C4
:1022C0000018004010B50446002C03D094F83D00DF
:1022D00010B107E0012010BD002084F83C0020462A
:1022E00000F00CF8022084F83D00211D206800F069
:1022F000B5FE012084F83D00002010BD08B500683F
:102300001149884209D11148016841F00201016078
:10231000006800F00200009008BD0D498842FBD122
:102320000A48001D016841F400310160006800F4B2
:1023300000300090002203211920FFF749F8BDE882
:1023400008401920FFF736B800040040403802402A
:1023500000440140022180F83D1001688A6802F0C3
:102360000702062A03D00A6842F001020A6001212E
:1023700080F83D10002070470168CA6842F00102F1
:10238000CA600068816801F00701062903D001686E
:1023900041F0010101600020704770B5044694F8D7
:1023A0003C00012817D0012584F83C50022084F815
:1023B0003D002068826822F0770222F47F4282602A
:1023C0000868502831D00DDC20284DD005DCB0B392
:1023D00010284ED148E0022070BD302844D040285B
:1023E00047D137E060282BD0702806D0B0F5805F49
:1023F0003FD0B0F5005F3CD10BE0CB68D1E90121C3
:10240000206800F091FE2068816841F077018160CA
:102410002FE0CB68D1E90121206800F085FE20681B
:10242000816841F48041816023E0CA68496820687E
:1024300000F08CFE5021206800F080FE19E013E0CF
:10244000CA684968206800F092FE6021206800F0A8
:1024500075FE0EE0CA684968206800F077FE4021EA
:10246000206800F06BFE04E022680146104600F090
:1024700065FE3C3465700020207070BD704770B5FB
:102480000446206801694FF00005C943890716D446
:10249000C168C943890712D4E91E01610120207770
:1024A00020688069800703D02046FFF7E7FF05E03A
:1024B000204600F09BF8204600F099F82577206828
:1024C0000169C943490718D4C168C943490714D4ED
:1024D0006FF004010161022020772068806910F408
:1024E000407F03D02046FFF7C9FF05E0204600F0FB
:1024F0007DF8204600F07BF8257720680169C94304
:10250000090717D4C168C943090713D46FF008013C
:102510000161042020772068C069800703D020462D
:10252000FFF7ACFF05E0204600F060F8204600F021
:102530005EF8257720680169C943C90618D4C168C7
:10254000C943C90614D46FF0100101610820207737
:102550002068C06910F4407F03D02046FFF78EFF4B
:1025600005E0204600F042F8204600F040F82577CC
:1025700020680169C943C90708D1C168C943C907AF
:1025800004D1891E0161204600F032F820680169FB
:10259000C943090609D4C168C943090605D46FF0C7
:1025A000800101612046FFF743FE20680169C943AD
:1025B000490609D4C168C943490605D46FF04001F2
:1025C0000161204600F015F820680169C9438906B9
:1025D0000BD4C168C943890607D46FF0200101619B
:1025E0002046BDE87040FFF724BE70BD70477047BD
:1025F0007047704770B50446002C04D094F8390039
:10260000002510B106E0012070BD84F83850204646
:1026100000F022F8242084F839002068C16821F4F1
:102620000051C160204600F0B5FD2068016921F429
:10263000904101612068416921F02A0141612068CF
:10264000C16841F40051C160E563202084F839007D
:1026500084F83A00002070BD10B586B004461421FD
:1026600001A8FDF793FF14492068884221D1002179
:102670001248026842F480220260006800F4802060
:1026800000900E481038026842F0080202600068AC
:1026900000F0080000904FF440700190022002907A
:1026A0000391032004900720059001A90448FEF738
:1026B00079F906B010BD00000048004040380240E3
:1026C000000C02402DE9F05F074638680E4631469F
:1026D00000EB4114D4F808054FF00408420706EB5C
:1026E00086004FF005094FF0100A07EBC00508D52A
:1026F000C4F80885D4F80C0540F00200C4F80C05B5
:102700004AE0D4F80805C00511D54FF48070C4F82C
:102710000805072085F85D00D4F80C0540F002009C
:10272000C4F80C05F1B2386802F020F934E0D4F8AE
:102730000805800603D52020C4F808052CE0D4F84D
:1027400008054FF0080B000710D5D4F80C0540F031
:102750000200C4F80C0585F85D90C4F808A5C4F81B
:1027600008B5F1B2386802F001F915E0D4F80805AF
:10277000400511D5D4F80C0540F00200C4F80C0552
:10278000F1B2386802F0F2F8C4F808A585F85DB037
:102790004FF48060C4F80805D4F8080580050ED50C
:1027A00004F5A164606840F002006060F1B238682E
:1027B00002F0DCF84FF400702060BDE8F09FD4F820
:1027C00008054FF00001C0074FF0010242D0386900
:1027D00030B1A86CD4F81035C3F31203C01AE86402
:1027E00085F85D20A965C4F8082595F83F0030B14B
:1027F000022804D003280FD001281AD024E0D4F8EE
:102800000C0540F00200C4F80C05F1B2386802F083
:10281000ADF8C4F808A517E0D4F8000540F0005062
:10282000C4F8000585F85C20F1B23846FEF7FEF9E1
:102830000AE050352A73287880F0010005F8500925
:10284000F1B23846FEF7F2F915F8500F80F00100AA
:102850002870B2E7D4F80805800748D5D4F80C05ED
:1028600020F00200C4F80C0595F85D000223012851
:102870000AD005280BD006280CD008280AD0032837
:102880001CD0072825D029E085F85C2026E085F8B3
:102890005C9023E0A86D401CA865032803D9A965B6
:1028A00085F85C8001E085F85C30D4F8000520F004
:1028B000804040F00040C4F800050FE085F85C302F
:1028C000D4F8000520F0804040F00040C4F8000536
:1028D00004E0A86D401CA86585F85C80C4F8083544
:1028E00095F85C20F1B23846FEF7A0F965E7D4F818
:1028F0000805000612D504F5A164606840F00200E6
:102900006060A86D401CA865062085F85D00F1B2E6
:10291000386802F02BF8802020604EE7D4F80805D4
:10292000C00696D595F83F00032803D070B1022861
:102930000CD01BE0A965D4F80C0540F00200C4F8E7
:102940000C05F1B2386802F011F80FE0A96538699A
:1029500060B9032085F85D00D4F80C0540F0020052
:10296000C4F80C05F1B2386802F000F8C4F808A504
:1029700023E72DE9F047026802EB4114D4F808255B
:102980004FF0040A520709D5C4F808A5D4F80C057D
:1029900040F00200C4F80C05BDE8F087D4F8082523
:1029A0004FF00003960601EB810200EBC2054FF0E9
:1029B000020C16D52022C4F8082595F83D20012ADE
:1029C000EAD185F83D3085F85CC0D4F80C2542F09A
:1029D0000202C4F80C250068BDE8F047C9B201F056
:1029E000C5BFD4F808254FF00106520611D585F869
:1029F0005DA085F83D60AB6504F5A164626842F0B6
:102A000002026260C9B2006801F0B0FF402020609D
:102A1000C2E7D4F8082592050DD504F5A1646268D3
:102A200042F002026260C9B2006801F09FFF4FF4F9
:102A300000702060B0E7D4F80825D2070ED0AB654F
:102A400004F5A164626842F002026260C9B20068E3
:102A500001F08CFF266085F85D609DE7D4F80825BD
:102A60004FF0080912074FF005070ED5C4F8089576
:102A7000D4F80C2542F00202C4F80C25C9B2006853
:102A800001F074FF85F85D7086E7D4F808254FF0F3
:102A90001008D20618D5AB65032285F85D2095F89D
:102AA0003D2022B995F83C200AB985F83D60D4F85C
:102AB0000C2542F00202C4F80C25C9B2006801F0EE
:102AC00055FFC4F8088567E7D4F8082512060FD526
:102AD00004F5A164626842F002026260C9B2006853
:102AE00001F044FF062085F85D008020206053E758
:102AF000D4F80825520511D504F5A164626842F0A6
:102B000002026260C9B2006801F030FFC4F80080C0
:102B10004FF48060206085F85D903DE7D4F808258B
:102B2000920787D5D4F80C2522F00202C4F80C25B0
:102B300095F85D20012A0AD0032A17D0042A18D05C
:102B4000052A19D0062A1AD0082A18D02AE085F8B2
:102B50005C6095F83F20022A01D0032A22D195F823
:102B6000512082F0010285F851201BE085F85CC0FD
:102B700018E085F85CC015E085F85C7012E0AA6D7D
:102B8000521CAA65032A03D9AB6585F85CA001E055
:102B900085F85CC0D4F8002522F0804242F0004263
:102BA000C4F80025C4F808C595F85C20C9B2FEF742
:102BB0003DF8F1E67CB505462C68D4F84004019058
:102BC000D4F840040090009820F02E000090019866
:102BD000800709D50198C00702D02846FDF7C8FF35
:102BE000009840F0020000900198000727D5009857
:102BF00040F008000090019840071DD5A869022800
:102C000003D0E86801280FD012E00198C0F34140DA
:102C1000022804D00121286802F0ACF808E0022163
:102C2000286802F0A7F803E04EF66020C4F8040418
:102C30002846FEF78DF902E02846FEF785F901984F
:102C4000800603D5009840F0200000900098C4F85A
:102C500040047CBD2DE9F041034618680746016A2F
:102C600001F00F06C1F34342C1F30A15022A25D130
:102C7000002D23D006EB860103EBC104616C002913
:102C80001CD0AAB202F097F8606C28446064E06C33
:102C90002844E06407EB4610D0F81015084A1142AA
:102CA0000CD0D0F8001521F0804141F00041C0F86F
:102CB000001514F8500F80F001002070BDE8F0817D
:102CC0000000F81FFEE701684A69D24352050FD49D
:102CD0006FF480624A61002140F8301F2022427365
:102CE0008173026942F0040202610173012070479E
:102CF00000207047F8B504460D4617461E46E06AA8
:102D0000082808D0012806D010F5803F03D0206B9A
:102D1000122806D00AE02068016841F48071016041
:102D200004E02068016841F4807101603B460022A4
:102D30004FF001112046009600F05BF840B120688A
:102D40000068C00502D54FF4007020640320F8BD70
:102D50002069B0F5804F0FD005F44070F02141EAB2
:102D6000D0102168086133463A460D49204600F0EC
:102D70007DF830B10120F8BD216805F0FE00086142
:102D800002E02168E8B20861054933463A46891FE6
:102D9000204600F06BF808B10120F8BD0020F8BD16
:102DA0000800010070B504460D4616460DE02046A9
:102DB000FFF789FF08B1012070BD681C05D0FDF741
:102DC000D1FE801BA84207D835B120684069C043B6
:102DD0004007ECD4002070BD002044F8300F2021C3
:102DE0006173A073216941F02001216120730120EA
:102DF00070BD2DE9F0470446DDF820900E46904660
:102E00001D46C6F3074708E0681C06D0FDF7AAFE7A
:102E1000A0EB0900A8420FD875B1012F19D0206886
:102E2000806926EA00000004000C1DD00020404507
:102E3000EAD00020BDE8F087002044F8300F2021C0
:102E40006173A073216941F0200121612073012089
:102E5000F0E72068406926EA00000004000C01D079
:102E60000020E4E70120E2E70120E0E72DE9F04758
:102E700004460E46154698464FF000094FF0200ACA
:102E8000C6F3074725E020684069C043400517D4D2
:102E90002068016841F40071016021686FF480606E
:102EA0004861C4F8309084F83DA084F83E90206CCE
:102EB00040F00400206484F83C900120BDE8F087D5
:102EC000681C06D0FDF74EFEA0EB0800A8420BD808
:102ED00055B1012F16D02068806926EA0000000451
:102EE000000CD0D10020E9E7C4F8309084F83DA070
:102EF00084F83E90206C40F02000206484F83C90E0
:102F00000120DBE72068406926EA00000004000C8D
:102F1000E8D0B8E770B504460D4616460DE02046E9
:102F2000FFF7D1FE08B1012070BD681C05D0FDF788
:102F300019FE801BA84207D835B120684069C043FC
:102F40000006ECD4002070BD002044F8300F202192
:102F50006173A073216941F0200121612073012078
:102F600070BD000010B504490448FDF7E5FC0249B6
:102F7000491E087010BD000005000020B85600086A
:102F800010B501220B490C4800F0DCFB08B1FDF73D
:102F9000D2FC0A49084801F060FB08B1FDF7CBFC00
:102FA000054801F076FB002803D0BDE81040FDF78E
:102FB000C2BC10BDA9460008380100202000002036
:102FC000FEE770470148FDF7A1BE00008809002018
:102FD000704700000148FEF7A9BE000098000020DD
:102FE000002102E0491C0A38C0B20A28FAD20907B7
:102FF00040EA1160704770B505462868C168490607
:1030000013D44FF0FF31C160FDF7ACFD04464FF41F
:103010007A7606E0FDF7A6FD001BB04201D9032039
:1030200070BD2868C0684006F4D5002070BD7047A8
:10303000FEF764B90548016841F470010160034975
:103040004FF00060803908607047000088ED00E0B4
:103050000148FFF714BA0000B80000202DE9F04144
:103060000268264D264E274FDFF89CC0274B4FF0B5
:103070008048A84209D0404507D0B04205D0B842A8
:1030800003D0604501D0984203D122F070044A6811
:103090002243A8421BD0404519D0B04217D0B842B5
:1030A00015D0604513D0984211D0194CA0420ED0D3
:1030B000184CA0420BD0184CA04208D0174CA0428C
:1030C00005D0174CA04202D0164CA04203D122F4E6
:1030D0004074CA6822434C6922F080022243026095
:1030E0008A68C2620A688262A84201D0984201D10D
:1030F0000969016301214161BDE8F08100000140DF
:103100000004004000080040000C004000040140A2
:1031100000400140004401400048014000180040C8
:10312000001C00400020004010B5846824F47F4457
:1031300042EA03220A432243826010BD826822F0E1
:1031400070020A4342F007018160704710B5036ABC
:10315000046A24F001040462846924F0F00444EA5F
:10316000021423F00A020A438461026210BD10B502
:10317000036A23F0100303628469036A24F4704431
:1031800044EA023223F0A00343EA011182610162A2
:1031900010BD00002DE9F041044620680169E26895
:1031A00021F4405111430161A1682069E2690143A2
:1031B0006069104301432068C26849F20C639A4376
:1031C0000A43C26020684169A26921F44071114339
:1031D0004161E069DFF8A8C16A4A6B4B6B49192766
:1031E000642532264FF00008B0F5004F36D0206835
:1031F000884205D0604503D0904201D098427CD1EE
:10320000FEF77EFB01466068830F8200A1FB070189
:10321000FDF7ACF80146B0FBF5F06FF01802504333
:1032200001EB800006EB0010B0FBF5F000F0F002BF
:10323000B1FBF5F002EB0012B1FBF5F06FF01803F3
:10324000584301EB800006EB0010B0FBF5F021685D
:1032500000F00F0010448860BDE8F08120688842CB
:1032600005D0604503D0904201D098422CD1FEF7A2
:1032700047FB014660680218A1FB070148EB080301
:10328000FDF774F80146B0FBF5F00201B1FBF5F073
:103290006FF01803584301EB800006EBC000B0FB51
:1032A000F5F000F0F80002EB4002B1FBF5F05843F6
:1032B00001EB800006EBC000B0FBF5F0216800F0E8
:1032C000070010448860C7E7FEF70AFB0146606804
:1032D0000218A1FB070148EB0803FDF747F8014678
:1032E000B0FBF5F00201B1FBF5F06FF018035843A5
:1032F00001EB800006EBC00000E014E0B0FBF5F04D
:1033000000F0F80002EB4002B1FBF5F0584301EB8E
:10331000800006EBC000B0FBF5F0216800F007006C
:103320001044886098E7FEF7DBFA01466068830F77
:103330008200A1FB0701FDF719F80146B0FBF5F08B
:103340006FF01802504301EB800006EB0010B0FB59
:10335000F5F000F0F002B1FBF5F002EB0012B1FB6A
:10336000F5F06FF01803584301EB800006EB0010F6
:10337000B0FBF5F0216800F00F00104488606BE7A7
:103380000014014000180140001C014000100140E1
:1033900070B504460D46204600F0C8F8A0F57F42FF
:1033A000FF3A07D000F00F0204EB820245F400411F
:1033B000C2F88413C0B270BD7FB51E46012500243B
:1033C000CDE90051CDE9022402232A46314600F01E
:1033D0009AFA04B0002070BD7FB50C4608991E46CD
:1033E00090F81D53002D00D00021CDE902210125C8
:1033F000CDE9005402230022314600F084FA04B0E3
:10340000002070BD10B500F0BEF9002010BD82781C
:10341000012A07D102220274012242740022428250
:103420008182C2820022114600F010B87FB51E468C
:1034300000240125CDE90051CDE9022423462A4686
:10344000314600F060FA04B0002070BD70B504464B
:103450000120A3780125012B0BD0022B08D1204697
:1034600000F085F858B1032809D0022800D1A570D2
:1034700070BDA160A28125760221A17070BDA570EA
:103480000021217670BD7FB50C4608991E4690F844
:103490001D53002D00D00021CDE902210125CDE9E9
:1034A000005400231A46314600F02DFA04B00020E3
:1034B00070BD7FB5154600230824CDE90031CDE964
:1034C00002431A46294600F01EFA04B0002070BDDF
:1034D00070B50546002005F54E7517E000EB800439
:1034E00004EBC00405EB44040A3466798E4201D033
:1034F000FF2909D1A679964201D0FF2A04D1E479A7
:103500009C4206D0FF2B04D0401CC0B20228E5D359
:10351000FF2070BD0B2907D200EB8100B0F88413A7
:10352000C1F30E01C0F8841300207047014600204B
:1035300001EB8002B2F88423120405D5401CC0B20E
:103540000B28F5D34FF6FF70704701460020002985
:1035500006D0012905D0022905D0032905D0022073
:1035600070470220704701207047022070472DE904
:10357000F84F04460125207E01210B2609274FF034
:1035800007084FF005094FF00D0A0C280FD2DFE8AD
:1035900000F0CC060F303C4C59737F929FB2627999
:1035A00004F110012046FFF784FF02202076BCE0E2
:1035B0006179204600F036F9012804D0042816D09D
:1035C000022814D0B1E0207C00F08000E18A39B1FB
:1035D000802802D084F81890A7E003202076A4E089
:1035E000802802D084F818809FE027769DE0267618
:1035F0009BE0D4F8C403E0812379A2892046A16826
:10360000FFF714FF042020768FE02179204600F098
:1036100009F9012800D12776052802D0042802D014
:1036200083E0032581E026767FE000916379A2891B
:103630002046A168FFF727FFD4F8C403E0810620E5
:10364000207672E06179204600F0ECF8012806D07F
:10365000052807D0022809D004280AD065E084F89C
:10366000188062E00C20207603255EE084F8189034
:103670005BE02676022558E0002223791146204699
:10368000FFF7D4FED4F8C403E081082020764CE094
:103690002179204600F0C6F8012804D0042806D07D
:1036A000052806D041E084F818A000253DE02676E4
:1036B0003BE0032539E00091002263791146204662
:1036C000FFF7E1FED4F8C403E0810A2020762CE065
:1036D0006179204600F0A6F8012804D0022806D01F
:1036E000042806D021E0002584F818A01DE02776E4
:1036F0001BE0267619E0607E401CC0B2607602288E
:1037000002D82176A17010E0D4F8D42306212046F7
:1037100090470025657661792046FFF7FBFE217909
:103720002046FFF7F7FE257002252846BDE8F88FF2
:1037300001780B2905D1D0F87C13002901D08969C3
:103740000847704770B504460E46002C19D084F81F
:10375000CC230025C4F87C53C4F880532046FDF7E1
:10376000C2F884F8235384F8205384F8215384F852
:1037700022530EB1C4F8D463204600F05FF8002055
:1037800070BD022070BD10B5D0F8D003FDF708FA67
:10379000BDE81040FFF7D9BE00F548700121017067
:1037A0000021417081700020704710B5044601204F
:1037B00084F82103002084F8200384F823032046A2
:1037C00000F098F821792046FFF7A4FE61792046A1
:1037D000FFF7A0FE002010BD10B590F8CC03012823
:1037E00004D1012240210448FDF7B5F9C820FDF7B6
:1037F000C7F8002010BD000000180240D0F8D00328
:10380000FDF7C8B9D0F8D00301EB810100EBC1008E
:1038100090F83B10002902D090F85000704790F8C3
:1038200051007047D0F8D003FDF7ADB9D0F8C413FC
:10383000491CC0F8C413FFF77BBF000010B5044655
:1038400094F8CC0301281CD10F48C0F8C042C4F83A
:10385000D0034FF0A04101600C2181600121C160C3
:103860000022026102228261C161FDF7E8FA08B11B
:10387000FDF761F80448FDF783F90146204600F0A2
:103880001CF8002010BD000088090020FEB5DDE90D
:1038900008650A9CCDE900650294D0F8D003FDF7D5
:1038A00091F9BDE8FE40FFF750BE002180F82313D8
:1038B0007047012180F823137047C0F8C413704784
:1038C000D0F8D00301EB810100EBC10090F83B1070
:1038D000002902D080F8502001E080F8512000201B
:1038E000704710B5D0F8D003FDF73AFBBDE81040A3
:1038F000FFF72BBE10B5D0F8D003FDF747FBBDE8AE
:103900001040FFF722BE2DE9FF41DDE90B760A9D4D
:103910000D9CCDE9017600950394D0F8D003FDF716
:1039200086F904B0BDE8F041FFF70FBE0346022060
:10393000D3F87C13C969002A05D0012A07D18979F7
:103940001846FFF764BDC9791846FFF760BD704798
:10395000D0F87C03C069054950304160044981605A
:1039600001210170817000207047000055534243CF
:10397000504030202DE9F84F06460125D6F87C034B
:10398000C4690727A84694F850004FF00B0B4FF07E
:103990000A094FF0090A0C2815D2DFE800F0FB06EF
:1039A0001537426875A3AEC6D4F384F861100220BF
:1039B00084F85000CDF8008063791F2204F154018F
:1039C0003046FFF709FDE5E061793046FFF72AFF51
:1039D000012804D0022813D0052814D0DAE0E06DC5
:1039E00058B194F86000000603D5032084F8500015
:1039F000D0E0052084F85000CCE084F85070C9E095
:103A000084F85080C6E084F85090C3E0237962893E
:103A10003046D4F88C10FFF7CFFC042084F8500017
:103A2000B8E021793046FFF7FDFE012802D00528D5
:103A30001AD0AFE06289E06D904207D9D4F88C10BB
:103A40001144C4F88C10801AE06501E00020E065A4
:103A5000E06D30B123793046D4F88C10FFF7ACFC20
:103A600098E084F8507095E084F850A092E0CDF88A
:103A70000080637922893046D4F88C10FFF7ACFCC3
:103A8000062084F8500085E061793046FFF7CAFED1
:103A9000012804D002281ED0052820D07AE02289EF
:103AA000E06D904207D9D4F88C101144C4F88C1002
:103AB000801AE06501E00020E065E06D40B1CDF8DE
:103AC000008063793046D4F88C10FFF785FC61E004
:103AD00084F850705EE0052084F850005AE084F8C5
:103AE000509057E023790D2204F178013046FFF71A
:103AF00063FC082084F850004CE021793046FFF741
:103B000091FE012802D005280CD043E084F85080B3
:103B100084F85280304600F093F808B1022539E06D
:103B2000002537E084F850A034E000223046FFF74B
:103B3000FDFE10B1042803D02CE084F8507029E079
:103B400084F850B026E001223046FFF7EFFE10B1B6
:103B5000042814D01EE061793046FFF753FEC0F10F
:103B60000100C2B261793046FFF7AAFE2179002236
:103B70003046FFF7A5FE84F850A00BE002E084F881
:103B800050B007E0304600F013F80546280001D198
:103B900084F850802846BDE8F88FA1220274FE22E6
:103BA00042740022428282820122C282FFF74EBC0E
:103BB00021210174FF214174002141828182C1824F
:103BC00000221146FFF742BC70B50246D2F87C03D2
:103BD000C4690125A07B002804D0022802D0032854
:103BE0002CD124E021461046FFF7D7FF05460023DD
:103BF000032D01D12370002505BB2078022801D9AF
:103C0000022000E0401C2070002102200BE001EBAC
:103C1000810202EBC10204EB820282F8920082F878
:103C2000C130491CC9B222788A42F0D806E000218E
:103C30001046FFF7ECFB08B9E07BA073284670BD87
:103C400070B5D0F87C13CC6901252179FFF7D6FD3A
:103C50000D2801D0022514E00B49A06F88420FD136
:103C6000A16DE06F88420CD194F8840020B1012846
:103C700007D0022802D004E0002502E0022500E07F
:103C80000225284670BD00005553425310B5144616
:103C9000D0F87C33DB6900780B2801D0022010BDFE
:103CA00001EB810000EBC10003EB80019031342275
:103CB0002046FCF717FC002010BD70B50546D5F86E
:103CC0007C03C46900266179002907D02846FFF7E4
:103CD00099FB61792846FFF71DFC6671217939B19E
:103CE0002846FFF78FFB21792846FFF713FC267142
:103CF000D5F87C03C06920B1FCF711FBD5F87C0333
:103D0000C661002070BDFEB505465023D5F87C0382
:103D1000062201792846FFF7DBFB0646FF2E01D07D
:103D2000022E01D30220FEBD3146284600F0A6FC3B
:103D300008B10220FEBD4FF480773846FCF7C0FA88
:103D4000D5F87C13C8610446200011D03946FCF731
:103D50001DFC06EB860000EBC60005EB400090F86A
:103D60004E130A0606D5E171B0F85013618105E0E3
:103D70000220FEBDA171B0F85013218190F85613B6
:103D80000A0604D5E171B0F85803608103E0A1711F
:103D9000B0F858032081002020736073A073A179CC
:103DA0002846FFF7F5FA6071E1792846FFF7F0FA47
:103DB00020712846FFF7CCFD208995F81D130226B7
:103DC000CDE90016029095F81C33A2796179284656
:103DD00000F038FC608995F81D13CDE900160290BB
:103DE00095F81C33E2792179284600F02BFC2179E3
:103DF00000222846FFF764FD617900222846FFF77C
:103E00005FFD0020FEBD2DE9F0470546D5F87C0397
:103E1000C4694FF0010A207B002802D001282DD16F
:103E200082E1B4F8F800217801264FF000088842BA
:103E30007DD200EB800101EBC00004EB800080F834
:103E40009160B4F8F800022700EB800101EBC0019B
:103E500004EB81024FF0050992F8901009290DD268
:103E6000DFE801F0050C42C20DF20C0CF100042059
:103E700082F89000D5F8C403C4F8FC0056E1C1B242
:103E80009F32284600F0F6F948B9B4F8F81001EB73
:103E9000810202EBC10104EB810181F890700228DC
:103EA00002D004280BD041E1B4F8F80000EB800107
:103EB00001EBC00004EB800080F8909036E1B4F88C
:103EC000F80000EB800101EBC00004EB800080F8FB
:103ED0009060B4F8F80000EB800101EBC00004EB47
:103EE000800080F8917021E1C1B2284600F0EBFA21
:103EF00080BBB4F8F81001EB810202EBC10104EBC6
:103F0000810191F8922012B181F8C16001E081F83D
:103F1000C180B4F8F810032201EB810303EBC10167
:103F200004EB810181F89020B4F8F81000E0F2E091
:103F300001EB810202EBC10104EB810181F8918068
:103F4000B4F8F81001EB810202EBC10104EB81012E
:103F500081F89280022802D0042830D0E6E0B4F83C
:103F6000F80000EB800101EBC00004EB800090F84A
:103F70009210022902D080F8C16001E080F8C1806F
:103F8000B4F8F80000EB800101EBC00004EB800006
:103F900080F89090B4F8F80000EB800101EBC000CD
:103FA00004EB800080F89160B4F8F80000EB800129
:103FB00001EBC00004EB800080F89270B6E0B4F82A
:103FC000F80000EB800101EBC00004EB800080F8FA
:103FD0009060B4F8F80000EB800101EBC00004EB46
:103FE000800080F89170A1E0C1B29432284600F0C0
:103FF000E4F920B102281BD0042826D096E0B4F8BA
:10400000F80000EB800101EBC00004EB800080F8B9
:104010009060B4F8F80000EB800101EBC00004EB05
:10402000800080F8918034F8F80F401C20807DE0FB
:10403000B4F8F80000EB800101EBC00004EB800055
:1040400080F8909072E062E014E0B4F8F80000EBC1
:10405000800101EBC00004EB800080F89060B4F8B0
:10406000F80000EB800101EBC00004EB800080F859
:1040700091705BE0C1B29C32284600F0E1F900BBD0
:10408000B4F8F81001EB810202EBC10104EB8101ED
:1040900091F89C20062A01D0022A0BD1D5F8C4231E
:1040A000D4F8FC30D21A42F210739A4202D281F84C
:1040B00090703BE081F89060B4F8F810491CA4F8C7
:1040C000F810022802D004280CD02FE0B4F8F80031
:1040D000082100EB800202EBC00004EB800080F8B6
:1040E000901023E0B4F8F80000EB800101EBC00071
:1040F00004EB800080F89060B4F8F80000EB8001D9
:1041000001EBC00004EB800080F891700EE0401CD1
:10411000A4F8F8000AE0A4F8F8802673D5F8D423B0
:1041200002212846904701E04FF0000A5046BDE8C2
:10413000F0872DE9F843D0F87C23D269012501EB03
:10414000810303EBC10302EB8304012694F8902062
:104150000827052A33D000234FF00508062A02D08D
:10416000072A3ED115E0009300231A4600F0E6F836
:1041700020B1022806D0042807D032E084F89060ED
:1041800000252EE084F890802BE084F890700225C2
:1041900027E0009300231A4600F0BAF920B1022864
:1041A00006D0042807D01CE084F89060002518E0B1
:1041B00084F8908015E084F89070022511E004F1F5
:1041C0009C0200F03DF928B984F89060022184F83F
:1041D00091100225022804D0042802D184F890709E
:1041E00002252846BDE8F8832DE9F8430446089FD8
:1041F0008846D4F87C03C56994F8200300280CD0C5
:1042000020780B2809D108EB880000EBC80005EBEB
:10421000800090F89010012902D00220BDE8F883B8
:104220000621297380F89010A5F8FA8041462046AF
:10423000009700F083F8D4F8C46340F271204FF087
:104240000109474308E0D4F8C403801BB0EB071F03
:104250000CD894F8200348B141462046FFF769FF87
:104260000128F0D085F80C900020D7E785F80C9055
:104270000220D3E72DE9F041034615460226D3F884
:104280007C03C46900274FF0010894F8520001280C
:1042900002D002284FD11EE024205334C4F8090074
:1042A000802262730A22E2732761676127831222E8
:1042B000227449016174A774E7742075677504F866
:1042C000038C022004F8010C533C04F11000C4F8E4
:1042D0008C0001262FE01846FFF74CFB0646300005
:1042E00029D122212846FCF72FF954F88C0F0078A9
:1042F00000F01F006870206800784009287054F8AA
:104300008C094078000602D585F8028000E0AF7085
:1043100054F88C0F8168C5F80310C068C5F8070011
:1043200021681022103105F10C00FCF796F8206886
:10433000006AC5F81D003046BDE8F0817FB505462E
:104340001E460220D5F87C23D46994F85220012A15
:1043500007D0022A2FD104B02846BDE87040FFF7ED
:1043600009BB5C340899A08F4843206080202071ED
:104370000A20A0715C3C102104F16300FCF7E4F812
:1043800028205034E0749DF80B0060759DF80A00F9
:10439000A0759DF80900E0759DF8080020769DF84D
:1043A0002100A0769DF82000E076012020700220F8
:1043B000A070E663012004B070BD70B503461646D8
:1043C0000125D3F87C03C46994F85200012802D077
:1043D000022833D119E00820E065802084F86000CD
:1043E0000A2084F86200102104F16300FCF7ACF8A5
:1043F00025205034E074012020700220A070503C31
:1044000004F11000C4F88C0018E01846FFF7B2FA67
:104410000546280012D154F88C0FC178827841EA01
:10442000022142780078120442EA006001433160C0
:104430002068C179807941EA0020B080284670BDAB
:1044400070B503460E4615460220D3F87C13CC699E
:1044500094F85220012A14D0022A11D1314618466C
:10446000FFF788FA00280BD154F88C1F897801F0E7
:104470000F0129702168097B69702168497BA97047
:1044800070BD0E25E565802084F860000A2084F860
:104490006200102104F16300FCF756F80320503449
:1044A000E0747001207500206075A075E5752076B8
:1044B000012020700220A070503C04F11000C4F8CC
:1044C0008C00012070BD70B503460220D3F87C2318
:1044D000D46994F85220012A06D0022A17D1BDE8E7
:1044E00070401846FFF746BA0025E56584F860502D
:1044F0000A2084F86200102104F16300FCF724F81C
:104500005034E574012020700220A070012070BD9D
:104510007FB505461E460220D5F87C23D46994F861
:104520005220012A07D0022A2FD104B02846BDE824
:104530007040FFF71FBA5C340899A08F4843206091
:10454000002020710A20A0715C3C102104F163005E
:10455000FBF7FAFF2A205034E0749DF80B006075D9
:104560009DF80A00A0759DF80900E0759DF8080007
:1045700020769DF82100A0769DF82000E0760120AD
:1045800020700220A070E663012004B070BD0020FE
:104590007047D0F87C23D26900780B2808D101EB52
:1045A000810000EBC10002EB800090F8910008B19F
:1045B00000207047012070472DE9F8430446089F0A
:1045C0008846D4F87C03C56994F8200300280CD0F1
:1045D00020780B2809D108EB880000EBC80005EB18
:1045E000800090F89010012902D00220BDE8F883E5
:1045F0000721297380F89010A5F8FA8041462046DB
:104600000097FFF785FFD4F8C46340F271204FF0A4
:104610000109474308E0D4F8C403801BB0EB071F2F
:104620000CD894F8200348B141462046FFF781FD9D
:104630000128F0D085F80C900020D7E785F80C9081
:104640000220D3E7FEB5DDE908650A9CCDE90065E7
:104650000294FFF71BF90020FEBD0246002000294E
:104660000AD0D2F880330BB1022070470123C2F880
:104670008033C2F87813704702207047024600204A
:1046800092F83C338B4202D982F8241370470220FF
:10469000704710B504462046FFF723F90121204654
:1046A000FFF79AF8002010BD012908D00748022919
:1046B00006D0042907D0052901D1032101707047D4
:1046C000022101707047012101707047090000202C
:1046D0000020704730B58DB015460124002909D05F
:1046E000012909D0022912D003291CD004240DB0BD
:1046F000204630BD0024FAE701466A461048FFF71D
:10470000C5FA0028F3D1019828600024EFE701469C
:104710006A460B48FFF7BAFA0028E8D1BDF808004E
:1047200028600024E3E701466A460548FFF7AEFA31
:104730000028DCD1BDF80800400A28600024D6E734
:104740003801002030B58FB00546012400930B4698
:1047500029460C48FFF748FD68B102AA29460948D6
:10476000FFF794FA9DF81500042806D0282804D0F5
:104770003A2803D101E0002400E003240FB02046D2
:1047800030BD00003801002010B501240146034867
:10479000FFF7FFFE00B10024204610BD38010020C5
:1047A00030B58FB00546012400930B4629460E48CC
:1047B000FFF702FF78B102AA29460B48FFF766FA15
:1047C0009DF8150004280AD0272806D0282806D0EE
:1047D0003A2805D103E0002402E0022400E003248B
:1047E0000FB0204630BD0000380100200FB410B5D6
:1047F0000446089801281AD0E06840F04000E060C4
:10480000204600F033F80C9941B3A16B21F48031BC
:10481000A1630699012907D1A16841F00601A160B1
:10482000A16841F02001A16010BC5DF814FBA06BF1
:1048300020F48030A063E0680B490840E060E06845
:1048400020F44010E0600F98012803D1E06840F4A4
:104850008010E060204600F009F8DAE7A16B41F42F
:104860008031A163D5E70000BFFFBDFF00210C4AE6
:10487000491C914201D9032070470369002BF7DAE4
:104880000021036943F001030361491C914201D9EE
:10489000032070470369DB07F7D100207047000051
:1048A000400D0300816821F0010181600020704704
:1048B00000EB411000F5A060044A0261016821F09C
:1048C000804141F0004101600020704700000880F5
:1048D00008B5D0F840240092009A22F02E020092EF
:1048E000009AD20406D4012904D1009A42F48052DD
:1048F000C0F84024009AD20405D521B9009921F4CA
:104900008051C0F84014002008BD816841F00101C9
:104910008160002070470000002110220261054ADA
:10492000491C914201D9032070470369DB06F7D483
:1049300000207047400D03000022202343EA81112C
:1049400001610549521C8A4201D90320704703695D
:104950009B06F7D400207047400D0300D0F80804F0
:1049600080B27047406900F00100704710B5002226
:1049700000EB4111D1F80035C3F381434FF47A7451
:10498000002B14D0022B12D0D1F8003543F0804315
:10499000C1F80035D0F8100410F47F0F30D0D1F8F2
:1049A000000540F00040C1F80005002010BDD1F81E
:1049B000003543F08043C1F80035C06A10F47F0F22
:1049C00006D0D1F8000540F00040C1F80005ECE742
:1049D00001F5A061086820F000400860086840F018
:1049E00000400860086820F400400860A1F5A0615C
:1049F000521CA242D9D8D1F800050028F8DBD4E730
:104A000001F5A061086820F000400860086840F0E7
:104A100000400860086820F400400860A1F5A0612B
:104A2000521CA242C1D8D1F800050028F8DBBCE72F
:104A30002DE9F043DDE907C5099F002600EB41148D
:104A40004FF0FF38C4F80885002D1AD0012D40D052
:104A5000022D16D0032D2ED00126D0F8188401F097
:104A60000F09012101FA09F148EA0108C0F8188488
:104A7000816941F000718161100638D54FF4004022
:104A800036E040F29D48C4F80C855FEA026806D51E
:104A9000D4F80C8548F48078C4F80C85DDE7D0F8AC
:104AA0003C805FEAC858D8D5D4F80C8548F0600837
:104AB000C4F80C85D1E740F29D68C4F80C855FEA24
:104AC0000268CAD5D4F80C8548F48078C4F80C85FF
:104AD000C3E740F22528C4F80C855FEA0268BCD51C
:104AE000D4F80C8548F4C078C4F80C85B5E70020EC
:104AF000BCF1020F18D000214FF0FE5C0CEA83538A
:104B00004FF4F04C0CEAC22213434FF4402202EA65
:104B100085421343C7F30A02134303430B43C4F80C
:104B20000035032D03D008E04FF40031E4E7D4F85A
:104B3000000540F00050C4F800053046BDE8F083A1
:104B4000D0F8140480B27047F8B54D784FF4807CEB
:104B5000C36B4FF00007DB0516D50B79A3B912B96B
:104B60004B79012B02D0012A05D00DE02946FFF731
:104B70009FFE0020F8BD00EB4514D4F80C3523F05F
:104B80006003C4F80C354F710E695EB10C8933199E
:104B90005B1EB3FBF4F39BB2634504D96346240266
:104BA0000C6100E00123CC7814B10C895C430C61EA
:104BB0000C696FF06046C4F3120406EAC3431C4359
:104BC0008B7A4FF0C04606EA43731C4300EB451353
:104BD000C3F8104512B1CC68C3F81445D0F80844A6
:104BE00044F30004641C03F5A0631D6825F0005520
:104BF0001D601D6845EA44741C601D68244CA3F5C3
:104C0000A0632560256825F080452560CD7825B115
:104C1000256845F40045256003E0256825F4004536
:104C20002560256845F0004525602468C3F80045E7
:104C30005ABBCA784ABB0B693BB3CA7932B1012A65
:104C400010D0022A02D0032A18D10BE0DB1CC3F3D8
:104C50008F02C36A9BB2934210D2826942F0200253
:104C600082610BE0DB1CC3F38F02D0F810349BB2DF
:104C7000934203D2826942F08062826100970A8A7D
:104C800093B24A78C96800F0FDF80020F8BD000032
:104C90000C0000200FB470B504460025C4F8005E77
:104CA000A06B20F40010A063A06B20F40030A06380
:104CB000E06BC00510D50798012806D0D4F8000491
:104CC00020F00401C4F800140CE0D4F8000440F013
:104CD0000401C4F8001405E0D4F8000420F0040135
:104CE000C4F8001410212046FFF726FE2046FFF7E7
:104CF00013FE0020461E06E004EB4011C1F80865D3
:104D0000C1F80C55401C06998142F5D80121204676
:104D1000FFF7DEFDC820FBF733FEA5616661E06B9F
:104D2000C00508D54FF4007060620D48A0620D48C0
:104D3000C4F8000106E0802060620B48A0620B48C6
:104D4000C4F80001089818B9A06940F01000A061EB
:104D5000A06907490843A06170BC00205DF814FBFE
:104D6000000200010003E00080006000E00040005D
:104D7000080020A3D0F8002422F00302C0F8002489
:104D8000D0F8002401F003031A43C0F800240129DD
:104D900002D0022905D008E04BF68031C0F8041497
:104DA00003E041F27071C0F80414002070474169BB
:104DB00080690840704710B503460846D21C920827
:104DC000002103F5805302E01C6810C0491C914289
:104DD000FAD310BD10B5C26822F0C042C2600129EA
:104DE00002D031B1012010BDC16841F00051C16055
:104DF00003E0C16841F08041C1603220FBF7C0FD93
:104E0000002010BD30B5054600242846FFF74AFDB6
:104E100010212846FFF790FD2846FFF77DFD002171
:104E200005EB4110D0F8002542F0804222F000420C
:104E300022F40042C0F80025491C0F29F0D90021B6
:104E40004FF47A7305EB4112D2F8000540F0804030
:104E500040F0004020F40040C2F80005641C9C4271
:104E600003D8D2F800050028F8DB491C0F29E9D93E
:104E70004FF0FF30C5F8140468612846FFF745FD80
:104E8000002030BD10B5029C002C0CD1DB1C9C080E
:104E9000002300EB023000F5805002E004C90260FC
:104EA0005B1CA342FAD3002010BDFEE730B591B0E1
:104EB00014210CA8FBF76AFB00240B94282101A8FD
:104EC000FBF764FB2A482949016044607F21816027
:104ED000FF21C160046144618461FCF755FF08B1A2
:104EE000FBF729FD22208DF830008DF831408DF838
:104EF00032404FF480350F95109401220CA91C48C4
:104F0000FDF7ECF808B1FBF716FD07208DF82C0033
:104F10008DF82D0005208DF82E0020208DF82F0013
:104F200001220BA91248FDF76DF808B1FBF703FD4C
:104F300010208DF804008DF805008DF806400294CD
:104F4000049505940B4806900794089401208DF869
:104F5000240000020A90012201A90548FCF788FFFD
:104F6000002801D0FBF7E7FC11B030BD002800405D
:104F700098000020008080802DE9F04387B0142144
:104F800002A8FBF703FB00244248016841F004013A
:104F90000160016801F004010191016841F08001A4
:104FA0000160016801F080010191016841F0010197
:104FB0000160016801F001010191016841F0020105
:104FC0000160016801F002010191016841F00801EE
:104FD0000160016801F008010191016841F04001A0
:104FE0000160006800F0400001902B4F0022022178
:104FF0003846FBF7B0FDDFF8A48044F281060022BA
:1050000031464046FBF7A7FDDFF89490002240218F
:105010004846FBF7A0FD4FF4005002902148039052
:10502000049402A92048FBF7BDFC02200290012550
:1050300003950494059402A93846FBF7B3FC029645
:1050400003950494059402A94046FBF7ABFC0022AB
:1050500010213846FBF77FFD102002900395049441
:10506000059402A94046FBF79DFC40200290039561
:105070000494059402A94846FBF794FC8020029012
:105080000394049402A94846FBF78CFC07B0BDE8E2
:10509000F08300003038024000000240000402406B
:1050A00000180240000011100008024010B50D4821
:1050B0000B4901600C49416000218160C1604FF4DF
:1050C0008042026141618161C1610162FBF770FF51
:1050D000002803D0BDE81040FBF72DBC10BD000038
:1050E0000054004044000020A086010010B586B0A6
:1050F00000240294039404940594009401941448A9
:10510000124901604721416084604FF6FE71C16021
:1051100004618461FDF7D6F808B100F03BF84FF464
:105120008050029002A90A48FDF737F908B100F053
:1051300031F80094019469460548FDF77BF8002892
:1051400001D000F027F806B010BD000000040040B8
:10515000580C00201CB500F0F001000141F00C02D9
:105160008DF8042041F008018DF8051040F00C0185
:105170008DF8061040F008008DF8070064200090BC
:10518000042301AA4E210248FBF7DEFF1CBD0000EC
:10519000440000207047000010B50C480A49016027
:1051A0004AF28C114160002181604FF6FE72C260AC
:1051B00001618161FDF786F8002803D0BDE8104049
:1051C000FBF7B9BB10BD000000440140B80000204F
:1051D0001CB500F0F001000141F00D028DF8042033
:1051E00041F009018DF8051040F00D018DF8061011
:1051F00040F009008DF8070064200090042301AA04
:105200004E210248FBF7A0FF1CBD00004400002017
:1052100030B5A9B034211CA8FBF7B8F9142117A8A0
:10522000FBF7B4F9582101A8FBF7B0F90025254890
:10523000016841F080510160006800F080500090EA
:105240002148016841F440410160006800F4404099
:10525000009005201C9000041D9001201E90022447
:1052600022948005239004202490482025902694A1
:105270000320279028941CA8FCF786FB08B1FBF7B5
:105280005AFB0F201790189419954FF480501A90DC
:105290004FF4E0501B90022117A8FCF775FA08B1F3
:1052A000FBF749FB282001904FF480700A900D9580
:1052B00001A8FCF7BFF8002801D0FBF73CFB29B0A0
:1052C00030BD0000403802400070004010B50C486E
:1052D0000A4901604FF4E131416000218160C16001
:1052E00001610C2242618161C161FDF783F90028EF
:1052F00003D0BDE81040FBF71EBB10BD00480040C6
:10530000F8000020044900220B685A6209684A6AC2
:105310008242FCD370470000580C002010B53220A8
:10532000FBF72EFB3020FFF715FF0520FBF728FBCE
:105330003020FFF70FFF0120FBF722FB3020FFF7A3
:1053400009FF0A20FBF71CFB2020FFF703FF0A20C0
:10535000FBF716FB2820FFF7FDFE0120FBF710FBF3
:105360000820FFF7F7FE0120FBF70AFB0120FFF7FB
:10537000F1FE0120FBF704FB0120FBF701FB0620F7
:10538000FFF7E8FE0120FBF7FBFABDE810400C2018
:10539000FFF7E0BE0148FCF7DDBF0000580C00201D
:1053A00010B50020FFF7D6FE00242020FFF710FFE5
:1053B000641C642CF9DB10BD10B5064C2068002875
:1053C00005D1182000F028F900F00AF820602068C4
:1053D00010BD0000400000200C3000F02BB8000091
:1053E00010B5064C2021224600F00AF82246102172
:1053F0000C3000F0E3F80C3810BD0000000402404F
:10540000024B03600181426070470000EC560008C7
:1054100070B5044600255020FFF774FF21896068AD
:10542000FBF792FB00B901254FF4C870FFF76AFF44
:10543000284670BD70B504460D46206802682046B7
:1054400090472068426820469047C8B30120FBF788
:1054500097FACC21204600F079F84421204600F04C
:1054600075F84FF44870FBF78BFA20680268204605
:105470009047206842682046904720B30120FBF700
:105480007FFACC21204600F061F8BE21204600F0D2
:105490005DF8206881682046884706462068816854
:1054A0002046884746EA002000EE100ADFED070A92
:1054B000B8EE400A20EE200A85ED000A012070BDFA
:1054C000FFE70020FBE70020F9E700000000803D37
:1054D00070B5044600262189606800F077F8002541
:1054E0002189606800F084F8218900226068FBF758
:1054F00032FB0120FFF706FF2189606800F066F8A3
:1055000021896068FBF720FB18B10120A8403043D7
:10551000C6B23220FFF7F6FE6D1C082DE0DB3046E8
:1055200070BD10B504462189606800F061F82189DA
:1055300000226068FBF70FFB4FF4F070FFF7E2FE0C
:1055400021896068BDE8104000F040B82DE9F041C5
:1055500004460E462189606800F04AF800250127BC
:1055600007FA05F0304213D02189606800F040F856
:10557000218900226068FBF7EEFA0120FFF7C2FEE6
:105580002189606800F022F83220FFF7BBFE0FE0AF
:105590002189606800F02CF8218900226068FBF7FF
:1055A000DAFA3220FFF7AEFE2189606800F00EF8CB
:1055B0006D1C082DD4DBBDE8F0810000024B0360B8
:1055C00001814260704700000857000830B585B07F
:1055D00005460C4614216846FAF7D8FF00940021CE
:1055E0000191029169462846FBF7DCF905B030BD10
:1055F00030B585B005460C4614216846FAF7C6FF5B
:105600000094012101910021039169462846FBF78E
:10561000C9F905B030BD000010B5040007D1012460
:1056200005E0FAF7E1FF006800B90448804720462A
:10563000FAF746FE0028F4D010BD00008D060008E1
:105640000907090E002804DB00F1E02080F80014AF
:10565000704700F00F0000F1E02080F8141D704743
:10566000FBF754FEFFF7D4FDFFF786FCFFF72EFE95
:10567000FDF778FCFFF73AFDFDF782FCFFF716FD1A
:10568000FFF714FCFFF788FDFFF784FE0548FCF7E1
:1056900073FEFFF743FEFFF783FEFFF78DFE02491F
:1056A0000860FEE7B8000020000000204FF04070C6
:1056B000E1EE100A70470000D14600088947000853
:1056C00045470008A1470008D54600080000000033
:1056D00000000000010203040607080900000000A2
:1056E00001020304000000000000000000000000B0
:1056F00000000000000000000000000000000000AA
:1057000000000000000000002355000811540008AC
:10571000D154000800000000000000004D53430079
:105720004057000800000020440000001402000858
:105730008457000844000020B44C000030020008E8
:105740000000000000000000000000000000000059
:105750000100000010000000000000000024F40020
:105760001C57000808000000073D0008BB3C00086B
:10577000C93B0008073E00088F45000800000000F4
:045780000000000025
:04000005080001D915
:00000001FF
