:020000040800F2
:10000000604C0020810200080B220008A921000892
:1000100009220008D50700088B40000800000000F6
:100020000000000000000000000000001B2200088B
:100030002508000800000000192200081D22000801
:100040009B0200089B0200089B0200089B0200081C
:100050009B0200089B0200089B0200089B0200080C
:100060009B0200089B0200089B0200089B020008FC
:100070009B0200089B0200089B0200089B020008EC
:100080009B0200089B0200089B0200089B020008DC
:100090009B0200089B0200089B0200089B020008CC
:1000A0009B0200089B0200089B0200089B020008BC
:1000B0009B0200089B0200089B0200089B020008AC
:1000C0009B0200089B0200089B0200089B0200089C
:1000D0009B0200089B0200089B0200089B0200088C
:1000E0009B0200089B0200089B0200089B0200087C
:1000F0009B0200089B0200089B0200089B0200086C
:100100009B0200089B0200089B0200089B0200085B
:100110009B0200089B0200089B0200089B0200084B
:100120009B0200089B0200089B0200089B0200083B
:100130009B0200089B0200089B0200089B0200082B
:100140009B0200089B0200089B0200080D22000889
:100150009B0200089B0200089B0200089B0200080B
:100160009B0200089B0200089B0200089B020008FB
:100170009B0200089B020008000000000000000035
:100180009B0200089B0200089B0200089B020008DB
:100190009B0200089B020008000000009B02000870
:1001A0009B0200089B020008000000000000000005
:1001B0009B02000800000000000000009B020008F5
:1001C0009B0200089B0200089B0200089B0200089B
:1001D0009B0200089B02000800F002F800F040F8C3
:1001E0000AA090E8000C82448344AAF10107DA4592
:1001F00001D100F035F8AFF2090EBAE80F0013F0A4
:10020000010F18BFFB1A43F001031847D047000045
:10021000F0470000103A24BF78C878C1FAD85207D6
:1002200024BF30C830C144BF04680C607047000070
:100230000023002400250026103A28BF78C1FBD8EF
:10024000520728BF30C148BF0B6070471FB504F08C
:1002500094FB9DE8030000F0DFF91FBD10B510BD51
:1002600000F036FA1146FFF7F1FF04F076F900F0DE
:1002700054FA03B4FFF7F2FF03BC00F085FA000064
:100280000948804709480047FEE7FEE7FEE7FEE72A
:10029000FEE7FEE7FEE7FEE7FEE7FEE70448054966
:1002A000054A064B7047000021220008D9010008CA
:1002B000600C0020604C0020602C0020602C00208E
:1002C00070B5064600F08CF9056806F10B0020F0C9
:1002D0000704B4429CBF002070BD2B466A68BAB1C7
:1002E0001068A04210D304F1080188423CBF506856
:1002F000586007D35168101941601168091B0160EB
:1003000058601460101D70BD13465268002AE7D172
:100310002146284600F06CF90028DED170BD70B58A
:100320000446051F00F05CF90068002C14BF446807
:1003300070BD002C18BFAC423CBF20466468F8D3A7
:1003400001680A18AA4218BF456003D12A68054609
:100350001144016028684119A1421CBF6C6070BD46
:100360006168696021680844286070BD53EA020C26
:1003700000F069802DE9F04B4FF00006002B1FBF05
:10038000B3FA83F503FA05F424FA05F65E4012BFCA
:100390001643B2FA82F502FA05F4C5F120051EBF34
:1003A00022FA05FC44EA0C04203556EA044C4FEAD4
:1003B000144418BF641C4FF000084FF0000990422D
:1003C00071EB030C39D3002919BFB1FA81F701FA97
:1003D00007F6B0FA80F700FA07F6C7F120071EBF4C
:1003E00020FA07FC46EA0C062037B6FBF4FCA7EB24
:1003F0000507103F07F01F0BCBF120060CFA0BFB93
:100400002CFA06F644BFB3460026202FA4BF5E4652
:100410004FF0000B5BEA060C08BF4FF0010B19EB25
:100420000B09ABFB027C48EB0608C01B06FB02CCA9
:100430000BFB03CC71EB0C01C1E70B4602464146B6
:100440004846BDE8F08B13B54FF000004FF00001B7
:10045000AFF30080BDE81C407047032A40F23080B3
:1004600010F0030C00F0158011F8013BBCF1020FF5
:10047000624498BF11F801CB00F8013B38BF11F876
:10048000013BA2F1040298BF00F801CB38BF00F88D
:10049000013B11F0030300F02580083AC0F008800A
:1004A00051F8043B083A51F804CBA0E80810F5E7EE
:1004B000121D5CBF51F8043B40F8043BAFF30080D1
:1004C000D20724BF11F8013B11F801CB48BF11F846
:1004D000012B24BF00F8013B00F801CB48BF00F816
:1004E000012B704710B5203AC0F00B80B1E81850CE
:1004F000203AA0E81850B1E81850A0E81850BFF40E
:10050000F5AF5FEA027C24BFB1E81850A0E81850AC
:1005100044BF18C918C0BDE810405FEA827C24BF00
:1005200051F8043B40F8043B08BF7047D20728BF8E
:1005300031F8023B48BF11F8012B28BF20F8023BDD
:1005400048BF00F8012B70474FF000020429C0F0AB
:10055000128010F0030C00F01B80CCF1040CBCF1F5
:10056000020F18BF00F8012BA8BF20F8022BA1EB47
:100570000C0100F00DB85FEAC17C24BF00F8012B2C
:1005800000F8012B48BF00F8012B70474FF0000224
:1005900000B5134694469646203922BFA0E80C5079
:1005A000A0E80C50B1F12001BFF4F7AF090728BF54
:1005B000A0E80C5048BF0CC05DF804EB890028BFD0
:1005C00040F8042B08BF704748BF20F8022B11F0F9
:1005D000804F18BF00F8012B704770477047704775
:1005E00000487047040C0020704770477047704700
:1005F00038B504460A4600206946AFF3008000285B
:1006000008BF38BD02460099204600F03FF801209F
:1006100038BD012000F054B8F8B5AFF300800546AE
:1006200000200C46102000BF0646A819A0420DD994
:10063000324669460020AFF30080070008BF00F093
:100640003FF80098A04218BF0546C419FFF7C8FF3D
:1006500005600746F01D20F007004619284600F007
:100660000AF8B44208BFF8BDA21B31463868BDE89D
:10067000F84000F00BB800210160C0E9011070479C
:100680001020704700487047FC0B0020034640686C
:100690008C46002818BF88423CBF03464068F8D308
:1006A00018681844884207D00CF1030020F00700B6
:1006B000001D411A521A0146081D0A60FFF72FBE9D
:1006C00010B500F039F8BDE8104000F02FB87047C1
:1006D0007546FFF7D7FFAE4605006946534620F042
:1006E0000700854618B020B5FFF7D8FDBDE82040CB
:1006F0004FF000064FF000074FF000084FF0000BDE
:1007000021F00701AC46ACE8C009ACE8C009ACE890
:10071000C009ACE8C0098D46704710B50446AFF378
:1007200000802046BDE81040FFF7A3BD002801D09F
:1007300000F02AB87047000010B5012805D000214C
:1007400003A000F027F8012010BD09A1F8E7000080
:1007500053494752544D454D3A204F7574206F66AA
:100760002068656170206D656D6F72790000000012
:100770003A2048656170206D656D6F727920636FF6
:10078000727275707465640001491820ABBEFEE793
:100790002600020070B505460C460A2000E06D1CDC
:1007A00000F011F835B128780028F8D102E0641C77
:1007B00000F009F814B120780028F8D1BDE87040A5
:1007C0000A20AFF3008008B569468DF800000320C9
:1007D000ABBE08BDFEE710B50021002200EB81038F
:1007E000C3F88423491C0F29F8D300214FF4007467
:1007F000431883F81C21491CA142F9D302704270AE
:1008000001218170C0F8C4230176402383714276B0
:1008100080F81C2380F81D1380F81F2380F81E2306
:10082000002010BD70477047002200F001B80000A2
:1008300030B5044601200D4B5D7A002D14D1587A55
:100840001D54587A03EB800044605C7A03F1080081
:100850002254587A421C5A72303008703A2048703C
:100860002F208870CD70002030BD0000B00B00201C
:1008700070B5044600F0EEF80546601C02D004484E
:100880000078044400F0E6F8401BA042FAD370BDA3
:100890002C0000202DE9F84F0022DFF874A14FF062
:1008A00003084FF00F090AF1040B012595400B686E
:1008B0002B40AB4272D14C68012C05D0022C03D0E6
:1008C000112C01D0122C10D18668540008FA04F7BC
:1008D000BE43CF68A740374387604468AC430D7977
:1008E000C5F30015954025434560C468570008FAD4
:1008F00007F5AC438E68BE402643C6604C68022CA8
:1009000001D0122C12D1D40800EB840CDCF820604A
:100910005407E40E09FA04FE26EA0E06D1F810E0A8
:100920000EFA04FE4EEA060ECCF820E00468AC4352
:100930000D7905F00305BD40254305604C68E400D2
:1009400060D5344C256845F480452560246804F45E
:1009500080440094304C22F003052E19D6F8087814
:100960009407250F09FA05F4A7432C4CA04201D1A6
:1009700000241FE02A4CA04201D101241AE0294C96
:10098000A04201D1022415E0274CA04201D103244A
:1009900010E0264CA04202D104240BE032E0244CAB
:1009A000A04201D1052405E0224CA04201D1062439
:1009B00000E00724AC403C43C6F80848DAF80040A1
:1009C0009C434D68ED0300D51C43CAF80040DBF89A
:1009D00000409C434D68AD0300D51C43CBF800405C
:1009E0000B4D08352C689C434E68F60200D51C431D
:1009F0002C60074D0C352C689C434E68B60200D520
:100A00001C432C60521C102AFFF44FAFBDE8F88F36
:100A1000003C0140443802400030014000000240E8
:100A20000004024000080240000C02400010024096
:100A300000140240001802400069084201D0012061
:100A4000704700207047002A01D081617047090477
:100A50008161704701488068704700002C000020C9
:100A6000D0F8C00201F088BFD0F8C00201F08DBFFD
:100A7000006803F063B801EB810100EBC10090F85E
:100A80005C00704701EB810100EBC100C06C704756
:100A900010B5044694F8B802012809D0012084F862
:100AA000B802206803F052F8002084F8B80210BDA4
:100AB000022010BD2DE9FE430546DDE90B7C0A98B6
:100AC00095F8B842012C1AD04FF0010885F8B88289
:100AD00001EB8104002605EBC404383466712370F1
:100AE000A4F808C06170E77102F07F0984F80290F1
:100AF000383C5FEA026905D584F83B8004E00220B7
:100B0000BDE8FE8384F83B6084F83C008DE88110EA
:100B1000286803F07DF885F8B862F1E770472DE9A1
:100B2000F003DDE906C8DDE9087501EB810400EB9F
:100B3000C40484F83B2084F83F300226BCF1000F47
:100B40000AD084F8426000256BB1012B42D0022B01
:100B50001AD0032B40D12AE04FF0030984F84290C9
:100B600084F83D50EFE7BCF1010F35D12ABB17B92E
:100B7000012284F8512094F8512012B184F8426087
:100B80002AE084F8425027E02AB194F850205AB164
:100B900084F8426020E094F8512012B184F8426059
:100BA0001AE084F8425017E084F8425014E02AB169
:100BB00094F850205AB184F842600DE094F8512026
:100BC00012B184F8426007E084F8425004E084F8EF
:100BD000425001E084F84250C4F84480A76484F88D
:100BE0005C50E56484F8391084F85D50027C04F1AF
:100BF00038010068BDE8F00303F096B82DE9F04134
:100C000004462068064602F09DFF01287ED1206838
:100C100003F0BDF9002879D0206803F0B8F980020C
:100C200003D521684FF400104861206803F0AFF944
:100C3000C00203D521684FF480104861206803F09A
:100C4000A6F9400103D521684FF080604861206813
:100C500003F09DF9800702D52168022048612068D1
:100C600003F095F980000ED521684FF000504861DF
:100C7000D6F84004C00706D12046FFF7F5FE012153
:100C8000206803F067F9206803F081F9C00102D5FC
:100C9000204601F001FA206803F079F9000705D534
:100CA000204600F0D1F8216808204861206803F050
:100CB0006EF9800124D5206803F032F8074600253C
:100CC0004FF0010815E005F00F0108FA01F0384275
:100CD0000ED006EB4510D0F80005000404D5E9B2AB
:100CE000204600F061FF03E0E9B2204601F0B3F8CE
:100CF0006D1CA068A842E6D821684FF000704861DA
:100D0000206803F044F9C043C00600E00DE00CD4B5
:100D10002068816921F010018161204601F00CFA00
:100D20002068816941F010018161BDE8F08170B5F2
:100D30008AB00446002C05D0256894F8B902002634
:100D400018B107E001200AB070BD84F8B8622046EF
:100D500000F028F8032084F8B902E86BC00500D43D
:100D60002661206802F08EFE04F1100128220D4653
:100D70006846FFF7B7FB94E80F0002F027FE012159
:100D8000206803F017F9282229466846FFF7AAFBD6
:100D900094E80F0003F06EF8012084F8B9020020F7
:100DA000D1E7000030B587B00446142102A8FFF750
:100DB000EDFB2068B0F1A04F38D100241C48016839
:100DC00041F001010160006800F0010001904FF462
:100DD000E8500290022003900494032005900A201A
:100DE0000690144D02A92846FFF754FD691502919B
:100DF0000394049402A92846FFF74CFD0C48001DFB
:100E0000016841F08001016009481430016841F433
:100E100080410160006800F480400190002211468A
:100E2000432000F0A7F8432000F096F807B030BD4B
:100E30003038024000000240D0F8C00201F025BE68
:100E4000D0F8C00201F025BED0F8C00201F0DEBD2E
:100E500010B5044694F8B80201280DD0012084F89A
:100E6000B802206802F041FE0121206802F020FE55
:100E7000002084F8B80210BD022010BD10B5044651
:100E800094F8B802012809D0012084F8B80220683B
:100E900003F0A8F8002084F8B80210BD022010BDAD
:100EA0000248816802781144816070472C0000205C
:100EB00010B50B48016841F400710160016841F40C
:100EC00080610160016841F480710160032000F0DD
:100ED00071F8002000F006F800F026F8002010BDA0
:100EE000003C024070B504460D4D4FF47A712878ED
:100EF000B1FBF0F00B490968B1FBF0F000F0DCFC4D
:100F000008B1012070BD102C07D200222146501ECE
:100F100000F030F86C60002070BD012070BD000052
:100F20002C0000203800002008B50A48016841F470
:100F300080410160006800F4804000900548001F77
:100F4000016841F080510160006800F0805000901D
:100F500008BD000044380240002809DB00F01F02F1
:100F6000012191404009800000F1E020C0F800110B
:100F700070470000F0B40D460D4B1B68C3F302230D
:100F8000C3F10704042C00D90424191D072901D238
:100F9000002300E0DB1E012606FA04F1491E294069
:100FA00099409E40761E16403143F0BC03F0C5BA0E
:100FB0000CED00E000F00701054A10684FF6FF0352
:100FC000184040EA012003490843106070470000C0
:100FD0000CED00E00000FA052DE9F84F044600256D
:100FE0002078CA4EC00708D03068E16920F0C060A0
:100FF00008433060E06900B901252078800708D5F2
:101000003068216A20F0C05008433060206A00B97F
:1010100001252088800413D53068A16C20F440108D
:1010200008433060A06C00B90125B0F5001F07D15E
:10103000306820F4F8516069401E41EA00203060B9
:101040002088400413D53068E16C20F44000084348
:101050003060E06C00B90125B0F5000F07D13068B1
:1010600020F4F8516069401E41EA00203060207889
:101070004FF0000700074FF0010A63D5A3484C3832
:10108000016841F080510160006800F080500090DC
:10109000DFF87C92D9F8000040F48070C9F80000B5
:1010A000FFF7D8FC804608E0FFF7D4FCA0EB08006F
:1010B000022802D90320BDE8F88FD9F80000C00546
:1010C000F2D5DFF84892A9F11C09D9F8000000F424
:1010D000407020B3A18C01F4407181421FD0D9F837
:1010E000000020F440708B49C1F800A00F60C9F8DF
:1010F0000000D9F80000C00711D0FFF7ABFC804614
:1011000041F2883B07E0FFF7A5FCA0EB080058453B
:1011100001D90320CFE7D9F800008007F3D5606A32
:101120007A49C0F301228439032A43D0086820F4A5
:10113000F8100860D9F80000A18CC1F30B01084336
:10114000C9F800002078DFF8D0B1400703D594F843
:101150005400CBF8E0012078DFF8C081C00607D545
:10116000D8F80000E16A20F440000843C8F8000005
:1011700020784FF0006980060BD5D8F80000216B6D
:1011800020F000600843C8F80000206B484500D1FB
:1011900001252078400607D5D8F80000A16A20F084
:1011A00080500843C8F80000012D0BD0206880282B
:1011B00008D079E00A685A4B22F4F812184002432A
:1011C0000A60B7E757488766FFF744FC05464F4F6C
:1011D0008C3F06E0FFF73EFC401B022801D90320AC
:1011E00069E738680001F5D4206DCBF8D800206895
:1011F0004D49C20701D0E2697AB1820701D5226A5E
:101200005AB1820602D5226B4A4506D040060FD558
:10121000A06A68B9206B48450AD1D4E9010240EAC6
:101220008210227B237C120642EA0372104308607C
:101230002068820401D5A26C1AB1400415D5E06C77
:1012400098B90868C0F30360D4E9012342EA831225
:10125000237C000640EA037002430A603068A269FA
:1012600020F01F00521E10433060207800060AD57F
:10127000D4E9010240EA8210227B237C120642EA72
:101280000372104308602748C0F868A0FFF7E2FB2C
:10129000054606E0FFF7DEFB401B022801D90320CC
:1012A00009E738680001F5D52088C00505D5306804
:1012B000616B20F00040084330602088800505D530
:1012C0003068A16B20F4004008433060208840055E
:1012D00005D53068E16B20F000400843306020887D
:1012E000000505D53068216C20F48040084330604B
:1012F0002088C00407D5D8F80000616C20F0404079
:101300000843C8F800000020D5E600008C380240F1
:1013100000700040400E474200104742943802409F
:10132000FFFCFF0F00004742843802402DE9F047E0
:1013300004460D46002C13D0DFF82891D9F80000A0
:10134000EFB200F00F00A8420CD289F80070D9F873
:10135000000000F00F00A84204D00120BDE8F08793
:101360000120FBE72068404E810712D5400703D5D6
:10137000306840F4E05030602078000703D53068D2
:1013800040F4604030603068A16820F0F00008430D
:1013900030602078C00731D03349606808390128AF
:1013A00008D002280BD0032809D0096889070BD47C
:1013B0000120D3E70968890306D40120CEE7096834
:1013C000890101D40120C9E7316821F003010143FB
:1013D0003160FFF73FFB804641F2883A07E0FFF7B4
:1013E00039FBA0EB0800504501D90320B6E730686F
:1013F000616800F00C00B0EB810FF0D1D9F800006B
:1014000000F00F00A84209D989F80070D9F800004F
:1014100000F00F00A84201D001209FE7207840078C
:1014200005D53068E16820F4E0500843306020784A
:10143000000706D53068216920F4604040EAC10009
:10144000306000F03FF83168084AC1F30311515C85
:10145000C8400749086007480068FFF743FD0020BF
:101460007CE70000003C024008380240A449000824
:10147000380000203000002001480068704700005C
:101480003800002000B5FFF7F7FF04490968044A57
:10149000C1F38221515CC84000BD00000838024001
:1014A000B449000800B5FFF7E7FF04490968044A9A
:1014B000C1F34231515CC84000BD00000838024011
:1014C000B449000810B51748006810F00C01164820
:1014D00016D04310042912D0082911D1114C241F11
:1014E000216801F03F02216849020AD52068C0F353
:1014F0008810A0FB03010023FEF738FF09E018461F
:1015000010BD21680023C1F38811A1FB0001FEF783
:101510002DFF2168C1F30141491C4900B0FBF1F0E6
:1015200010BD0000083802400024F4002DE9F84FF7
:101530000446DD4D2078C00753D0DB4808300168F1
:10154000C1F38101012908D00068C0F3810002289D
:101550000BD1281D0068400207D52868800340D5BC
:10156000606878BB0120BDE8F88F6068B0F5803F07
:1015700010D0B0F5A02F12D0286820F48030286059
:10158000286820F4802028606068E0B1FFF762FAE4
:10159000064614E0286840F480302860F4E72868A4
:1015A00040F480202860286840F480302860EBE711
:1015B000FFF750FA801B642801D90320D3E728687D
:1015C0008003F5D50DE0FFF745FA064606E0FFF784
:1015D00041FA801B642801D90320C4E728688003EE
:1015E000F5D42078B14F80074FF0000849D5AE48B8
:1015F0000830016811F00C0F09D00068C0F38100B9
:10160000022814D1A848001D006840020FD42868A1
:10161000800704D5E068012801D00120A3E72868ED
:10162000216920F0F80040EAC100286029E0E06864
:10163000B8B101203860FFF70DFA064606E0FFF763
:1016400009FA801B022801D903208CE7286880074B
:10165000F5D52868216920F0F80040EAC10028602B
:101660000FE0C7F80080FFF7F5F9064606E0FFF740
:10167000F1F9801B022801D9032074E7286880074C
:10168000F5D42078000729D5DFF81C9288486169D5
:1016900009F1740989B101210160FFF7DBF9064600
:1016A00006E0FFF7D7F9801B022801D903205AE78B
:1016B000D9F800008007F4D510E0C0F80080FFF7EB
:1016C000C9F9064606E0FFF7C5F9801B022801D9D3
:1016D000032048E7D9F800008007F4D420784007B9
:1016E00072D50026DFF8C0A10AF1400ADAF800003E
:1016F000C0000BD4DAF8000040F08050CAF80000B7
:10170000DAF8000000F0805000900126DFF8A4B164
:10171000DBF80000C00515D4DBF8000040F4807051
:10172000CBF80000FFF796F9814607E0FFF792F942
:10173000A0EB0900022801D9032014E7DBF8000020
:10174000C005F3D5DFF860B1A0680BF1700B01287C
:1017500013D0052818D0DBF8000020F00100CBF8EA
:101760000000DBF8000020F00400CBF80000A068C7
:1017700030B3FFF76FF981461DE0DBF8000040F061
:101780000100CBF80000F2E7DBF8000040F00400B5
:10179000CBF80000DBF8000040F00100CBF80000BF
:1017A000E5E7FFF757F9A0EB090141F288308142E4
:1017B00001D90320D7E6DBF800008007F1D512E05D
:1017C000FFF748F981460AE015E0FFF743F9A0EB7F
:1017D000090141F28830814201D90320C3E6DBF8D8
:1017E00000008007F1D4012E05D1DAF8000020F0C6
:1017F0008050CAF80000A069D8B32B4908310968A5
:10180000C1F3810102294CD0022805D0C7F86080BD
:10181000FFF720F904463FE0C7F86080FFF71AF9A8
:10182000064606E0FFF716F9801B022801D90320BF
:1018300099E628688001F5D454F81C0F4FF0FF3367
:101840006168E2680843A16803EB5202890141EA3A
:1018500002410843217C40EA0160217D40EA017198
:101860001148001D016001203866FFF7F3F80446B7
:1018700007E014E0FFF7EEF8001B022801D903206F
:1018800071E628688001F5D509E0FFF7E3F8001B51
:10189000022801D9032066E628688001F5D40020DB
:1018A00061E601205FE60000003802400000474288
:1018B000800E47420070004010B5401EB0F1807F9E
:1018C00001D3012010BD4FF0E02460610F216017AB
:1018D00002F033FE0020A06107202061002010BD2F
:1018E00070B590F83C20012A31D0012680F83C6088
:1018F000022280F83D2002685468936824F0700545
:101900000C682C435460134C0268A24214D0B2F10C
:10191000804F11D0104CA2420ED0104CA2420BD0DE
:101920000F4CA24208D00F4CA24205D00E4CA2424E
:1019300002D00E4CA24204D123F08003496819431F
:1019400091603C30467000210170002070BD022083
:1019500070BD00000000014000040040000800408D
:10196000000C00400004014000400140001800400D
:1019700010B50446002C03D094F83D0010B107E0E8
:10198000012010BD002084F83C00204600F00CF837
:10199000022084F83D00211D206800F04FFC01204A
:1019A00084F83D00002010BD08B500680649884253
:1019B00008D10648016841F002010160006800F0AA
:1019C0000200009008BD00000004004040380240C2
:1019D000022180F83D1001688A6802F00702062A99
:1019E00003D00A6842F001020A60012180F83D102C
:1019F0000020704770B5044694F83C00012817D0C9
:101A0000012584F83C50022084F83D00206882685B
:101A100022F0770222F47F4282600868502831D099
:101A20000DDC20284DD005DCB0B310284ED148E0A5
:101A3000022070BD302844D0402847D137E06028CC
:101A40002BD0702806D0B0F5805F3FD0B0F5005F96
:101A50003CD10BE0CB68D1E90121206800F054FCB7
:101A60002068816841F0770181602FE0CB68D1E97F
:101A70000121206800F048FC2068816841F4804121
:101A8000816023E0CA684968206800F04FFC50215B
:101A9000206800F043FC19E013E0CA684968206838
:101AA00000F055FC6021206800F038FC0EE0CA68A8
:101AB0004968206800F03AFC4021206800F02EFCC4
:101AC00004E022680146104600F028FC3C346570B2
:101AD0000020207070BD70B50446002C04D094F82E
:101AE0003900002510B106E0012070BD84F838509F
:101AF000204600F023F8242084F839002068C168CB
:101B000021F40051C160204600F034FC20680169D6
:101B100021F4904101612068416921F02A0141616D
:101B20002068C16841F40051C160E563202084F859
:101B3000390084F83A00002070BD000010B586B06E
:101B40000446142101A8FEF721FD144920688842AB
:101B500021D100211248026842F48022026000680C
:101B600000F4802000900E481038026842F008020D
:101B70000260006800F0080000904FF4407001908F
:101B8000022002900391032004900720059001A9F0
:101B90000448FEF77FFE06B010BD0000004800407C
:101BA00040380240000C02402DE9F05F07463868DB
:101BB0000E46314600EB4114D4F808054FF00408F6
:101BC000420706EB86004FF005094FF0100A07EBBD
:101BD000C00508D5C4F80885D4F80C0540F002000B
:101BE000C4F80C054AE0D4F80805C00511D54FF437
:101BF0008070C4F80805072085F85D00D4F80C054E
:101C000040F00200C4F80C05F1B2386801F09EFF04
:101C100034E0D4F80805800603D52020C4F8080570
:101C20002CE0D4F808054FF0080B000710D5D4F8C5
:101C30000C0540F00200C4F80C0585F85D90C4F86E
:101C400008A5C4F808B5F1B2386801F07FFF15E0C7
:101C5000D4F80805400511D5D4F80C0540F0020071
:101C6000C4F80C05F1B2386801F070FFC4F808A59B
:101C700085F85DB04FF48060C4F80805D4F8080515
:101C800080050ED504F5A164606840F00200606034
:101C9000F1B2386801F05AFF4FF400702060BDE8DF
:101CA000F09FD4F808054FF00001C0074FF0010283
:101CB00042D0386930B1A86CD4F81035C3F31203A0
:101CC000C01AE86485F85D20A965C4F8082595F870
:101CD0003F0030B1022804D003280FD001281AD0C9
:101CE00024E0D4F80C0540F00200C4F80C05F1B271
:101CF000386801F02BFFC4F808A517E0D4F80005F8
:101D000040F00050C4F8000585F85C20F1B2384678
:101D1000FEF704FF0AE050352A73287880F00100AE
:101D200005F85009F1B23846FEF7F8FE15F8500FE5
:101D300080F001002870B2E7D4F80805800748D584
:101D4000D4F80C0520F00200C4F80C0595F85D00ED
:101D5000022301280AD005280BD006280CD0082819
:101D60000AD003281CD0072825D029E085F85C205C
:101D700026E085F85C9023E0A86D401CA865032848
:101D800003D9A96585F85C8001E085F85C30D4F85A
:101D9000000520F0804040F00040C4F800050FE04E
:101DA00085F85C30D4F8000520F0804040F0004019
:101DB000C4F8000504E0A86D401CA86585F85C80A7
:101DC000C4F8083595F85C20F1B23846FEF7A6FE57
:101DD00065E7D4F80805000612D504F5A16460682B
:101DE00040F002006060A86D401CA865062085F8E0
:101DF0005D00F1B2386801F0A9FE802020604EE756
:101E0000D4F80805C00696D595F83F00032803D0FE
:101E100070B102280CD01BE0A965D4F80C0540F085
:101E20000200C4F80C05F1B2386801F08FFE0FE033
:101E3000A965386960B9032085F85D00D4F80C0500
:101E400040F00200C4F80C05F1B2386801F07EFEE3
:101E5000C4F808A523E72DE9F047026802EB411416
:101E6000D4F808254FF0040A520709D5C4F808A58C
:101E7000D4F80C0540F00200C4F80C05BDE8F0876A
:101E8000D4F808254FF00003960601EB810200EB21
:101E9000C2054FF0020C16D52022C4F8082595F88B
:101EA0003D20012AEAD185F83D3085F85CC0D4F8A0
:101EB0000C2542F00202C4F80C250068BDE8F0478A
:101EC000C9B201F043BED4F808254FF0010652060E
:101ED00011D585F85DA085F83D60AB6504F5A1647A
:101EE000626842F002026260C9B2006801F02EFE30
:101EF00040202060C2E7D4F8082592050DD504F5EE
:101F0000A164626842F002026260C9B2006801F036
:101F10001DFE4FF400702060B0E7D4F80825D2070A
:101F20000ED0AB6504F5A164626842F00202626003
:101F3000C9B2006801F00AFE266085F85D609DE781
:101F4000D4F808254FF0080912074FF005070ED501
:101F5000C4F80895D4F80C2542F00202C4F80C2508
:101F6000C9B2006801F0F2FD85F85D7086E7D4F82B
:101F700008254FF01008D20618D5AB65032285F866
:101F80005D2095F83D2022B995F83C200AB985F8E6
:101F90003D60D4F80C2542F00202C4F80C25C9B209
:101FA000006801F0D3FDC4F8088567E7D4F8082578
:101FB00012060FD504F5A164626842F00202626065
:101FC000C9B2006801F0C2FD062085F85D008020DE
:101FD000206053E7D4F80825520511D504F5A16413
:101FE000626842F002026260C9B2006801F0AEFDB0
:101FF000C4F800804FF48060206085F85D903DE774
:10200000D4F80825920787D5D4F80C2522F00202CF
:10201000C4F80C2595F85D20012A0AD0032A17D0B0
:10202000042A18D0052A19D0062A1AD0082A18D04E
:102030002AE085F85C6095F83F20022A01D0032A47
:1020400022D195F8512082F0010285F851201BE041
:1020500085F85CC018E085F85CC015E085F85C7018
:1020600012E0AA6D521CAA65032A03D9AB6585F854
:102070005CA001E085F85CC0D4F8002522F0804225
:1020800042F00042C4F80025C4F808C595F85C2069
:10209000C9B2FEF743FDF1E67CB505462C68D4F8DD
:1020A00040040190D4F840040090009820F02E00E5
:1020B00000900198800709D50198C00702D02846F2
:1020C000FEF7CEFC009840F0020000900198000757
:1020D00027D5009840F008000090019840071DD5D2
:1020E000A869022803D0E86801280FD012E00198FF
:1020F000C0F34140022804D00121286801F02AFFE2
:1021000008E00221286801F025FF03E04EF6602078
:10211000C4F804042846FEF793FE02E02846FEF7C2
:102120008BFE0198800603D5009840F020000090B7
:102130000098C4F840047CBD2DE9F04103461868BE
:102140000746016A01F00F06C1F34342C1F30A15C5
:10215000022A25D1002D23D006EB860103EBC10412
:10216000616C00291CD0AAB201F015FF606C2844F4
:102170006064E06C2844E06407EB4610D0F810156A
:10218000084A11420CD0D0F8001521F0804141F0EE
:102190000041C0F8001514F8500F80F001002070C5
:1021A000BDE8F0810000F81FFEE7000010B504490B
:1021B0000448FEF739FB0249491E087010BD0000B3
:1021C000010000209049000810B501220B490C487D
:1021D00000F0A8FB08B1FEF726FB0A49084801F009
:1021E0002CFB08B1FEF71FFB054801F042FB00285D
:1021F00003D0BDE81040FEF716BB10BD89380008BB
:102200009C0000203C000020FEE770470148FEF7DC
:10221000F5BC0000EC08002070477047FEF740BE98
:102220000548016841F47001016003494FF0006006
:10223000803908607047000088ED00E02DE9F0412A
:102240000268264D264E274FDFF89CC0274B4FF0E3
:102250008048A84209D0404507D0B04205D0B842D6
:1022600003D0604501D0984203D122F070044A683F
:102270002243A8421BD0404519D0B04217D0B842E3
:1022800015D0604513D0984211D0194CA0420ED001
:10229000184CA0420BD0184CA04208D0174CA042BA
:1022A00005D0174CA04202D0164CA04203D122F414
:1022B0004074CA6822434C6922F0800222430260C3
:1022C0008A68C2620A688262A84201D0984201D13B
:1022D0000969016301214161BDE8F081000001400D
:1022E0000004004000080040000C004000040140D1
:1022F00000400140004401400048014000180040F7
:10230000001C00400020004010B5846824F47F4485
:1023100042EA03220A432243826010BD826822F00F
:1023200070020A4342F007018160704710B5036AEA
:10233000046A24F001040462846924F0F00444EA8D
:10234000021423F00A020A438461026210BD10B530
:10235000036A23F0100303628469036A24F470445F
:1023600044EA023223F0A00343EA011182610162D0
:1023700010BD00002DE9F041044620680169E268C3
:1023800021F4405111430161A1682069E2690143D0
:102390006069104301432068C26849F20C639A43A4
:1023A0000A43C26020684169A26921F44071114367
:1023B0004161E069DFF8A8C16A4A6B4B6B49192794
:1023C000642532264FF00008B0F5004F36D0206863
:1023D000884205D0604503D0904201D098427CD11C
:1023E000FFF760F801466068830F8200A1FB0701D8
:1023F000FDF7BCFF0146B0FBF5F06FF0180250434B
:1024000001EB800006EB0010B0FBF5F000F0F002ED
:10241000B1FBF5F002EB0012B1FBF5F06FF0180321
:10242000584301EB800006EB0010B0FBF5F021688B
:1024300000F00F0010448860BDE8F08120688842F9
:1024400005D0604503D0904201D098422CD1FFF7CF
:1024500029F8014660680218A1FB070148EB080350
:10246000FDF784FF0146B0FBF5F00201B1FBF5F08A
:102470006FF01803584301EB800006EBC000B0FB7F
:10248000F5F000F0F80002EB4002B1FBF5F0584324
:1024900001EB800006EBC000B0FBF5F0216800F016
:1024A000070010448860C7E7FEF7ECFF014660684C
:1024B0000218A1FB070148EB0803FDF757FF01468F
:1024C000B0FBF5F00201B1FBF5F06FF018035843D3
:1024D00001EB800006EBC00000E014E0B0FBF5F07B
:1024E00000F0F80002EB4002B1FBF5F0584301EBBD
:1024F000800006EBC000B0FBF5F0216800F007009B
:102500001044886098E7FEF7BDFF01466068830FBE
:102510008200A1FB0701FDF729FF0146B0FBF5F0A2
:102520006FF01802504301EB800006EB0010B0FB87
:10253000F5F000F0F002B1FBF5F002EB0012B1FB98
:10254000F5F06FF01803584301EB800006EB001024
:10255000B0FBF5F0216800F00F00104488606BE7D5
:102560000014014000180140001C0140001001400F
:1025700070B504460D46204600F0C8F8A0F57F422D
:10258000FF3A07D000F00F0204EB820245F400414D
:10259000C2F88413C0B270BD7FB51E460125002469
:1025A000CDE90051CDE9022402232A46314600F04C
:1025B0009AFA04B0002070BD7FB50C4608991E46FB
:1025C00090F81D53002D00D00021CDE902210125F6
:1025D000CDE9005402230022314600F084FA04B011
:1025E000002070BD10B500F0BEF9002010BD82784B
:1025F000012A07D10222027401224274002242827F
:102600008182C2820022114600F010B87FB51E46BA
:1026100000240125CDE90051CDE9022423462A46B4
:10262000314600F060FA04B0002070BD70B5044679
:102630000120A3780125012B0BD0022B08D12046C5
:1026400000F085F858B1032809D0022800D1A57000
:1026500070BDA160A28125760221A17070BDA57018
:102660000021217670BD7FB50C4608991E4690F872
:102670001D53002D00D00021CDE902210125CDE917
:10268000005400231A46314600F02DFA04B0002011
:1026900070BD7FB5154600230824CDE90031CDE992
:1026A00002431A46294600F01EFA04B0002070BD0D
:1026B00070B50546002005F54E7517E000EB800467
:1026C00004EBC00405EB44040A3466798E4201D061
:1026D000FF2909D1A679964201D0FF2A04D1E479D5
:1026E0009C4206D0FF2B04D0401CC0B20228E5D388
:1026F000FF2070BD0B2907D200EB8100B0F88413D6
:10270000C1F30E01C0F88413002070470146002079
:1027100001EB8002B2F88423120405D5401CC0B23C
:102720000B28F5D34FF6FF707047014600200029B3
:1027300006D0012905D0022905D0032905D00220A1
:1027400070470220704701207047022070472DE932
:10275000F84F04460125207E01210B2609274FF062
:1027600007084FF005094FF00D0A0C280FD2DFE8DB
:1027700000F0CC060F303C4C59737F929FB26279C7
:1027800004F110012046FFF784FF02202076BCE010
:102790006179204600F036F9012804D0042816D0CB
:1027A000022814D0B1E0207C00F08000E18A39B129
:1027B000802802D084F81890A7E003202076A4E0B7
:1027C000802802D084F818809FE027769DE0267646
:1027D0009BE0D4F8C403E0812379A2892046A16854
:1027E000FFF714FF042020768FE02179204600F0C7
:1027F00009F9012800D12776052802D0042802D043
:1028000083E0032581E026767FE000916379A28949
:102810002046A168FFF727FFD4F8C403E081062013
:10282000207672E06179204600F0ECF8012806D0AD
:10283000052807D0022809D004280AD065E084F8CA
:10284000188062E00C20207603255EE084F8189062
:102850005BE02676022558E00022237911462046C7
:10286000FFF7D4FED4F8C403E081082020764CE0C2
:102870002179204600F0C6F8012804D0042806D0AB
:10288000052806D041E084F818A000253DE0267612
:102890003BE0032539E00091002263791146204690
:1028A000FFF7E1FED4F8C403E0810A2020762CE093
:1028B0006179204600F0A6F8012804D0022806D04D
:1028C000042806D021E0002584F818A01DE0277612
:1028D0001BE0267619E0607E401CC0B260760228BC
:1028E00002D82176A17010E0D4F8D4230621204626
:1028F00090470025657661792046FFF7FBFE217938
:102900002046FFF7F7FE257002252846BDE8F88F20
:1029100001780B2905D1D0F87C13002901D08969F1
:102920000847704770B504460E46002C19D084F84D
:10293000CC230025C4F87C53C4F880532046FDF70F
:102940004AFF84F8235384F8205384F8215384F8F1
:1029500022530EB1C4F8D463204600F05FF8002083
:1029600070BD022070BD10B5D0F8D003FEF790F80E
:10297000BDE81040FFF7D9BE00F548700121017095
:102980000021417081700020704710B5044601207D
:1029900084F82103002084F8200384F823032046D0
:1029A00000F098F821792046FFF7A4FE61792046CF
:1029B000FFF7A0FE002010BD10B590F8CC03012851
:1029C00004D1012240210448FEF73DF8C820FDF75C
:1029D0004FFF002010BD000000180240D0F8D003C7
:1029E000FEF750B8D0F8D00301EB810100EBC10035
:1029F00090F83B10002902D090F85000704790F8F2
:102A000051007047D0F8D003FEF735B8D0F8C413A2
:102A1000491CC0F8C413FFF77BBF000010B5044683
:102A200094F8CC0301281CD10F48C0F8C042C4F868
:102A3000D0034FF0A04101600C2181600121C160F1
:102A40000022026102228261C161FEF770F908B1C1
:102A5000FDF7E9FE0448FEF70BF80146204600F0BA
:102A60001CF8002010BD0000EC080020FEB5DDE9D8
:102A700008650A9CCDE900650294D0F8D003FEF702
:102A800019F8BDE8FE40FFF750BE002180F823137F
:102A90007047012180F823137047C0F8C4137047B2
:102AA000D0F8D00301EB810100EBC10090F83B109E
:102AB000002902D080F8502001E080F85120002049
:102AC000704710B5D0F8D003FEF7C2F9BDE810404A
:102AD000FFF72BBE10B5D0F8D003FEF7CFF9BDE855
:102AE0001040FFF722BE2DE9FF41DDE90B760A9D7C
:102AF0000D9CCDE9017600950394D0F8D003FEF744
:102B00000EF804B0BDE8F041FFF70FBE0346022007
:102B1000D3F87C13C969002A05D0012A07D1897925
:102B20001846FFF764BDC9791846FFF760BD7047C6
:102B3000D0F87C03C0690549503041600449816088
:102B400001210170817000207047000055534243FD
:102B5000504030202DE9F84F06460125D6F87C0379
:102B6000C4690727A84694F850004FF00B0B4FF0AC
:102B70000A094FF0090A0C2815D2DFE800F0FB061D
:102B80001537426875A3AEC6D4F384F861100220ED
:102B900084F85000CDF8008063791F2204F15401BD
:102BA0003046FFF709FDE5E061793046FFF72AFF7F
:102BB000012804D0022813D0052814D0DAE0E06DF3
:102BC00058B194F86000000603D5032084F8500043
:102BD000D0E0052084F85000CCE084F85070C9E0C3
:102BE00084F85080C6E084F85090C3E0237962896D
:102BF0003046D4F88C10FFF7CFFC042084F8500046
:102C0000B8E021793046FFF7FDFE012802D0052803
:102C10001AD0AFE06289E06D904207D9D4F88C10E9
:102C20001144C4F88C10801AE06501E00020E065D2
:102C3000E06D30B123793046D4F88C10FFF7ACFC4E
:102C400098E084F8507095E084F850A092E0CDF8B8
:102C50000080637922893046D4F88C10FFF7ACFCF1
:102C6000062084F8500085E061793046FFF7CAFEFF
:102C7000012804D002281ED0052820D07AE022891D
:102C8000E06D904207D9D4F88C101144C4F88C1030
:102C9000801AE06501E00020E065E06D40B1CDF80C
:102CA000008063793046D4F88C10FFF785FC61E032
:102CB00084F850705EE0052084F850005AE084F8F3
:102CC000509057E023790D2204F178013046FFF748
:102CD00063FC082084F850004CE021793046FFF76F
:102CE00091FE012802D005280CD043E084F85080E2
:102CF00084F85280304600F093F808B1022539E09C
:102D0000002537E084F850A034E000223046FFF779
:102D1000FDFE10B1042803D02CE084F8507029E0A7
:102D200084F850B026E001223046FFF7EFFE10B1E4
:102D3000042814D01EE061793046FFF753FEC0F13D
:102D40000100C2B261793046FFF7AAFE2179002264
:102D50003046FFF7A5FE84F850A00BE002E084F8AF
:102D600050B007E0304600F013F80546280001D1C6
:102D700084F850802846BDE8F88FA1220274FE2214
:102D800042740022428282820122C282FFF74EBC3C
:102D900021210174FF214174002141828182C1827D
:102DA00000221146FFF742BC70B50246D2F87C0300
:102DB000C4690125A07B002804D0022802D0032882
:102DC0002CD124E021461046FFF7D7FF054600230B
:102DD000032D01D12370002505BB2078022801D9DD
:102DE000022000E0401C2070002102200BE001EBDB
:102DF000810202EBC10204EB820282F8920082F8A7
:102E0000C130491CC9B222788A42F0D806E00021BC
:102E10001046FFF7ECFB08B9E07BA073284670BDB5
:102E200070B5D0F87C13CC6901252179FFF7D6FD68
:102E30000D2801D0022514E00B49A06F88420FD164
:102E4000A16DE06F88420CD194F8840020B1012874
:102E500007D0022802D004E0002502E0022500E0AD
:102E60000225284670BD00005553425310B5144644
:102E7000D0F87C33DB6900780B2801D0022010BD2C
:102E800001EB810000EBC10003EB800190313422A3
:102E90002046FDF727FB002010BD70B50546D5F88C
:102EA0007C03C46900266179002907D02846FFF712
:102EB00099FB61792846FFF71DFC6671217939B1CC
:102EC0002846FFF78FFB21792846FFF713FC267170
:102ED000D5F87C03C06920B1FDF721FAD5F87C0351
:102EE000C661002070BDFEB505465023D5F87C03B1
:102EF000062201792846FFF7DBFB0646FF2E01D0AC
:102F0000022E01D30220FEBD3146284600F0A6FC69
:102F100008B10220FEBD4FF480773846FDF7D0F9A6
:102F2000D5F87C13C8610446200011D03946FDF75E
:102F30002DFB06EB860000EBC60005EB400090F889
:102F40004E130A0606D5E171B0F85013618105E011
:102F50000220FEBDA171B0F85013218190F85613E4
:102F60000A0604D5E171B0F85803608103E0A1714D
:102F7000B0F858032081002020736073A073A179FA
:102F80002846FFF7F5FA6071E1792846FFF7F0FA75
:102F900020712846FFF7CCFD208995F81D130226E5
:102FA000CDE90016029095F81C33A2796179284684
:102FB00000F038FC608995F81D13CDE900160290E9
:102FC00095F81C33E2792179284600F02BFC217911
:102FD00000222846FFF764FD617900222846FFF7AA
:102FE0005FFD0020FEBD2DE9F0470546D5F87C03C6
:102FF000C4694FF0010A207B002802D001282DD19E
:1030000082E1B4F8F800217801264FF000088842E8
:103010007DD200EB800101EBC00004EB800080F862
:103020009160B4F8F800022700EB800101EBC001C9
:1030300004EB81024FF0050992F8901009290DD296
:10304000DFE801F0050C42C20DF20C0CF100042087
:1030500082F89000D5F8C403C4F8FC0056E1C1B270
:103060009F32284600F0F6F948B9B4F8F81001EBA1
:10307000810202EBC10104EB810181F8907002280A
:1030800002D004280BD041E1B4F8F80000EB800135
:1030900001EBC00004EB800080F8909036E1B4F8BA
:1030A000F80000EB800101EBC00004EB800080F829
:1030B0009060B4F8F80000EB800101EBC00004EB75
:1030C000800080F8917021E1C1B2284600F0EBFA4F
:1030D00080BBB4F8F81001EB810202EBC10104EBF4
:1030E000810191F8922012B181F8C16001E081F86C
:1030F000C180B4F8F810032201EB810303EBC10196
:1031000004EB810181F89020B4F8F81000E0F2E0BF
:1031100001EB810202EBC10104EB810181F8918096
:10312000B4F8F81001EB810202EBC10104EB81015C
:1031300081F89280022802D0042830D0E6E0B4F86A
:10314000F80000EB800101EBC00004EB800090F878
:103150009210022902D080F8C16001E080F8C1809D
:10316000B4F8F80000EB800101EBC00004EB800034
:1031700080F89090B4F8F80000EB800101EBC000FB
:1031800004EB800080F89160B4F8F80000EB800157
:1031900001EBC00004EB800080F89270B6E0B4F858
:1031A000F80000EB800101EBC00004EB800080F828
:1031B0009060B4F8F80000EB800101EBC00004EB74
:1031C000800080F89170A1E0C1B29432284600F0EE
:1031D000E4F920B102281BD0042826D096E0B4F8E8
:1031E000F80000EB800101EBC00004EB800080F8E8
:1031F0009060B4F8F80000EB800101EBC00004EB34
:10320000800080F8918034F8F80F401C20807DE029
:10321000B4F8F80000EB800101EBC00004EB800083
:1032200080F8909072E062E014E0B4F8F80000EBEF
:10323000800101EBC00004EB800080F89060B4F8DE
:10324000F80000EB800101EBC00004EB800080F887
:1032500091705BE0C1B29C32284600F0E1F900BBFE
:10326000B4F8F81001EB810202EBC10104EB81011B
:1032700091F89C20062A01D0022A0BD1D5F8C4234C
:10328000D4F8FC30D21A42F210739A4202D281F87A
:1032900090703BE081F89060B4F8F810491CA4F8F5
:1032A000F810022802D004280CD02FE0B4F8F8005F
:1032B000082100EB800202EBC00004EB800080F8E4
:1032C000901023E0B4F8F80000EB800101EBC0009F
:1032D00004EB800080F89060B4F8F80000EB800107
:1032E00001EBC00004EB800080F891700EE0401C00
:1032F000A4F8F8000AE0A4F8F8802673D5F8D423DF
:1033000002212846904701E04FF0000A5046BDE8F0
:10331000F0872DE9F843D0F87C23D269012501EB31
:10332000810303EBC10302EB8304012694F8902090
:103330000827052A33D000234FF00508062A02D0BB
:10334000072A3ED115E0009300231A4600F0E6F864
:1033500020B1022806D0042807D032E084F890601B
:1033600000252EE084F890802BE084F890700225F0
:1033700027E0009300231A4600F0BAF920B1022892
:1033800006D0042807D01CE084F89060002518E0DF
:1033900084F8908015E084F89070022511E004F123
:1033A0009C0200F03DF928B984F89060022184F86D
:1033B00091100225022804D0042802D184F89070CC
:1033C00002252846BDE8F8832DE9F8430446089F06
:1033D0008846D4F87C03C56994F8200300280CD0F3
:1033E00020780B2809D108EB880000EBC80005EB1A
:1033F000800090F89010012902D00220BDE8F883E7
:103400000621297380F89010A5F8FA8041462046DD
:10341000009700F083F8D4F8C46340F271204FF0B5
:103420000109474308E0D4F8C403801BB0EB071F31
:103430000CD894F8200348B141462046FFF769FFB5
:103440000128F0D085F80C900020D7E785F80C9083
:103450000220D3E72DE9F041034615460226D3F8B2
:103460007C03C46900274FF0010894F8520001283A
:1034700002D002284FD11EE024205334C4F80900A2
:10348000802262730A22E273276167612783122216
:10349000227449016174A774E7742075677504F894
:1034A000038C022004F8010C533C04F11000C4F812
:1034B0008C0001262FE01846FFF74CFB0646300033
:1034C00029D122212846FDF73FF854F88C0F0078C7
:1034D00000F01F006870206800784009287054F8D8
:1034E0008C094078000602D585F8028000E0AF70B4
:1034F00054F88C0F8168C5F80310C068C5F8070040
:1035000021681022103105F10C00FCF7A6FF20689D
:10351000006AC5F81D003046BDE8F0817FB505465C
:103520001E460220D5F87C23D46994F85220012A43
:1035300007D0022A2FD104B02846BDE87040FFF71B
:1035400009BB5C340899A08F48432060802020711B
:103550000A20A0715C3C102104F16300FCF7F4FF29
:1035600028205034E0749DF80B0060759DF80A0027
:10357000A0759DF80900E0759DF8080020769DF87B
:103580002100A0769DF82000E07601202070022026
:10359000A070E663012004B070BD70B50346164606
:1035A0000125D3F87C03C46994F85200012802D0A5
:1035B000022833D119E00820E065802084F86000FB
:1035C0000A2084F86200102104F16300FCF7BCFFBC
:1035D00025205034E074012020700220A070503C5F
:1035E00004F11000C4F88C0018E01846FFF7B2FA96
:1035F0000546280012D154F88C0FC178827841EA30
:10360000022142780078120442EA006001433160EE
:103610002068C179807941EA0020B080284670BDD9
:1036200070B503460E4615460220D3F87C13CC69CC
:1036300094F85220012A14D0022A11D1314618469A
:10364000FFF788FA00280BD154F88C1F897801F015
:103650000F0129702168097B69702168497BA97075
:1036600070BD0E25E565802084F860000A2084F88E
:103670006200102104F16300FCF766FF0320503460
:10368000E0747001207500206075A075E5752076E6
:10369000012020700220A070503C04F11000C4F8FA
:1036A0008C00012070BD70B503460220D3F87C2346
:1036B000D46994F85220012A06D0022A17D1BDE815
:1036C00070401846FFF746BA0025E56584F860505B
:1036D0000A2084F86200102104F16300FCF734FF33
:1036E0005034E574012020700220A070012070BDCC
:1036F0007FB505461E460220D5F87C23D46994F890
:103700005220012A07D0022A2FD104B02846BDE852
:103710007040FFF71FBA5C340899A08F48432060BF
:10372000002020710A20A0715C3C102104F163008C
:10373000FCF70AFF2A205034E0749DF80B006075F6
:103740009DF80A00A0759DF80900E0759DF8080035
:1037500020769DF82100A0769DF82000E0760120DB
:1037600020700220A070E663012004B070BD00202C
:103770007047D0F87C23D26900780B2808D101EB80
:10378000810000EBC10002EB800090F8910008B1CD
:1037900000207047012070472DE9F8430446089F38
:1037A0008846D4F87C03C56994F8200300280CD01F
:1037B00020780B2809D108EB880000EBC80005EB46
:1037C000800090F89010012902D00220BDE8F88313
:1037D0000721297380F89010A5F8FA804146204609
:1037E0000097FFF785FFD4F8C46340F271204FF0D3
:1037F0000109474308E0D4F8C403801BB0EB071F5E
:103800000CD894F8200348B141462046FFF781FDCB
:103810000128F0D085F80C900020D7E785F80C90AF
:103820000220D3E7FEB5DDE908650A9CCDE9006515
:103830000294FFF71BF90020FEBD0246002000297C
:103840000AD0D2F880330BB1022070470123C2F8AE
:103850008033C2F878137047022070470246002078
:1038600092F83C338B4202D982F82413704702202D
:10387000704710B504462046FFF723F90121204682
:10388000FFF79AF8002010BD012908D00748022947
:1038900006D0042907D0052901D103210170704702
:1038A000022101707047012101707047050000205E
:1038B0000020704730B58DB015460124002909D08D
:1038C000012909D0022912D003291CD004240DB0EB
:1038D000204630BD0024FAE701466A461048FFF74B
:1038E000C5FA0028F3D1019828600024EFE70146CB
:1038F0006A460B48FFF7BAFA0028E8D1BDF808007D
:1039000028600024E3E701466A460548FFF7AEFA5F
:103910000028DCD1BDF80800400A28600024D6E762
:103920009C00002030B58FB00546012400930B4663
:1039300029460C48FFF748FD68B102AA2946094804
:10394000FFF794FA9DF81500042806D0282804D023
:103950003A2803D101E0002400E003240FB0204600
:1039600030BD00009C00002010B501240146034832
:10397000FFF7FFFE00B10024204610BD9C00002090
:1039800030B58FB00546012400930B4629460E48FA
:10399000FFF702FF78B102AA29460B48FFF766FA43
:1039A0009DF8150004280AD0272806D0282806D01C
:1039B0003A2805D103E0002402E0022400E00324B9
:1039C0000FB0204630BD00009C0000200FB410B5A1
:1039D0000446089801281AD0E06840F04000E060F2
:1039E000204600F033F80C9941B3A16B21F48031EB
:1039F000A1630699012907D1A16841F00601A160E0
:103A0000A16841F02001A16010BC5DF814FBA06B1F
:103A100020F48030A063E0680B490840E060E06873
:103A200020F44010E0600F98012803D1E06840F4D2
:103A30008010E060204600F009F8DAE7A16B41F45D
:103A40008031A163D5E70000BFFFBDFF00210C4A14
:103A5000491C914201D9032070470369002BF7DA12
:103A60000021036943F001030361491C914201D91C
:103A7000032070470369DB07F7D10020704700007F
:103A8000400D0300816821F0010181600020704732
:103A900000EB411000F5A060044A0261016821F0CA
:103AA000804141F000410160002070470000088023
:103AB00008B5D0F840240092009A22F02E0200921D
:103AC000009AD20406D4012904D1009A42F480520B
:103AD000C0F84024009AD20405D521B9009921F4F8
:103AE0008051C0F84014002008BD816841F00101F8
:103AF0008160002070470000002110220261054A09
:103B0000491C914201D9032070470369DB06F7D4B1
:103B100000207047400D03000022202343EA81115A
:103B200001610549521C8A4201D90320704703698B
:103B30009B06F7D400207047400D0300D0F808041E
:103B400080B27047406900F00100704710B5002254
:103B500000EB4111D1F80035C3F381434FF47A747F
:103B6000002B14D0022B12D0D1F8003543F0804343
:103B7000C1F80035D0F8100410F47F0F30D0D1F820
:103B8000000540F00040C1F80005002010BDD1F84C
:103B9000003543F08043C1F80035C06A10F47F0F50
:103BA00006D0D1F8000540F00040C1F80005ECE770
:103BB00001F5A061086820F000400860086840F046
:103BC00000400860086820F400400860A1F5A0618A
:103BD000521CA242D9D8D1F800050028F8DBD4E75E
:103BE00001F5A061086820F000400860086840F016
:103BF00000400860086820F400400860A1F5A0615A
:103C0000521CA242C1D8D1F800050028F8DBBCE75D
:103C10002DE9F043DDE907C5099F002600EB4114BB
:103C20004FF0FF38C4F80885002D1AD0012D40D080
:103C3000022D16D0032D2ED00126D0F8188401F0C5
:103C40000F09012101FA09F148EA0108C0F81884B6
:103C5000816941F000718161100638D54FF4004050
:103C600036E040F29D48C4F80C855FEA026806D54C
:103C7000D4F80C8548F48078C4F80C85DDE7D0F8DA
:103C80003C805FEAC858D8D5D4F80C8548F0600865
:103C9000C4F80C85D1E740F29D68C4F80C855FEA52
:103CA0000268CAD5D4F80C8548F48078C4F80C852D
:103CB000C3E740F22528C4F80C855FEA0268BCD54A
:103CC000D4F80C8548F4C078C4F80C85B5E700201A
:103CD000BCF1020F18D000214FF0FE5C0CEA8353B8
:103CE0004FF4F04C0CEAC22213434FF4402202EA94
:103CF00085421343C7F30A02134303430B43C4F83B
:103D00000035032D03D008E04FF40031E4E7D4F888
:103D1000000540F00050C4F800053046BDE8F083CF
:103D2000D0F8140480B27047F8B54D784FF4807C19
:103D3000C36B4FF00007DB0516D50B79A3B912B999
:103D40004B79012B02D0012A05D00DE02946FFF75F
:103D50009FFE0020F8BD00EB4514D4F80C3523F08D
:103D60006003C4F80C354F710E695EB10C893319CC
:103D70005B1EB3FBF4F39BB2634504D96346240294
:103D80000C6100E00123CC7814B10C895C430C6118
:103D90000C696FF06046C4F3120406EAC3431C4387
:103DA0008B7A4FF0C04606EA43731C4300EB451381
:103DB000C3F8104512B1CC68C3F81445D0F80844D4
:103DC00044F30004641C03F5A0631D6825F000554E
:103DD0001D601D6845EA44741C601D68244CA3F5F1
:103DE000A0632560256825F080452560CD7825B144
:103DF000256845F40045256003E0256825F4004565
:103E00002560256845F0004525602468C3F8004515
:103E10005ABBCA784ABB0B693BB3CA7932B1012A93
:103E200010D0022A02D0032A18D10BE0DB1CC3F306
:103E30008F02C36A9BB2934210D2826942F0200281
:103E400082610BE0DB1CC3F38F02D0F810349BB20D
:103E5000934203D2826942F08062826100970A8AAB
:103E600093B24A78C96800F0FDF80020F8BD000060
:103E7000280000200FB470B504460025C4F8005E89
:103E8000A06B20F40010A063A06B20F40030A063AE
:103E9000E06BC00510D50798012806D0D4F80004BF
:103EA00020F00401C4F800140CE0D4F8000440F041
:103EB0000401C4F8001405E0D4F8000420F0040163
:103EC000C4F8001410212046FFF726FE2046FFF715
:103ED00013FE0020461E06E004EB4011C1F8086501
:103EE000C1F80C55401C06998142F5D801212046A5
:103EF000FFF7DEFDC820FCF7BBFCA5616661E06B47
:103F0000C00508D54FF4007060620D48A0620D48EE
:103F1000C4F8000106E0802060620B48A0620B48F4
:103F2000C4F80001089818B9A06940F01000A06119
:103F3000A06907490843A06170BC00205DF814FB2C
:103F4000000200010003E00080006000E00040008B
:103F5000080020A3D0F8002422F00302C0F80024B7
:103F6000D0F8002401F003031A43C0F8002401290B
:103F700002D0022905D008E04BF68031C0F80414C5
:103F800003E041F27071C0F80414002070474169E9
:103F900080690840704710B503460846D21C920855
:103FA000002103F5805302E01C6810C0491C9142B7
:103FB000FAD310BD10B5C26822F0C042C260012918
:103FC00002D031B1012010BDC16841F00051C16083
:103FD00003E0C16841F08041C1603220FCF748FC39
:103FE000002010BD30B5054600242846FFF74AFDE5
:103FF00010212846FFF790FD2846FFF77DFD0021A0
:1040000005EB4110D0F8002542F0804222F000423A
:1040100022F40042C0F80025491C0F29F0D90021E4
:104020004FF47A7305EB4112D2F8000540F080405E
:1040300040F0004020F40040C2F80005641C9C429F
:1040400003D8D2F800050028F8DB491C0F29E9D96C
:104050004FF0FF30C5F8140468612846FFF745FDAE
:10406000002030BD10B5029C002C0CD1DB1C9C083C
:10407000002300EB023000F5805002E004C902602A
:104080005B1CA342FAD3002010BDFEE72DE9F043EC
:1040900087B0142102A8FCF779FA00243B48016894
:1040A00041F004010160016801F00401019101681F
:1040B00041F080010160016801F080010191016817
:1040C00041F001010160016801F001010191016805
:1040D00041F002010160016801F0020101910168F3
:1040E00041F008010160016801F0080101910168D7
:1040F00041F040010160006800F040000190244F51
:10410000002202213846FCF79EFCDFF8888044F24A
:104110008106002231464046FCF795FCDFF8789096
:10412000002240214846FCF78EFC4FF400500290DC
:104130001A480390049402A91948FCF7ABFB02202B
:104140000290012503950494059402A93846FCF7D2
:10415000A1FB029603950494059402A94046FCF73E
:1041600099FB4020029003950494059402A94846C7
:10417000FCF790FB802002900394049402A9484627
:10418000FCF788FB07B0BDE8F08300003038024040
:10419000000002400004024000180240000011101C
:1041A0000008024010B586B00024029403940494E1
:1041B000059400940194144812490160472141601C
:1041C00084604FF6FE71C16004618461FDF7D0FB2D
:1041D00008B100F01BF84FF48050029002A90A4881
:1041E000FDF708FC08B100F011F80094019469464D
:1041F0000548FDF775FB002801D000F007F806B070
:1042000010BD000000040040BC0B002070470000FF
:1042100030B5A9B034211CA8FCF7B8F9142117A8AF
:10422000FCF7B4F9582101A8FCF7B0F900252248A1
:10423000016841F080510160006800F080500090FA
:104240001E48016841F440410160006800F44040AC
:10425000009001201C904FF4A0201D900224229475
:104260006005239004202490482025902694032064
:10427000279028941CA8FDF759F908B1FCF7D3FA48
:104280000F201790189419954FF480501A901B9591
:10429000022117A8FDF74AF808B1FCF7C4FA20205C
:1042A00001900D9501A8FCF797FE002801D0FCF7BE
:1042B000BAFA29B030BD000040380240007000401A
:1042C00010B50C480A4901604FF4E131416000210A
:1042D0008160C16001610C2242618161C161FDF7B1
:1042E000FAFB002803D0BDE81040FCF79CBA10BDD3
:1042F000004800405C000020044900220B685A621C
:1043000009684A6A8242FCD370470000BC0B002057
:104310000148FDF75DBB0000BC0B002000F026B893
:10432000014A202100F0DCB80004024070B50446C8
:1043300000252820FFF7E0FF21896068FCF77CFB5F
:1043400048B95020FFF7D8FF21896068FCF774FB5B
:10435000012808D0FF2521896068FCF76DFB002843
:10436000F9D1284670BD0125F5E700002DE9FC4193
:1043700005460F469046002000900190286801688D
:10438000284688472868416828468847012802D07F
:104390000020BDE8FC8100246E462868826828461B
:1043A00090473055641CE4B2052CF6D343463A4698
:1043B0006946284600F058F808B10120E9E79FED6A
:1043C000040A87ED000A88ED000A0020E1E70000FA
:1043D0000000C8C22DE9F0410446002501272189CB
:1043E0006068FCF729FB0028F9D02820FFF784FF3C
:1043F00021896068FCF720FB90B1C5F1070107FA3D
:1044000001F03043C6B221896068FCF715FB002833
:10441000F9D16D1CEDB2082DE1D33046BDE8F08135
:10442000C5F1070007FA00F08643ECE710B5044633
:104430002189606800F06EF8218900226068FCF72D
:1044400002FB4FF4FA70FFF757FF218901226068E1
:10445000FCF7F9FA1E20FFF74FFF21896068BDE8DD
:10446000104000F045B800002DE9F04116462DED52
:10447000028B1F46002448780A7840EA0225C87853
:104480008A7840EA02220B79002011F800C06444C7
:10449000E4B2401CC0B20428F7D3A34204D00020E9
:1044A000BDEC028BBDE8F081104600F0FFF99FEDF6
:1044B0000A8B53EC182B00F0A1F800F06DF8306077
:1044C000284600F0F3F953EC182B00F097F800F0B1
:1044D00063F838600120E3E700000000000024409A
:1044E000024B03600181426070470000C44900082C
:1044F00030B585B005460C4614216846FCF746F8F1
:10450000009400210191029169462846FCF7C2F906
:1045100005B030BD30B585B005460C46142168465F
:10452000FCF734F8009401210191002103916946C0
:104530002846FCF7AFF905B030BD0907090E002881
:1045400004DB00F1E02080F80014704700F00F0059
:1045500000F1E02080F8141D704786B0FCF7A8FC3D
:10456000FFF756FEFFF792FDFFF7AAFEFDF71EFECE
:10457000FDF72AFEFFF716FEFFF7CAFE01A8FFF7B8
:10458000CFFE4FF47A6404AA05A901A8FFF7C6FE7E
:104590002046FCF76DF9F6E721F00042A2F16052E7
:1045A000B2F5801F01F0004328BFD2F17F6C0BD918
:1045B0005FEA001C43EAC20242EB507018BF70472A
:1045C00028BF20F001007047B2F5801FBCBF18461D
:1045D00070474FEA410C1CF5001F02D2084600F05C
:1045E000D1B970B500F075F900000089FFF7F6BF8A
:1045F0004FF00040A0F58000704700002DE9C04159
:1046000030B4DFF8A0C23CEA111418BF3CEA13141E
:1046100000F0EC8081EA03051CEA111444EAD57429
:1046200018BF1CEA131500F0C780A4EB05044FF077
:10463000004545EAC12145EAC32341EA505143EA16
:10464000525304F17F74994204F500344FEAC020BC
:104650004FEAC22208BF904200F09C804FEA1365E7
:104660000FF24016765D4FEA134506FB05F7C7F1DA
:10467000807706FB07F74FEAD737A7FB0368764238
:10468000C8F58038A7FB06CE38BFA8F1010807FBA4
:1046900008E64FF0000EA6FB028CE6FB03CEDCF131
:1046A000000CCEF1004E38BFAEF1010EA6FB0C5847
:1046B0004FF000074FF00005E6FB0E87A1FB08C690
:1046C000A0FB07CE16EB0E0645F10005E1FB0765E2
:1046D00015F1E04E7EBFA4F580345FEA46066D41D9
:1046E00016F1800745F100054FEA17274FEA0666E5
:1046F00047EA0567A6F1DE46B6F1805F4FEA152569
:104700001FD9384624F0010C05EBC471BCF1FE6FD3
:1047100001EB0C1102D8F0BCBDE8008124425CBF63
:1047200001F5801E9EEAC47F02D4F0BCBDE8008182
:10473000244238D4F0BCA1F1C041BDE8004100F0F2
:1047400016B94FEAD22242EA43524FEAD323A7FBDB
:1047500002864FEAD02040EA415007FB03661EEA7A
:104760000E0F4FEAD12105FB026658BFA6EB00569B
:10477000B6EB00564FEA520E4EEAC37E18EB0E0E11
:1047800056EB530EBDD518EB02085E417F1C55F168
:104790000005B6E74FF480154FF000074FF0000614
:1047A0004FF00008ADE7F0BC4FF0000001F1C04150
:1047B00001F00041BDE8008111EA0C1F0CEA13155D
:1047C00000D00CE013EA0C1F00F025804FF0000031
:1047D000F0BC81EA030101F00041BDE80081F0BCBA
:1047E000BDE8004181EA030100F0C1B8F0BCBDE8BA
:1047F000004170B500F06DF8097EFC3E00F007B88E
:1048000081EA03014FF0000001F00041704781EAA6
:10481000030100F0ACB8F0BCBDE800414FF000006F
:1048200021497047FFFDFBF9F7F5F4F2F0EEEDEBEF
:10483000E9E8E6E4E3E1E0DEDDDBDAD8D7D5D4D39E
:10484000D1D0CFCDCCCBCAC8C7C6C5C4C2C1C0BFEA
:10485000BEBDBCBBBAB9B8B7B6B5B4B3B2B1B0AFF0
:10486000AEADACABAAA9A8A8A7A6A5A4A3A3A2A1D4
:10487000A09F9F9E9D9C9C9B9A999998979796958F
:1048800095949393929191908F8F8E8E8D8C8C8B2B
:104890008B8A8989888887878685858484838382B3
:1048A000828181800000FF070000F87FB0FA80F36A
:1048B00010FA03F10AD0C3F11D0303F580634FEA38
:1048C00041504FEA035202EBD12170474FF00000F4
:1048D00070470EF1020E2EF0030E5EF8046B3642A6
:1048E00005D4012A43EB030515F5001F12D8012852
:1048F00041EB010C1CF5001F0CD80ED14FEAD17C06
:1049000015F5001F0CEB4C0C0CF1020C08BF4CEB26
:10491000D37C04E04FF0080C01E04FEAD37C0CEBB1
:104920004C0526FA05F606F00706B6F1040C06D289
:104930000EEB860CBDE870404CF0010C6047DFE8E0
:104940000CF0090B02024FF000414FF00000A1F5FE
:10495000002170BD19461046012851EB010418BF13
:10496000D4F5001484BF002001F0004170BD080898
:10497000A0F500114FEA310170474FF04070E1EEB1
:10498000100A7047FF2141EAD050C005704700006F
:10499000B138000869390008253900088139000854
:1049A000B538000800000000000000000102030408
:1049B00006070809000000000102030400000000CF
:1049C000000000002D4400082D430008D5430008D6
:1049D00000000000000000004D534300FC490008A7
:1049E000000000205C00000014020008584A000883
:1049F0005C000020044C00003002000800000000B1
:104A00000000004F4B41592E7478740000000000E4
:104A10000000000000000000000000000000000096
:104A20000000000000000000010000001000000075
:104A3000000000000024F400D8490008080000002D
:104A4000E72E00089B2E0008A92D0008E72F00087C
:084A50006F37000800000000B0
:04000005080001D915
:00000001FF
